S015000041565241737369676E6D656E742E737265630D
S11300000C94C2010C94DF010C94DF010C94DF0109
S11300100C94DF010C9422020C94DF010C94DF0198
S11300200C94DF010C94DF010C94DF010C94DF01CC
S11300300C94DF010C94DF010C94DF010C94DF01BC
S11300400C94F70F0C94DF010C94DF010C94DF0186
S11300500C94F00C0C94AE0C0C94DF010C94DF01A6
S11300600C94DF010C94DF010C94DF010C94DF018C
S11300700C94DF010C94DF010C94DF0143616E6E7C
S11300806F74206D6F766520626F78657320646984
S113009061676F6E616C6C7900446961676F6E6152
S11300A06C206D6F76652063616E6E6F742062657F
S11300B0206D6164650043616E6E6F7420737461BA
S11300C0636B20626F7865730043616E6E6F74209A
S11300D07075736820626F78206F6E746F2077611B
S11300E06C6C0054686572652069732061207761C7
S11300F06C6C20696E2074686520776179005761A3
S11301006C6C2068697400506C6179657220686950
S11301107420612077616C6C006F7220707265735B
S11301207320276E272F274E2720746F2070726F3D
S1130130677265737320746F206C6576656C20320A
S1130140005072657373202772272F27522720745B
S11301506F20726573746172742C202765272F27B2
S1130160452720746F20657869742C0047414D45FC
S1130170204F5645520043535345323031302F37C8
S11301803230312050726F6A656374206279205274
S1130190696C65792053746577617274202D2034FD
S11301A0383832383636320060381F3F3F637EFEBF
S11301B060BCB1B16166C3C060B63FBF617CC3FEC1
S11301C060B3B1B16166C306E0B1313F3F637EFE07
S11301D0F0F000F0F0F0F000F00000F00000F000AB
S11301E0F00000F00000F000F0F0F0F000F0F0009B
S11301F00000000000000000F0F0F0F0F00000004B
S1130200F0000000F0000000F0000000F00000002A
S1130210F0F0F0F0F000000000000000000000002A
S1130220F0F0F0F0F0F0F000000000F0000000004A
S11302300000F000F0000000F0F0000000F000000A
S11302400000000000000000F0F0F0F0F0000000FA
S1130250F0000000F0000000F0000000F0000000DA
S1130260F0F0F0F0F00000000000000000000000DA
S1130270F0F0F0F0F0F0F000F00000F0000000000A
S1130280F00000F000000000F0F0F0F000000000CA
S11302900000000000000000F0F0F000F00000009A
S11302A0F000F000F0000000F000F000F0000000AA
S11302B0F0F0F0F0F000000000000000000000008A
S11302C0F0F0F0F0F000000000000000F00000008A
S11302D000000000F0000000F0F0F0F0F00000007A
S11302E0000000000000000000000000000000000A
S11302F03C3C3C3C3C3C00003C3C00003C3C0000A2
S11303003C003C3C003C00003C003C3C003C000009
S11303103C3C00003C3C00003C3C3C3C3C3C000081
S11303200000001000100000100000100010000079
S11303300010000010001010000010100010101029
S11303400010000000001010100000000000000069
S11303500000000000000000000000000000000099
S11303601B5B3F32356C001B5B25646D001B5B4BD4
S1130370001B5B324A001B5B306D001B5B25643B3A
S11303802564480011241FBECFEFD8E0DEBFCDBFE7
S113039012E0A0E0B1E0E8E8F9E202C005900D92B5
S11303A0A23BB107D9F724E0A2EBB2E001C01D9251
S11303B0AD36B207E1F70E94140C0C94C2140C94ED
S11303C000001092B2021092B702E8E6F0E08081D9
S11303D0826080838BB382608BBBECE6F0E080812B
S11303E08F60808308958091B2028823F9F0809110
S11303F0B3025FB75078F89491E00BC0292F30E036
S1130400F901ED54FD4F4081F901EE54FD4F408355
S11304109F5F2091B202921788F39091B20291509B
S11304209093B202552319F0789408958FEF0895AC
S11304308FB7F8941092B2021092B70288230CF48A
S1130440789408951F920F920FB60F9211242F9350
S11304503F934F938F939F93EF93FF9343B14F70C9
S113046080E024C09091B2029430F8F4242F30E05C
S1130470082E02C0359527950A94E2F720FF15C08F
S11304802091B70230E0082E02C0359527950A94D2
S1130490E2F720FD0AC0E091B20291E09E0F909332
S11304A0B202F0E0ED54FD4F80838F5F8430D0F2D0
S11304B04093B702FF91EF919F918F914F913F919C
S11304C02F910F900FBE0F901F9018959C0140E044
S11304D050E060E472E48FE090E00E943810C901BB
S11304E008951092B30083EA8093B0008AE0809369
S11304F0B1000895882389F080ED97E00E94660298
S1130500E3EBF0E080832FEF83EF91E02150804014
S11305109040E1F700C0000010820895CF93DF936C
S11305208823F9F080ED97E00E946602C3EBD0E0E7
S113053088832FEF82E597E0215080409040E1F7D7
S113054000C0000080E991E00E94660288832FEFDA
S113055082E597E0215080409040E1F700C0000020
S11305601882DF91CF9108951F93CF93DF9388234F
S1130570C1F180ED97E00E946602182FC3EBD0E032
S113058088832FEF82E597E0215080409040E1F787
S113059000C0000088E893E10E94660288832FEF80
S11305A082E597E0215080409040E1F700C00000D0
S11305B018832FEF82E597E0215080409040E1F7C7
S11305C000C0000084EC99E00E94660288832FEF4B
S11305D082E597E0215080409040E1F700C00000A0
S11305E01882DF91CF911F91089590E1899FF001C6
S11305F01124E454FD4FE60FF11D90819770923061
S113060099F028F4992341F0913051F008959430F1
S113061079F0963089F0089540E00E9479070895B2
S11306204FEF0E94790708954CE30E9479070895DB
S11306304FE00E947907089540EF0E9479070895DA
S1130640CF93DF93CDB7DEB7DA950FB6F894DEBF5C
S11306500FBECDBF8130910519F00297E1F035C08E
S113066080E8ECE1F1E0DE01AF57BF4F01900D925D
S11306708A95E1F780E8FE01EF57FF4FDE011196FE
S113068001900D928A95E1F785E08093BB0282E0A8
S11306908093BA021AC080E8ECE9F1E0DE01AF57BA
S11306A0BF4F01900D928A95E1F780E8FE01EF5764
S11306B0FF4FDE01119601900D928A95E1F786E0D5
S11306C08093BB028FE08093BA02A0E02BC08A2FF4
S11306D090E027E030E0281B390B462F50E0FC0166
S11306E0E295F295F07FFE27E07FFE2781E090E01F
S11306F08C0F9D1FE80FF91FE40FF51F7081C901CE
S113070082959295907F9827807F982784549D4F57
S1130710FC01E40FF51F70836F5F01C060E060317E
S1130720B0F2AF5FA830D0F3D3950FB6F894DEBF24
S11307300FBECDBFDF91CF9108959091B90281E0B2
S113074089278093B902882341F040E16091BA027D
S11307508091BB020E94790708956091BA0280914A
S1130760BB020E94F50208950F931F93CF93DF936A
S11307709091B80281E089278093B80200E010E0EC
S113078026C0F801E295F295F07FFE27E07FFE2770
S1130790E454FD4FEC0FFD1F8081843079F4809187
S11307A0B802882331F04FE06C2F802F0E94790724
S11307B005C040E06C2F802F0E947907219602C06B
S11307C0C0E0D0E0C031D105E4F20F5F1F4F083024
S11307D01105B4F3DF91CF911F910F910895CF9339
S11307E0DF93EC0160E272E00E943B11892B91F5EA
S11307F00E94121163E070E00E942410EC01219623
S113080061E070E084E190E00E948C0FC130D1057A
S113081049F487E091E09F938F930E94D4110F9045
S11308200F906FC0C230D10549F48EEF90E09F93D2
S11308308F930E94D4110F900F9063C0239709F0F7
S113084060C083EE90E09F938F930E94D4110F9029
S11308500F9057C06CE172E0CE010E943B11892BCE
S113086079F461E070E084E190E00E948C0F89ECFF
S113087090E09F938F930E94D4110F900F9041C0EA
S113088065E272E0CE010E943B11892B79F461E0AC
S113089070E084E190E00E948C0F86EB90E09F93DF
S11308A08F930E94D4110F900F902BC06DE272E0D1
S11308B0CE010E943B11892B79F461E070E084E160
S11308C090E00E948C0F89E990E09F938F930E949F
S11308D0D4110F900F9015C06BE372E0CE010E940B
S11308E03B11892B71F461E070E084E190E00E9497
S11308F08C0F8CE790E09F938F930E94D4110F90FC
S11309000F90DF91CF91089582959295907F9827CB
S1130910807F982784549D4FFC01E60FF71F808148
S1130920813031F48DE292E00E94EF0380E008957B
S1130930823031F48BE392E00E94EF0380E008956B
S1130940863031F48BE392E00E94EF0380E0089557
S113095081E0089540E050E017C0FA01E295F29575
S1130960F07FFE27E07FFE27E454FD4FE80FF91FD8
S113097020812430A1F0019602C080E090E0803113
S113098091055CF34F5F5F4F48305105B4F36091BC
S1130990BA028091BB020E94F50281E0089580E0D2
S11309A008959B010E942410820F931FB9010E9495
S11309B0241008950F931F93CF93DF938C01CB01E1
S11309C0BA010E948C0F0E94B20FC1E0D0E043C074
S11309D0F801E295F295F07FFE27E07FFE27E454CC
S11309E0FD4FEC0FFD1F8081811109C088E492E066
S11309F09F938F930E94BE110F900F902BC0813054
S1130A0049F486E592E09F938F930E94BE110F9064
S1130A100F9020C0823049F484E692E09F938F9334
S1130A200E94BE110F900F9015C0843049F481E7E5
S1130A3092E09F938F930E94BE110F900F900AC073
S1130A40863041F48EE792E09F938F930E94BE110B
S1130A500F900F902196C031D1050CF4B9CFDF91DE
S1130A60CF911F910F910895AF92BF92CF92DF92D1
S1130A70EF92FF920F931F93CF93DF93C62EB09004
S1130A80BB02E82E880FFF0868E070E0C7018B0DF9
S1130A90911D0E94D104EC01A090BA020C2C000C10
S1130AA0DD0860E170E0C6018A0D911D0E94D10449
S1130AB08C0168E070E0C7018C0F9D1F0E94D10477
S1130AC07C0160E170E0C601800F911F0E94D10497
S1130AD06C016A2D8B2D0E94F50260E070E084E1C8
S1130AE090E00E948C0F0E94B20FFE01E295F295F5
S1130AF0F07FFE27E07FFE27E454FD4FE00FF11F57
S1130B008081813031F480E292E00E94EF0380E042
S1130B10D2C0863009F04BC0F701E295F295F07F20
S1130B20FE27E07FFE27E454FD4FEC0DFD1D808180
S1130B30813031F48CE192E00E94EF0380E0BBC08D
S1130B40FE01E295F295F07FFE27E07FFE27E45454
S1130B50FD4FE00FF11F84E08083602F8C2F0E94F3
S1130B60F5026894AA24A3F8B12CB5016C1B7D0B83
S1130B7041E050E0CE010E94DA04F701E295F295DB
S1130B80F07FFE27E07FFE27E454FD4FEC0DFD1DB2
S1130B9082E080836C2D8E2D0E94F502B5016E19C2
S1130BA07F0941E050E0C7010E94DA046EC0823040
S1130BB009F06BC0F701E295F295F07FFE27E07F24
S1130BC0FE27E454FD4FEC0DFD1D8081813031F48E
S1130BD08CE192E00E94EF0380E06DC0823031F43A
S1130BE085E292E00E94EF0380E065C0FE01E29599
S1130BF0F295F07FFE27E07FFE27E454FD4FE00FDF
S1130C00F11F1082F701E295F295F07FFE27E07F55
S1130C10FE27E454FD4FEC0DFD1D80818430D9F492
S1130C20F701E295F295F07FFE27E07FFE27E4547A
S1130C30FD4FEC0DFD1D86E080836C2D8E2D0E94F2
S1130C40F50268E070E06E197F0941E050E0C701E9
S1130C500E94DA041AC0F701E295F295F07FFE27AC
S1130C60E07FFE27E454FD4FEC0DFD1D82E0808300
S1130C706C2D8E2D0E94F50268E070E06E197F09DC
S1130C8041E050E0C7010E94DA048C2FC093BB02FC
S1130C900093BA02602F0E94F5028091BB0290E09B
S1130CA068E070E0681B790B41E050E00E94DA04D0
S1130CB00E949D0381E0DF91CF911F910F91FF90DE
S1130CC0EF90DF90CF90BF90AF9008958F929F9256
S1130CD0AF92BF92DF92EF92FF920F931F93CF9345
S1130CE0DF93062FD42ED22FE82E880FFF08809191
S1130CF0BB0268E070E09701280F311DC9010E9412
S1130D00D1044C01002E000C110B8091BA0260E159
S1130D1070E09801280F311DC9010E94D1045C01C3
S1130D20BC01C4010E9484048823D1F168E070E00E
S1130D30C4018D0D911DD7FC9A950E94D104982E63
S1130D40C92F60E170E0C5018D0F911DD7FD9A9503
S1130D500E94D104B82E682F792F892D9C2F0E94D0
S1130D608404C82F8823E1F06091BA028091BB0209
S1130D700E94F5029092BB02B092BA026B2D892DAB
S1130D800E94F5028091BB0290E068E070E0681B6D
S1130D90790B41E050E00E94DA040E949D0354C0A4
S1130DA02091BB028D2DDD0C990B68E070E0820F61
S1130DB0911D0E94D1045C012091BA028D2FDD0F98
S1130DC0990B60E170E0820F911D0E94D1044C01E7
S1130DD0BC01C5010E948404C82F8823A9F168E0DE
S1130DE070E0C7018A0D9B1D0E94D104D82FC92F22
S1130DF060E170E0C801880D991D0E94D104182F8C
S1130E00682F792F8D2F9C2F0E948404C82F88234C
S1130E10D9F06091BA028091BB020E94F502D0938E
S1130E20BB021093BA02612F8D2F0E94F5028091AC
S1130E30BB0290E068E070E0681B790B41E050E091
S1130E400E94DA040E949D038C2FDF91CF911F91A1
S1130E500F91FF90EF90DF90BF90AF909F908F9095
S1130E6008950F931F93CF93DF93C7E0D0E001E081
S1130E7010E00DC041E050E0B801CE010E94DA0458
S1130E808AE090E00E94FA110F5F1F4F2197DD2343
S1130E908CF7DF91CF911F910F910895CF93DF933A
S1130EA00E9420031092B902D0E00AC06C2F8D2F4B
S1130EB00E94F502CF5F01C0C0E0C031B8F3DF5F2C
S1130EC0D830D0F30E943107DF91CF91089540E0EC
S1130ED060E07BE480E090E00E94430D80E4809336
S1130EE07C0086E880937A00089580E80E94960D3D
S1130EF008951F93CF93DF936031B0F48830A0F44A
S1130F00142FD62FC82F81E00E94C20D8C2F87701A
S1130F1020E1829FC00111246D2F6F70862B0E94E7
S1130F20C20D812F0E94C20DDF91CF911F910895B0
S1130F300F931F93CF938031A0F48B01C82F83E0CC
S1130F400E94C20D8C2F8F700E94C20DC0E007C09A
S1130F50F801EC0FF11D80810E94C20DCF5FC830F3
S1130F60B8F3CF911F910F91089584E00E94C20DB0
S1130F7082E00E94C20D08958FE00E94C20D089580
S1130F800E9475070E94E10140E060E07BE480E09C
S1130F9090E00E94430D0E94D10F0E941C100E94F9
S1130FA021100E9471020E9467077894ECE7F0E038
S1130FB080818E7F8083EAE7F0E080818064808393
S1130FC08AE18A95F1F700C080917A0086FDFCCF12
S1130FD0809178009091790080935203ECE7F0E0DF
S1130FE0808181608083EAE7F0E08081806480838F
S1130FF08AE18A95F1F700C080917A0086FDFCCFE2
S1131000809178009091790080934E0308950E9416
S1131010C80F0E94A00F0E94A90F65E083E00E9400
S1131020660F65E070E08BE090E00E948C0F86E72D
S113103091E09F938F930E94D4110E94B10E0E945D
S113104018020F900F900E94F3018F3F99F40E94B1
S11310508A0D882361F080916704909168040E944E
S113106044118337910531F08335910519F00E94BD
S1131070BB0EE9CF0895CF93DF93EC010E94C80F14
S11310800E94A90FCE010E944E0761E070E08AE041
S113109090E00E948C0F809150031F928F938CE8F4
S11310A092E09F938F930E94BE118AB180648AB9A3
S11310B080914F030E948E020E9418020E94910D9B
S11310C010924D030F900F900F900F90DF91CF91DE
S11310D008956AE070E08EE090E00E948C0F8CE648
S11310E091E09F938F930E94D4116AE070E08FE0A7
S11310F090E00E948C0F81E491E09F938F930E9473
S1131100D4116AE070E080E190E00E948C0F89E1E4
S113111091E09F938F930E94D41180914D03C8EC6A
S1131120D0E0C81BD1090F900F900F900F900F9033
S11311300F901C161D0614F0C0E0D0E0209151035E
S113114080EB94E0821B91091816190614F4C80F59
S1131150D91F6AE070E082E190E00E948C0FDF9377
S1131160CF9386E992E09F938F930E94BE110F90D4
S11311700F900F900F90C0E0D0E00E948A0D88235A
S113118039F080916704909168040E94441102C070
S11311908FEF9FEF0E942A118235910541F48091CF
S11311A0500390E00E943B080E942E091CC0853425
S11311B0910569F481E0809350030E9407088091AF
S11311C0500390E00E943B080E942E090CC08E340C
S11311D0910549F482E08093500382E090E00E94FC
S11311E03B080E942E09209791F490914D03EDEC59
S11311F09E9FE12D1124E695E695E695EE0F8E2F40
S1131200880F880FE80F9E1BE92FF0E017C080912C
S11312104D03EDEC8E9F812D112486958695869540
S11312208E9FE12D1124E695E695E695EE0F9E2F0F
S1131230990F990FE90F8E1BE82FF0E0EC5FFE4F3A
S1131240808188B98C2F8295880F807E8BB981E04C
S113125090E09C012C1B3D0BE9018FCFCF93DF93D2
S1131260CDB7DEB769970FB6F894DEBF0FBECDBF1A
S113127010924D038FEF87B980E28AB90E94E70F7D
S11312804B015C010E94E70F2B013C010E94E70F18
S11312901092510301E01E8A1F8A188E198E10E0E5
S11312A0B2C20E94F3018D8B0E948A0D882339F00B
S11312B080916704909168040E94441102C08FEFEA
S11312C09FEF0E9422116C018137910531F49091B6
S11312D04F0381E0892780934F0380E7C816D10428
S11312E009F046C00E948A0D882359F08091670452
S11312F0909168040E9444110E9422118037910544
S1131300B9F1111111C090914D03EDEC9E9FE12DA7
S11313101124E695E695E695EE0F8E2F880F880F3B
S1131320E80F9E1BE92F16C080914D03EDEC8E9FB4
S1131330812D11248695869586958E9FE12D112405
S1131340E695E695E695EE0F9E2F990F990FE90F16
S11313508E1BE82FF0E0EC5FFE4F808188B9812F6F
S11313608295880F807E8BB981E0811B182FBACFBC
S1131370ECE7F0E080818E7F8083EAE7F0E0808113
S11313808064808380917A0086FDFCCFE0907800B1
S1131390F0907900ECE7F0E0808181608083EAE7F7
S11313A0F0E080818064808380917A0086FDFCCFA8
S11313B0209078003090790061E070E080E090E067
S11313C00E948C0FFF92EF928DE992E09F938F938E
S11313D00E94BE118091520390E0AC01485C510917
S11313E00F900F900F900F90E416F50650F5209192
S11313F04E0330E028533F4F2215330510F50023E8
S113140001F120E041E06FEF80E00E94660688234E
S113141099F080914D038E5F80934D038AB180646F
S11314208AB980914F030E947A020E94E70F6E8B63
S11314307F8B888F998F00E00E94E70F4B015C013E
S113144040C1E416F50650F520914E0330E0285CC7
S113145031092216330610F5002301F120E04FEF85
S11314606FEF80E00E946606882399F080914D0317
S11314708E5F80934D038AB180648AB980914F0353
S11314800E947A020E94E70F6E8B7F8B888F998F60
S113149000E00E94E70F4B015C0113C1AC0148530B
S11314A05F4F4E155F0550F520914E0330E0285CE8
S11314B031092216330610F5002301F120E04FEF25
S11314C061E080E00E946606882399F080914D03D4
S11314D08E5F80934D038AB180648AB980914F03F3
S11314E00E947A020E94E70F6E8B7F8B888F998F00
S11314F000E00E94E70F4B015C01E3C04E155F055D
S113150050F520914E0330E028533F4F2215330508
S113151010F5002301F120E041E061E080E00E9449
S11315206606882399F080914D038E5F80934D0366
S11315308AB180648AB980914F030E947A020E9422
S1131540E70F6E8B7F8B888F998F00E00E94E70FE7
S11315504B015C01B6C02D89222351F024E6C2164A
S1131560D10431F09C0120573E4F2E153F0500F564
S11315700023F1F061E080E00E943405882399F0B3
S113158080914D038F5F80934D038AB180648AB943
S113159080914F030E947A020E94E70F6E8B7F8B2B
S11315A0888F998F00E00E94E70F4B015C0189C08E
S11315B02D89213061F023E7C216D10441F0209136
S11315C04E0330E0205931402216330600F5002343
S11315D0F1F060E08FEF0E943405882399F0809148
S11315E04D038F5F80934D038AB180648AB98091E3
S11315F04F030E947A020E94E70F6E8B7F8B888FC5
S1131600998F00E00E94E70F4B015C015AC02D89BD
S1131610223061F027E7C216D10441F020914E0335
S113162030E020573E4F2215330500F50023F1F03A
S113163060E081E00E943405882399F080914D0395
S11316408F5F80934D038AB180648AB980914F0380
S11316500E947A020E94E70F6E8B7F8B888F998F8E
S113166000E00E94E70F4B015C012BC02D89233061
S113167049F021E6C216D10429F080599140E816B8
S1131680F906F8F40023E9F06FEF80E00E943405D6
S1131690882399F080914D038F5F80934D038AB125
S11316A080648AB980914F030E947A020E94E70FF6
S11316B06E8B7F8B888F998F00E00E94E70F4B0120
S11316C05C010E94E70F6B017C01D501C4018853C2
S11316D09F4FAF4FBF4FC816D906EA06FB0620F04E
S11316E00E949D0346015701D301C2018C509E4FB5
S11316F0AF4FBF4FC816D906EA06FB0620F00E947A
S1131700B403260137018E899F89A88DB98D8C5920
S11317109F4FAF4FBF4FC816D906EA06FB0608F025
S113172001E0111111C090914D03EDEC9E9FE12D4C
S11317301124E695E695E695EE0F8E2F880F880F17
S1131740E80F9E1BE92F16C080914D03EDEC8E9F90
S1131750812D11248695869586958E9FE12D1124E1
S1131760E695E695E695EE0F9E2F990F990FE90FF2
S11317708E1BE82FF0E0EC5FFE4F808188B9812F4B
S11317808295880F807E8BB981E0811B182F0E947F
S1131790E70F28EE33E040E050E00E943810672B5A
S11317A0682B692B69F561E070E086E190E00E94A6
S11317B08C0F809151031F928F938DE992E09F9338
S11317C08F93CE0101967C019F938F930E94011207
S11317D0FF92EF9280EA92E09F938F930E94BE1152
S11317E0809151038F5F809351038FE19EE40197B1
S11317F0F1F700C000000FB6F894DEBF0FBECDBFF6
S11318008AB18D7B8AB90E94AA04882309F449CD40
S11318108AB180648AB980914F030E94B4028AB16C
S11318208D7B8AB90E9469080E94E70FCB010E9450
S113183017110E94C0070E94070881E0809350039B
S113184080934F0381E090E00E943B080E942E09A0
S1131850CF93C82F8A3019F48DE00E94280C9FB7CB
S1131860907802C0992329F1809154038F3FD1F3DA
S1131870F894E091530381E08E0F80935303F0E0DA
S1131880EB5AFC4FC083809154038F5F80935403C1
S1131890809153038F3F11F410925303E1ECF0E075
S11318A0808180628083992339F0789480E090E08D
S11318B005C081E090E002C080E090E0CF910895FF
S11318C0809166048823E1F32FB72078F8948091FF
S11318D054043091660490E0831B91095AF4E0911A
S11318E0540480916604F0E0E81BF109EB59FB4FC6
S11318F080810AC0E091540480916604F0E0E81B02
S1131900F109EB5AFB4F80819091660491509093BA
S11319106604222309F0789490913D039B31B1F43D
S113192090913C039B3591F4823449F018F481344E
S113193061F00CC0833429F0843429F007C083E7B4
S113194005C084E603C081E601C087E790913C03AB
S113195090933D0380933C0390E008951F920F926F
S11319600FB60F9211242F938F939F93EF93FF93AE
S113197080915403882329F18091530320915403C7
S113198090E0821B91095AF4E0915303809154032F
S1131990F0E0E81BF109EC5AFB4F90810AC0E0919A
S11319A0530380915403F0E0E81BF109EB5AFC4F18
S11319B09081809154038150809354039093C60086
S11319C005C0E1ECF0E080818F7D8083FF91EF9191
S11319D09F918F912F910F900FBE0F901F9018958C
S11319E01F920F920FB60F9211242F933F934F9390
S11319F05F936F937F938F939F93AF93BF93CF9393
S1131A00EF93FF93C091C60080913E03882349F071
S1131A10809154038F3F29F060E070E08C2F0E9486
S1131A20280C80916604803120F081E08093650465
S1131A3018C0CD3009F4CAE0E091540481E08E0F5F
S1131A4080935404F0E0EB5AFB4FC083809166040A
S1131A508F5F8093660480915404803111F4109256
S1131A605404FF91EF91CF91BF91AF919F918F91CA
S1131A707F916F915F914F913F912F910F900FBE86
S1131A800F901F90189510925303109254031092C4
S1131A905404109266041092650440933E03DC01E2
S1131AA0CB01880F991FAA1FBB1F880F991FAA1F5C
S1131AB0BB1F9C01AD01220F331F441F551F60E063
S1131AC072E18AE790E00E945A10BA01A9014F5FBF
S1131AD05F4F6F4F7F4FDB01CA011AF40196A11DBE
S1131AE0B11DB595A7959795879501979093C500D6
S1131AF08093C400E1ECF0E088E180838081806819
S1131B008083E7E6F4E08EE091E09383828391831F
S1131B10808308959091660481E0911101C080E072
S1131B2008951092540410926604089594B1906B31
S1131B3094B995B1906195B990E59CBD883021F038
S1131B40803211F0823019F491E09DBD01C01DBCBA
S1131B50803269F028F4883071F0803161F00EC071
S1131B60803429F0803851F48CB581608CBD8CB5FB
S1131B7082608CBD03C08CB581608CBD85B18F7EC5
S1131B8085B908958EBD0DB407FEFDCF8EB50895B9
S1131B901F93CF93DF93CDB7DEB728970FB6F89492
S1131BA0DEBF0FBECDBF10E017C0612F70E0660F1F
S1131BB0771F660F771F660F771F60537E4F48E0CD
S1131BC050E0CE0101960E943211BE016F5F7F4F3B
S1131BD0812F0E9498071F5F103138F328960FB6A3
S1131BE0F894DEBF0FBECDBFDF91CF911F91089552
S1131BF0CF93DF93CDB7DEB728970FB6F894DEBF47
S1131C000FBECDBF0E94B50760913F0370E0660F21
S1131C10771F660F771F660F771F60537E4F48E06C
S1131C2050E0CE0101960E943211BE016F5F7F4FDA
S1131C308FE00E94980740913F0350E04F5F5F4F51
S1131C409A0136952795ABE7B4E10E9479109695F1
S1131C50879562E3689F9001699F300D1124CA0142
S1131C60821B930B80933F03803129F480914803B6
S1131C7081608093480328960FB6F894DEBF0FBEA8
S1131C80CDBFDF91CF910895EF92FF920F931F93F1
S1131C90CF93DF93CDB7DEB728970FB6F894DEBFA6
S1131CA00FBECDBFF62EE42E682F70E0660F771FAF
S1131CB0660F771F660F771F68557E4F48E050E028
S1131CC0CE0101960E9432110FE310E00F191109A1
S1131CD029813A814B815C816D817E818F819885D8
S1131CE00E948A10217030E040E050E060E070E033
S1131CF080E090E0A0E00E94A610C1F0E1101BC0BB
S1131D0010E00FC0812F90E0FC01E655FD4F2081CB
S1131D102F1530F0FC01ED55FD4F80810E94BB0F63
S1131D201F5F173078F3EE24E39405C0EE2019F01A
S1131D300E94A00FE12C6091690470916A0480E212
S1131D4090E00E9482118E2D28960FB6F894DEBF83
S1131D500FBECDBFDF91CF911F910F91FF90EF90F8
S1131D6008950E94BC070E94C80D809148038160B9
S1131D70809348030895CF92DF92EF92FF920E94DE
S1131D80E70F6B017C018091480380FF16C0C0926D
S1131D904403D0924503E0924603F0924703C09275
S1131DA04003D0924103E0924203F092430390E156
S1131DB090933F03887F8093480380913F03803151
S1131DC009F064C08091440390914503A0914603B7
S1131DD0B0914703AC01BD014053584F6F4F7F4F43
S1131DE04C155D056E057F0558F40E94F80DC092F0
S1131DF04003D0924103E0924203F092430361C056
S1131E0020914803322F327021FD19C088519C4F14
S1131E10AF4FBF4F8C159D05AE05BF0580F40E94E2
S1131E20C80D80914803826080934803C0924003A8
S1131E30D0924103E0924203F092430342C0311135
S1131E4040C08091400390914103A0914203B0911E
S1131E5043038C599F4FAF4FBF4F8C159D05AE0563
S1131E60BF0578F584E028272093480322FF03C0A8
S1131E700E94BC0702C00E94C80DC0924003D092C9
S1131E804103E0924203F09243031BC0809140035C
S1131E9090914103A0914203B091430388539F4F13
S1131EA0AF4FBF4F8C159D05AE05BF0550F40E9482
S1131EB0F80DC0924003D0924103E0924203F092A5
S1131EC04303FF90EF90DF90CF900895FF920F931C
S1131ED01F93CF93DF93F82E062F10E0D0E014C0A9
S1131EE0602F70E08F2D90E0810F911D0E948C0F68
S1131EF0C0E007C04D2F6C2F812F0E94440ED82FB5
S1131F00CF5FC034B8F31F5F153050F3DF91CF912A
S1131F101F910F91FF9008956F5F7F4F7F936F9391
S1131F2001969F938F938BE793E09F938F930E94E7
S1131F30D4110F900F900F900F900F900F90089561
S1131F4086E793E09F938F930E94D4110F900F9094
S1131F50089581E793E09F938F930E94D4110F908B
S1131F600F9008958DE693E09F938F930E94D41170
S1131F700F900F9008951F928F9387E693E09F939D
S1131F808F930E94D4110F900F900F900F9008958B
S1131F9080E693E09F938F930E94D4110F900F904B
S1131FA008951092490310924A0310924B03109221
S1131FB04C0316BC8CE787BD92E094BD83E085BDDD
S1131FC0EEE6F0E080818260808395BB08958FB750
S1131FD0282F2078F8946091490370914A038091E6
S1131FE04B0390914C03222309F0789408951F9297
S1131FF00F920FB60F9211248F939F93AF93BF93B9
S11320008091490390914A03A0914B03B0914C03F2
S11320100196A11DB11D8093490390934A03A09397
S11320204B03B0934C03BF91AF919F918F910F904D
S11320300FBE0F901F901895109285001092840087
S113204008951092B200089597FB072E16F4009499
S113205007D077FD09D00E94B21007FC05D03EF4EA
S1132060909581959F4F0895709561957F4F089540
S1132070A1E21A2EAA1BBB1BFD010DC0AA1FBB1F88
S1132080EE1FFF1FA217B307E407F50720F0A21BFA
S1132090B30BE40BF50B661F771F881F991F1A9467
S11320A069F760957095809590959B01AC01BD0191
S11320B0CF010895052E97FB1EF400940E94711021
S11320C057FD07D00E94381007FC03D04EF40C943F
S11320D0711050954095309521953F4F4F4F5F4F6C
S11320E0089590958095709561957F4F8F4F9F4F80
S11320F00895A29FB001B39FC001A39F700D811DDD
S11321001124911DB29F700D811D1124911D0895FC
S113211097FB10F8169400080F93083098F00850B5
S1132120232F342F452F562F672F782F892F902D4B
S1132130F4CF059497958795779567955795479527
S1132140379527950A95AAF70F9108950024A7FDBE
S113215000942A1730054005500560057005800578
S113216090050895AA1BBB1B51E107C0AA1FBB1F02
S1132170A617B70710F0A61BB70B881F991F5A950F
S1132180A9F780959095BC01CD0108958F929F92F7
S1132190AF92BF92CF92DF92EF92FF92CF93DF93F1
S11321A0EC01688179818A819B81611571058105C2
S11321B0910521F464E279ED8BE597E02DE133EFAD
S11321C041E050E00E945A1049015A019B01AC01C0
S11321D0A7EAB1E40E9478146B017C01ACEEB4EF81
S11321E0A50194010E948614DC01CB018C0D9D1D78
S11321F0AE1DBF1DB7FF03C00197A109B048888376
S11322009983AA83BB839F77DF91CF91FF90EF904F
S1132210DF90CF90BF90AF909F908F9008950E94D1
S1132220C610089580E091E00E94C6100895A0E0D1
S1132230B0E08093000190930101A0930201B09358
S1132240030108959111089581548A5108F4805E20
S1132250855A08959111089581568A5108F480523F
S113226085580895FB01DC0102C005900D92415090
S11322705040D8F70895FB01DC018D91019080193D
S11322800110D9F3990B0895CF93DF93EC012B81BF
S113229020FF33C026FF0AC02F7B2B838E819F81B2
S11322A001969F838E838A8190E029C022FF0FC00C
S11322B0E881F9818081082E000C990B009719F4AC
S11322C020622B831AC03196F983E8830EC0EA8515
S11322D0FB85099597FF09C02B81019611F080E2D7
S11322E001C080E1822B8B8308C02E813F812F5F48
S11322F03F4F3F832E83992702C08FEF9FEFDF91DB
S1132300CF9108950F931F93CF93DF93FB01238104
S113231021FD03C08FEF9FEF2CC022FF16C0468122
S11323205781248135814217530744F4A081B18138
S11323309D012F5F3F4F318320838C93268137810A
S11323402F5F3F4F3783268314C08B01EC01FB01C1
S11323500084F185E02D0995892BE1F6D8011696C4
S11323608D919C911797019617969C938E9316972F
S1132370CE01DF91CF911F910F910895A0E0B0E0BD
S1132380E4ECF1E10C949B14AE014B5F5F4FFA0156
S113239061917191AF018091690490916A040E94E6
S11323A02312E2E00C94B714A0E0B0E0EAEDF1E10E
S11323B00C949914AE01495F5F4FDA016D917D91E0
S11323C0AD0107E614E0F80182819381DC011396E4
S11323D02C911397286013962C930E942312D801F2
S11323E01296ED91FC9113972381277F2383E4E0D8
S11323F00C94B5146091690470916A040E9482116E
S11324000895AEE0B0E0E7E0F2E10C9499140D8990
S11324101E8986E08C831A8309838FEF9FE79E834E
S11324208D83AE01475E5F4F6F89788DCE01019633
S11324300E942312EF81F885E00FF11F10822E967F
S1132440E4E00C94B514ABE0B0E0E9E2F2E10C9402
S11324508B146C017B018A01FC0117821682838133
S113246081FFCCC1CE0101963C01F6019381F701B5
S113247093FD859193FF81917F01882309F4BAC16B
S1132480853239F493FD859193FF81917F018532E3
S113249029F4B60190E00E948211E7CF912C212CFF
S11324A0312CFFE1F315D8F08B3279F038F4803217
S11324B079F08332A1F4232D20611DC08D3261F0A7
S11324C0803369F4232D216016C0832D8260382E59
S11324D0E32DE4603E2E2AC0F32DF8601DC037FCC6
S11324E02DC020ED280F2A3040F08E32B9F436FC8E
S11324F081C1232D2064322E19C036FE06C08AE025
S1132500989E200D1124922E11C0EAE02E9E200DDB
S11325101124222EF32DF0623F2E08C08C3621F4B4
S1132520832D8068382E02C0883641F4F70193FD6C
S1132530859193FF81917F018111B3CF982F9F7D66
S11325409554933028F40C5F1F4F9FE399830DC07B
S1132550833631F0833771F0833509F059C021C0D7
S1132560F801808189830E5F1F4F88248394912C06
S1132570530113C02801F2E04F0E511CF801A08052
S1132580B18036FE03C0692D70E002C06FEF7FEFAB
S1132590C5010E940F144C018201F32DFF773F2ED9
S11325A016C0280122E0420E511CF801A080B1801F
S11325B036FE03C0692D70E002C06FEF7FEFC501E6
S11325C00E9404144C01F32DF0683F2E820133FC69
S11325D01BC0822D90E088169906B0F4B60180E203
S11325E090E00E9482112A94F4CFF50137FC859182
S11325F037FE81915F01B60190E00E9482112110A3
S11326002A9421E0821A91088114910471F7E8C098
S1132610843611F0893641F5F80137FE07C0608130
S11326207181828193810C5F1F4F08C06081718129
S1132630072E000C880B990B0E5F1F4FF32DFF76AE
S11326403F2E97FF09C090958095709561957F4FB7
S11326508F4F9F4FF0683F2E2AE030E0A3010E9485
S11326601A14882E861845C0853731F4232D2F7E01
S1132670B22E2AE030E025C0932D997FB92E8F36F3
S1132680C1F018F4883579F0B5C0803719F088376F
S113269021F0B0C0E92FE061BE2EB4FE0DC0FB2DC9
S11326A0F460BF2E09C034FE0AC0292F2660B22E62
S11326B006C028E030E005C020E130E002C020E19F
S11326C032E0F801B7FE07C0608171818281938195
S11326D00C5F1F4F06C06081718180E090E00E5F47
S11326E01F4FA3010E941A14882E8618FB2DFF7712
S11326F03F2E36FE0DC0232D2E7FA22E891458F4B2
S113270034FE0BC032FC09C0832D8E7EA82E05C07A
S1132710B82CA32C03C0B82C01C0B92CA4FE0FC044
S1132720FE01E80DF11D8081803321F49A2D997EFC
S1132730A92E09C0A2FE06C0B394B39404C08A2D86
S1132740867809F0B394A3FC11C0A0FE06C0B214AD
S113275088F4280C922C9B180EC0B21460F4B601B5
S113276080E290E00E948211B394F7CFB21418F47F
S11327702B1802C0982C212CA4FE10C0B60180E3B3
S113278090E00E948211A2FE17C0A1FC03C088E75A
S113279090E002C088E590E0B6010CC08A2D8678EE
S11327A059F0A1FE02C08BE201C080E2A7FC8DE2D9
S11327B0B60190E00E948211891438F4B60180E3D6
S11327C090E00E9482119A94F7CF8A94F301E80D65
S11327D0F11D8081B60190E00E9482118110F5CF35
S11327E0222009F442CEB60180E290E00E948211D8
S11327F02A94F6CFF6018681978102C08FEF9FEF6E
S11328002B96E2E10C94A714FC01059061507040F2
S11328100110D8F7809590958E0F9F1F0895FC01A5
S11328206150704001900110D8F7809590958E0FFB
S11328309F1F0895FA01AA27283051F1203181F110
S1132840E8946F936E7F6E5F7F4F8F4F9F4FAF4FB4
S1132850B1E03ED0B4E03CD0670F781F891F9A1FC7
S1132860A11D680F791F8A1F911DA11D6A0F711D7B
S1132870811D911DA11D20D009F468943F912AE087
S1132880269F11243019305D3193DEF6CF0108956F
S1132890462F4770405D4193B3E00FD0C9F7F6CFA0
S11328A0462F4F70405D4A3318F0495D31FD405268
S11328B0419302D0A9F7EACFB4E0A69597958795FE
S11328C077956795BA95C9F70097610571050895DD
S11328D09B01AC010A2E0694579547953795279589
S11328E0BA95C9F7620F731F841F951FA01D089521
S11328F00E947910A59F900DB49F900DA49F800D08
S1132900911D11240895B7FF0C9478140E94781433
S1132910821B930B08952F923F924F925F926F9276
S11329207F928F929F92AF92BF92CF92DF92EF925B
S1132930FF920F931F93CF93DF93CDB7DEB7CA1BDC
S1132940DB0B0FB6F894DEBF0FBECDBF09942A8807
S1132950398848885F846E847D848C849B84AA84AF
S1132960B984C884DF80EE80FD800C811B81AA813C
S1132970B981CE0FD11D0FB6F894DEBF0FBECDBF07
S10B2980ED010895F894FFCF66
S1132988010000003F065B4F666D7D077F6F000006
S1132998000300000000280C600C00000001000186
S11329A8010100010101000001010101000104010C
S11329B800000104000200000000040100000000FF
S11329C800000000000000000000000001000200F8
S11329D800000001000002000002000101000000E4
S11329E801000200000000000000000000000000D8
S11329F800000400000000000000000000000001C6
S1132A0801010101010400000000000101010000AE
S1132A1800000000010100000101010100000101A2
S1132A280101000001010000000000010000010094
S1132A380001000101000000000200000000010084
S1132A480201010100000401000401010000010069
S1132A58000000040000020101010000010101015D
S1132A68000100000000000100010100010402004F
S1132A780000000200000001010001010100000043
S1132A88040000000000000204000000010101012C
S1132A98010101010101010101010101626F785F76
S1132AA877616C6C00626F785F626F780077616C35
S1132AB86C5F646961676F6E616C00626F785F64F4
S1132AC86961676F6E616C001B5B3130306D20206B
S1132AD8201B5B306D001B5B3130336D2020201BC5
S1132AE85B306D001B5B34336D2020201B5B306D25
S1132AF8001B5B34316D2020201B5B306D001B5B99
S1132B083130326D2020201B5B306D004C657665BA
S1132B186C3A2025640053636F72653A202564007B
S1132B282573002E2F292B2C2A2D3A302820170FF5
S1052B38060091
S9030000FC
