S015000041565241737369676E6D656E742E737265630D
S11300000C94C2010C94DF010C94DF010C94DF0109
S11300100C94DF010C9422020C94DF010C94DF0198
S11300200C94DF010C94DF010C94DF010C94DF01CC
S11300300C94DF010C94DF010C94DF010C94DF01BC
S11300400C94B5110C94DF010C94DF010C94DF01C6
S11300500C94AE0E0C946C0E0C94DF010C94DF0126
S11300600C94DF010C94DF010C94DF010C94DF018C
S11300700C94DF010C94DF010C94DF0143616E6E7C
S11300806F74206D6F766520626F78657320646984
S113009061676F6E616C6C7900446961676F6E6152
S11300A06C206D6F76652063616E6E6F742062657F
S11300B0206D6164650043616E6E6F7420737461BA
S11300C0636B20626F7865730043616E6E6F74209A
S11300D07075736820626F78206F6E746F2077611B
S11300E06C6C0054686572652069732061207761C7
S11300F06C6C20696E2074686520776179005761A3
S11301006C6C2068697400506C6179657220686950
S11301107420612077616C6C006F7220707265735B
S11301207320276E272F274E2720746F2070726F3D
S1130130677265737320746F206C6576656C20320A
S1130140005072657373202772272F27522720745B
S11301506F20726573746172742C202765272F27B2
S1130160452720746F20657869742C0047414D45FC
S1130170204F5645520043535345323031302F37C8
S11301803230312050726F6A656374206279205274
S1130190696C65792053746577617274202D2034FD
S11301A0383832383636320060381F3F3F637EFEBF
S11301B060BCB1B16166C3C060B63FBF617CC3FEC1
S11301C060B3B1B16166C306E0B1313F3F637EFE07
S11301D0F0F000F0F0F0F000F00000F00000F000AB
S11301E0F00000F00000F000F0F0F0F000F0F0009B
S11301F00000000000000000F0F0F0F0F00000004B
S1130200F0000000F0000000F0000000F00000002A
S1130210F0F0F0F0F000000000000000000000002A
S1130220F0F0F0F0F0F0F000000000F0000000004A
S11302300000F000F0000000F0F0000000F000000A
S11302400000000000000000F0F0F0F0F0000000FA
S1130250F0000000F0000000F0000000F0000000DA
S1130260F0F0F0F0F00000000000000000000000DA
S1130270F0F0F0F0F0F0F000F00000F0000000000A
S1130280F00000F000000000F0F0F0F000000000CA
S11302900000000000000000F0F0F000F00000009A
S11302A0F000F000F0000000F000F000F0000000AA
S11302B0F0F0F0F0F000000000000000000000008A
S11302C0F0F0F0F0F000000000000000F00000008A
S11302D000000000F0000000F0F0F0F0F00000007A
S11302E0000000000000000000000000000000000A
S11302F03C3C3C3C3C3C00003C3C00003C3C0000A2
S11303003C003C3C003C00003C003C3C003C000009
S11303103C3C00003C3C00003C3C3C3C3C3C000081
S11303200000001000100000100000100010000079
S11303300010000010001010000010100010101029
S11303400010000000001010100000000000000069
S11303500000000000000000000000000000000099
S11303601B5B3F32356C001B5B25646D001B5B4BD4
S1130370001B5B324A001B5B306D001B5B25643B3A
S11303802564480011241FBECFEFD8E0DEBFCDBFE7
S113039012E0A0E0B1E0E4E0FDE202C005900D92BD
S11303A0AE3FB107D9F724E0AEEFB2E001C01D9231
S11303B0A73BB207E1F70E94D20D0C9480160C946F
S11303C000001092FE0210920303E8E6F0E0808140
S11303D0826080838BB382608BBBECE6F0E080812B
S11303E08F60808308958091FE028823F9F08091C4
S11303F0FF025FB75078F89491E00BC0292F30E0EA
S1130400F901E150FD4F4081F901E250FD4F408375
S11304109F5F2091FE02921788F39091FE02915003
S11304209093FE02552319F0789408958FEF089560
S11304308FB7F8941092FE021092030388230CF4F1
S1130440789408951F920F920FB60F9211242F9350
S11304503F934F938F939F93EF93FF9343B14F70C9
S113046080E024C09091FE029430F8F4242F30E010
S1130470082E02C0359527950A94E2F720FF15C08F
S11304802091030330E0082E02C0359527950A9485
S1130490E2F720FD0AC0E091FE0291E09E0F9093E6
S11304A0FE02F0E0E150FD4F80838F5F8430D0F294
S11304B040930303FF91EF919F918F914F913F914F
S11304C02F910F900FBE0F901F9018959C0140E044
S11304D050E060E472E48FE090E00E94F611C901FC
S11304E008951092B30083EA8093B0008AE0809369
S11304F0B1000895882389F080ED97E00E94660298
S1130500E3EBF0E080832FEF83EF91E02150804014
S11305109040E1F700C0000010820895CF93DF936C
S11305208823F9F080ED97E00E946602C3EBD0E0E7
S113053088832FEF82E597E0215080409040E1F7D7
S113054000C0000080E991E00E94660288832FEFDA
S113055082E597E0215080409040E1F700C0000020
S11305601882DF91CF9108951F93CF93DF9388234F
S1130570C1F180ED97E00E946602182FC3EBD0E032
S113058088832FEF82E597E0215080409040E1F787
S113059000C0000088E893E10E94660288832FEF80
S11305A082E597E0215080409040E1F700C00000D0
S11305B018832FEF82E597E0215080409040E1F7C7
S11305C000C0000084EC99E00E94660288832FEF4B
S11305D082E597E0215080409040E1F700C00000A0
S11305E01882DF91CF911F91089590E1899FF001C6
S11305F01124E85FFC4FE60FF11D90819770923053
S113060099F028F4992341F0913051F008959430F1
S113061079F0963089F0089540E00E943E090895EB
S11306204FEF0E943E0908954CE30E943E0908954D
S11306304FE00E943E09089540EF0E943E0908954C
S1130640CF93DF93CDB7DEB7DA950FB6F894DEBF5C
S11306500FBECDBF8130910519F00297E1F035C08E
S113066080E8E8E6F1E0DE01AF57BF4F01900D925C
S11306708A95E1F780E8FE01EF57FF4FDE011196FE
S113068001900D928A95E1F785E08093070382E05B
S1130690809306031AC080E8E8EEF1E0DE01AF576C
S11306A0BF4F01900D928A95E1F780E8FE01EF5764
S11306B0FF4FDE01119601900D928A95E1F786E0D5
S11306C0809307038FE080930603A0E02BC08A2F5A
S11306D090E027E030E0281B390B462F50E0FC0166
S11306E0E295F295F07FFE27E07FFE2781E090E01F
S11306F08C0F9D1FE80FF91FE40FF51F7081C901CE
S113070082959295907F9827807F9827885F9C4F49
S1130710FC01E40FF51F70836F5F01C060E060317E
S1130720B0F2AF5FA830D0F3D3950FB6F894DEBF24
S11307300FBECDBFDF91CF9108959091050381E065
S1130740892780930503882341F040E160910603E3
S1130750809107030E943E090895609106038091E9
S113076007030E94F50208950F931F93CF93DF931D
S11307709091040381E089278093040300E010E052
S113078026C0F801E295F295F07FFE27E07FFE2770
S1130790E85FFC4FEC0FFD1F8081843079F4809179
S11307A00403882331F04FE06C2F802F0E943E0910
S11307B005C040E06C2F802F0E943E09219602C0A4
S11307C0C0E0D0E0C031D105E4F20F5F1F4F083024
S11307D01105B4F3DF91CF911F910F910895CF9339
S11307E0DF9320913601309137012530310594F59E
S11307F02F5F3F4F3093370120933601220F331F71
S1130800220F331FF901E85CFE4F90E0918380834F
S113081070E0738362832BC0A9014F5F5F4FDA01DD
S1130820AA0FBB1FAA0FBB1FA85CBE4FCD91DC91C2
S11308301197220F331F220F331FF901E85CFE4F7B
S1130840D183C08312962D913C91139733832283D5
S11308509A0102C020E030E025303105ECF2E8E3F3
S1130860F1E090E0958B848B70E0778B668BDF9161
S1130870CF9108950F931F93CF93DF93E0910401D9
S1130880F0910501E530F1050CF045C03196F09387
S11308900501E0930401EE0FFF1FEE0FFF1FEE0FA3
S11308A0FF1FEA5FFE4F90E09183808370E07383C3
S11308B0628350E055834483578346833FC0EF01EE
S11308C02196DE01AA0FBB1FAA0FBB1FAA0FBB1FD5
S11308D0AA5FBE4F0D911C911197EE0FFF1FEE0FF3
S11308E0FF1FEE0FFF1FEA5FFE4F11830083129676
S11308F00D911C9113971383028314960D911C91EF
S113090015971583048316960D90BC91A02DB7837B
S1130910A683FE0102C0E0E0F0E0E530F1057CF2E0
S1130920E6E0F1E090E091A780A770E073A762A7EA
S113093050E055A744A730E037A726A7DF91CF9111
S11309401F910F910895E0910401F0910501EE0FBC
S1130950FF1FEE0FFF1FEE0FFF1FEA5FFE4F8081A8
S1130960918162817381DC01A295B295B07FBA272F
S1130970A07FBA27A85FBC4FA60FB71F92E09C9335
S1130980248135814681578122953295307F3227E3
S1130990207F3227285F3C4FF901E40FF51F1082B6
S11309A00E94F502E0910401F0910501EE0FFF1F92
S11309B0EE0FFF1FEE0FFF1FEA5FFE4F668184817B
S11309C00E94F50208958091360190913701992390
S11309D00CF469C0FC01EE0FFF1FEE0FFF1FE85C73
S11309E0FE4F208131812F3F3F4F09F45EC0FC014F
S11309F0EE0FFF1FEE0FFF1FE85CFE4F22813381D5
S1130A002F3F3F4F09F453C09923E4F0609106034C
S1130A10809107030E94F50280913601909137017D
S1130A20FC01EE0FFF1FEE0FFF1FE85CFE4F20815D
S1130A3020930703228120930603019790933701A3
S1130A4080933601809104019091050199238CF1E2
S1130A50FC01EE0FFF1FEE0FFF1FEE0FFF1FEA5FFB
S1130A60FE4F208131812F3F3F4F29F1FC01EE0FD2
S1130A70FF1FEE0FFF1FEE0FFF1FEA5FFE4F2281E5
S1130A8033812F3F3F4FC9F09923CCF00E94A30438
S1130A908091040190910501019790930501809341
S1130AA0040181E0089580E0089580E0089580E0E5
S1130AB0089581E0089581E0089581E0089581E03A
S1130AC00895CF93DF93EC016CE672E00E94F91273
S1130AD0892B91F50E94D01263E070E00E94E2112C
S1130AE0EC01219661E070E084E190E00E944A11FB
S1130AF0C130D10549F487E091E09F938F930E9420
S1130B0092130F900F906FC0C230D10549F48EEF4D
S1130B1090E09F938F930E9492130F900F9063C065
S1130B20239709F060C083EE90E09F938F930E9417
S1130B3092130F900F9057C068E672E0CE010E94A6
S1130B40F912892B79F461E070E084E190E00E946D
S1130B504A1189EC90E09F938F930E9492130F9017
S1130B600F9041C061E772E0CE010E94F912892B17
S1130B7079F461E070E084E190E00E944A1186EB30
S1130B8090E09F938F930E9492130F900F902BC02D
S1130B9069E772E0CE010E94F912892B79F461E0D1
S1130BA070E084E190E00E944A1189E990E09F930B
S1130BB08F930E9492130F900F9015C067E872E014
S1130BC0CE010E94F912892B71F461E070E084E196
S1130BD090E00E944A118CE790E09F938F930E94CB
S1130BE092130F900F90DF91CF9108958295929573
S1130BF0907F9827807F9827885F9C4FFC01E60FA1
S1130C00F71F8081813031F489E792E00E94610509
S1130C1080E00895823031F487E892E00E94610513
S1130C2080E00895863031F487E892E00E946105FF
S1130C3080E0089581E0089540E050E017C0FA0193
S1130C40E295F295F07FFE27E07FFE27E85FFC4FF8
S1130C50E80FF91F20812430A1F0019602C080E042
S1130C6090E0803191055CF34F5F5F4F4830510550
S1130C70B4F360910603809107030E94F50281E0BA
S1130C80089580E008959B010E94E211820F931F52
S1130C90B9010E94E21108950F931F93CF93DF933C
S1130CA08C01CB01BA010E944A110E947011C1E06B
S1130CB0D0E043C0F801E295F295F07FFE27E07F93
S1130CC0FE27E85FFC4FEC0FFD1F8081811109C0F6
S1130CD084E992E09F938F930E947C130F900F906E
S1130CE02BC0813049F482EA92E09F938F930E9453
S1130CF07C130F900F9020C0823049F480EB92E077
S1130D009F938F930E947C130F900F9015C0843093
S1130D1049F48DEB92E09F938F930E947C130F9084
S1130D200F900AC0863041F48AEC92E09F938F932F
S1130D300E947C130F900F902196C031D1050CF4C2
S1130D40B9CFDF91CF911F910F910895AF92BF92C8
S1130D50CF92DF92EF92FF920F931F93CF93DF9383
S1130D60E62EB0900703C82E880FDD0868E070E017
S1130D70C6018B0D911D0E944306EC01A090060351
S1130D800E2C000CFF0860E170E0C7018A0D911D74
S1130D900E9443068C0168E070E0C6018C0F9D1F21
S1130DA00E9443066C0160E170E0C701800F911F4F
S1130DB00E9443067C016A2D8B2D0E94F50260E09F
S1130DC070E084E190E00E944A110E947011FE01DB
S1130DD0E295F295F07FFE27E07FFE27E85FFC4F67
S1130DE0E00FF11F8081813031F48CE692E00E94A3
S1130DF0610580E018C1863009F04CC0F601E29527
S1130E00F295F07FFE27E07FFE27E85FFC4FEE0DB2
S1130E10FF1D8081813031F488E692E00E946105F3
S1130E2080E001C1FE01E295F295F07FFE27E07FAC
S1130E30FE27E85FFC4FE00FF11F84E08083602F02
S1130E408C2F0E94F5026894AA24A3F8B12CB50152
S1130E506C1B7D0B41E050E0CE010E944C06F60174
S1130E60E295F295F07FFE27E07FFE27E85FFC4FD6
S1130E70EE0DFF1D82E080836E2D8C2D0E94F50205
S1130E80B5016C197D0941E050E0C6010E944C0691
S1130E9081E072C0823009F06EC0F601E295F295ED
S1130EA0F07FFE27E07FFE27E85FFC4FEE0DFF1D7D
S1130EB08081813031F488E692E00E94610580E00F
S1130EC0B2C0823031F481E792E00E94610580E093
S1130ED0AAC0FE01E295F295F07FFE27E07FFE278F
S1130EE0E85FFC4FE00FF11F1082F601E295F295E6
S1130EF0F07FFE27E07FFE27E85FFC4FEE0DFF1D2D
S1130F0080818430E1F4F601E295F295F07FFE27CA
S1130F10E07FFE27E85FFC4FEE0DFF1D86E0808337
S1130F206E2D8C2D0E94F50268E070E06C197D092D
S1130F3041E050E0C6010E944C0681E01DC0F6016C
S1130F40E295F295F07FFE27E07FFE27E85FFC4FF5
S1130F50EE0DFF1D82E080836E2D8C2D0E94F50224
S1130F6068E070E06C197D0941E050E0C6010E9420
S1130F704C0681E001C080E0882339F02E2D4C2DF1
S1130F80602F8C2F0E943A0406C02FEF4FEF6FEFB3
S1130F908FEF0E943A0460910603809107030E9438
S1130FA0EF038C2FC093070300930603602F0E9466
S1130FB0F5028091070390E068E070E0681B790B0C
S1130FC041E050E00E944C060E949D03809136014E
S1130FD090913701009721F480E28BB981E023C01E
S1130FE08130910521F480E38BB981E01CC082300B
S1130FF0910521F488E38BB981E015C08330910514
S113100021F489E38BB981E00EC08430910521F489
S113101089E38BB981E007C0059721F489E38BB993
S113102081E001C081E0DF91CF911F910F91FF908A
S1131030EF90DF90CF90BF90AF9008958F929F92E2
S1131040AF92BF92DF92EF92FF920F931F93CF93D1
S1131050DF93062FD42ED22FE82E880FFF0880911D
S1131060070368E070E09701280F311DC9010E9451
S113107043064C01002E000C110B8091060360E125
S113108070E09801280F311DC9010E9443065C01DC
S1131090BC01C4010E94F605882309F440C068E03D
S11310A070E0C4018D0D911DD7FC9A950E944306F2
S11310B0982EC92F60E170E0C5018D0F911DD7FDF9
S11310C09A950E944306B82E682F792F892D9C2F5C
S11310D00E94F605C82F882311F1609106038091C0
S11310E007030E94F50260910603809107030E94A2
S11310F0EF0390920703B09206036B2D892D0E9493
S1131100F5028091070390E068E070E0681B790BBA
S113111041E050E00E944C060E949D035AC0209179
S113112007038D2DDD0C990B68E070E0820F911D93
S11311300E9443065C01209106038D2FDD0F990B5D
S113114060E170E0820F911D0E9443064C01BC01D6
S1131150C5010E94F605C82F8823D9F168E070E024
S1131160C7018A0D9B1D0E944306D82FC92F60E139
S113117070E0C801880D991D0E944306182F682F3E
S1131180792F8D2F9C2F0E94F605C82F882309F1F3
S113119060910603809107030E94F50260910603A3
S11311A0809107030E94EF03D09307031093060373
S11311B0612F8D2F0E94F5028091070390E068E073
S11311C070E0681B790B41E050E00E944C060E94DD
S11311D09D038C2FDF91CF911F910F91FF90EF9082
S11311E0DF90BF90AF909F908F9008950F931F93BF
S11311F0CF93DF93C7E0D0E001E010E00DC041E001
S113120050E0B801CE010E944C068AE090E00E94B2
S1131210B8130F5F1F4F2197DD238CF7DF91CF9118
S11312201F910F910895CF93DF930E942003109292
S11312300503D0E00AC06C2F8D2F0E94F502CF5F0A
S113124001C0C0E0C031B8F3DF5FD830D0F30E94F2
S1131250F608DF91CF91089540E060E07BE480E000
S113126090E00E94010F80E480937C0086E88093E4
S11312707A00089580E80E94540F08951F93CF9335
S1131280DF936031B0F48830A0F4142FD62FC82F28
S113129081E00E94800F8C2F877020E1829FC00123
S11312A011246D2F6F70862B0E94800F812F0E9456
S11312B0800FDF91CF911F9108950F931F93CF93C8
S11312C08031A0F48B01C82F83E00E94800F8C2F03
S11312D08F700E94800FC0E007C0F801EC0FF11D71
S11312E080810E94800FCF5FC830B8F3CF911F91E7
S11312F00F91089584E00E94800F82E00E94800F85
S113130008958FE00E94800F08950E943A090E9478
S1131310E10140E060E07BE480E090E00E94010FA6
S11313200E948F110E94DA110E94DF110E94710243
S11313300E942C098AB189638AB9789408950E941D
S113134086110E945E110E94671165E083E00E948D
S1131350241165E070E08BE090E00E944A1186E77A
S113136091E09F938F930E9492130E946F100E94AA
S113137018020F900F900E94F3018F3F99F40E947E
S1131380480F882361F08091B1049091B2040E94C7
S113139002138337910531F08335910519F00E94CA
S11313A07910E9CF0895CF93DF93EC010E94861161
S11313B00E946711CE010E94130961E070E08AE087
S11313C090E00E944A1180919B031F928F9388EDB5
S11313D092E09F938F930E947C138AB180648AB9B0
S11313E080919A030E948E020E9418020E944F0F5D
S11313F0109299030F900F900F900F90DF91CF915F
S113140008956AE070E08EE090E00E944A118CE654
S113141091E09F938F930E9492136AE070E08FE0B3
S113142090E00E944A1181E491E09F938F930E947F
S113143092136AE070E080E190E00E944A1189E131
S113144091E09F938F930E94921380919903C8EC2B
S1131450D0E0C81BD1090F900F900F900F900F9000
S11314600F901C161D0614F0C0E0D0E020919C03E0
S113147080EB94E0821B91091816190614F4C80F26
S1131480D91F6AE070E082E190E00E944A11DF9384
S1131490CF9382EE92E09F938F930E947C130F90E0
S11314A00F900F900F90C0E0D0E00E94480F882367
S11314B039F08091B1049091B2040E94021302C0E9
S11314C08FEF9FEF0E94E8128235910541F48091DD
S11314D09B0390E00E94D3090E94C60A1CC0853475
S11314E0910569F481E080939B030E949F09809198
S11314F09B0390E00E94D3090E94C60A0CC08E345C
S1131500910549F482E080939B0382E090E00E947D
S1131510D3090E94C60A209791F490919903EDECA7
S11315209E9FE12D1124E695E695E695EE0F8E2F0C
S1131530880F880FE80F9E1BE92FF0E017C08091F9
S11315409903EDEC8E9F812D1124869586958695C1
S11315508E9FE12D1124E695E695E695EE0F9E2FDC
S1131560990F990FE90F8E1BE82FF0E0E05BFE4F17
S1131570808188B98C2F8295880F807E8BB981E019
S113158090E09C012C1B3D0BE9018FCFCF93DF939F
S1131590CDB7DEB76C970FB6F894DEBF0FBECDBFE4
S11315A0109299038FEF87B980E28AB90E94A5113E
S11315B06D8B7E8B8F8B988F0E94A5114B015C01E4
S11315C00E94A51110929C03ECE7F0E080818E7FCD
S11315D08083EAE7F0E080818064808380917A00F0
S11315E086FDFCCF2090780030907900ECE7F0E0A5
S11315F0808181608083EAE7F0E080818064808379
S113160080917A0086FDFCCF60907800709079001C
S113161001E0198E1A8E1B8E1C8E10E0B2C20E943D
S1131620F301D82E0E94480F882339F08091B10429
S11316309091B2040E94021302C08FEF9FEF0E94A8
S1131640E0127C018A37910549F40E94E30488235F
S113165029F08091990381508093990381E7E816DA
S1131660F10431F490919A0381E0892780939A03DD
S113167090E7E916F10409F046C00E94480F882358
S113168059F08091B1049091B2040E9402130E9417
S1131690E01280379105B9F1111111C090919903AD
S11316A0EDEC9E9FE12D1124E695E695E695EE0F6F
S11316B08E2F880F880FE80F9E1BE92F16C080918C
S11316C09903EDEC8E9F812D112486958695869540
S11316D08E9FE12D1124E695E695E695EE0F9E2F5B
S11316E0990F990FE90F8E1BE82FF0E0E05BFE4F96
S11316F0808188B9812F8295880F807E8BB981E0A3
S1131700811B182FBACFECE7F0E080818E7F8083B5
S1131710EAE7F0E080818064808380917A0086FD2E
S1131720FCCF2091780030917900ECE7F0E08081E3
S113173081608083EAE7F0E0808180648083809127
S11317407A0086FDFCCF8091780090917900A10108
S1131750485C51092417350750F5B30168537F4F8E
S11317606817790720F5002311F120E041E06FEFBD
S113177080E00E941E08882399F0809199038E5F6F
S1131780809399038AB180648AB980919A030E94F4
S11317907A020E94A511698F7A8F8B8F9C8F00E04B
S11317A00E94A5116D8B7E8B8F8B988F44C124175B
S11317B0350750F5A301485C51098417950720F5B6
S11317C0002311F120E04FEF6FEF80E00E941E082C
S11317D0882399F0809199038E5F809399038AB14D
S11317E080648AB980919A030E947A020E94A511AA
S11317F0698F7A8F8B8F9C8F00E00E94A5116D8B6F
S11318007E8B8F8B988F17C1A10148535F4F42176E
S1131810530750F5B301685C71098617970720F5E3
S1131820002311F120E04FEF61E080E00E941E08E8
S1131830882399F0809199038E5F809399038AB1EC
S113184080648AB980919A030E947A020E94A51149
S1131850698F7A8F8B8F9C8F00E00E94A5116D8B0E
S11318607E8B8F8B988FE7C04217530750F5A301E7
S113187048535F4F4817590720F5002311F120E022
S113188041E061E080E00E941E08882399F0809185
S113189099038E5F809399038AB180648AB9809199
S11318A09A030E947A020E94A511698F7A8F8B8F06
S11318B09C8F00E00E94A5116D8B7E8B8F8B988F7F
S11318C0BAC0DD2051F044E6E416F10431F0A10180
S11318D040575E4F4217530710F5002301F161E0B2
S11318E080E00E94A606882399F0809199038F5F77
S11318F0809399038AB180648AB980919A030E9483
S11319007A020E94A511698F7A8F8B8F9C8F00E0D9
S11319100E94A5116D8B7E8B8F8B988F8CC041E0BC
S1131920D41651F043E7E416F10431F0A301405911
S113193051408417950710F5002301F160E08FEF03
S11319400E94A606882399F0809199038F5F809363
S113195099038AB180648AB980919A030E947A02B9
S11319600E94A511698F7A8F8B8F9C8F00E00E9453
S1131970A5116D8B7E8B8F8B988F5DC042E0D41642
S113198051F047E7E416F10431F0A30140575E4FEC
S11319904817590710F5002301F160E081E00E9427
S11319A0A606882399F0809199038F5F8093990309
S11319B08AB180648AB980919A030E947A020E9453
S11319C0A511698F7A8F8B8F9C8F00E00E94A511DF
S11319D06D8B7E8B8F8B988F2EC083E0D81651F041
S11319E091E6E916F10431F0C101805991402817BC
S11319F0390708F50023F9F06FEF80E00E94A6068E
S1131A00882399F0809199038F5F809399038AB119
S1131A1080648AB980919A030E947A020E94A51177
S1131A20698F7A8F8B8F9C8F00E00E94A5116D8B3C
S1131A307E8B8F8B988F0E94A5116B017C018D8901
S1131A409E89AF89B88D88539F4FAF4FBF4FC8163B
S1131A50D906EA06FB0630F00E949D03CD8ADE8A91
S1131A60EF8AF88ED501C4018C509E4FAF4FBF4F03
S1131A70C816D906EA06FB0620F00E94B403460104
S1131A805701898D9A8DAB8DBC8D88539F4FAF4F75
S1131A90BF4FC816D906EA06FB0608F001E011118B
S1131AA011C090919903EDEC9E9FE12D1124E695D0
S1131AB0E695E695EE0F8E2F880F880FE80F9E1B94
S1131AC0E92F16C080919903EDEC8E9F812D11248E
S1131AD08695869586958E9FE12D1124E695E6954B
S1131AE0E695EE0F9E2F990F990FE90F8E1BE82FA5
S1131AF0F0E0E05BFE4F808188B9812F8295880FEA
S1131B00807E8BB981E0811B182F0E94A51128EEDD
S1131B1033E040E050E00E94F611672B682B692BFC
S1131B2069F561E070E086E190E00E944A118091DD
S1131B309C031F928F9389EE92E09F938F93CE0123
S1131B4001967C019F938F930E94BF13FF92EF92A3
S1131B508CEE92E09F938F930E947C1380919C0360
S1131B608F5F80939C038FE19EE40197F1F700C09F
S1131B7000000FB6F894DEBF0FBECDBF8AB18D7BD7
S1131B808AB90E941C06882309F449CD8AB180646D
S1131B908AB980919A030E94B4028AB18D7B8AB972
S1131BA00E94010A0E94A511CB010E94D5120E9435
S1131BB085090E949F0981E080939B0380939A0387
S1131BC081E090E00E94D3090E94C60ACF93C82FF7
S1131BD08A3019F48DE00E94E60D9FB7907802C018
S1131BE0992329F180919E038F3FD1F3F894E091DA
S1131BF09D0381E08E0F80939D03F0E0E156FC4F3E
S1131C00C08380919E038F5F80939E0380919D0388
S1131C108F3F11F410929D03E1ECF0E0808180622B
S1131C208083992339F0789480E090E005C081E0C6
S1131C3090E002C080E090E0CF9108958091B004DC
S1131C408823E1F32FB72078F89480919E04309193
S1131C50B00490E0831B91095AF4E0919E048091B2
S1131C60B004F0E0E81BF109E155FB4F80810AC0A4
S1131C70E0919E048091B004F0E0E81BF109E15684
S1131C80FB4F80819091B00491509093B004222333
S1131C9009F07894909189039B31B1F49091880371
S1131CA09B3591F4823449F018F4813461F00CC00E
S1131CB0833429F0843429F007C083E705C084E61F
S1131CC003C081E601C087E790918803909389035C
S1131CD08093880390E008951F920F920FB60F929D
S1131CE011242F938F939F93EF93FF9380919E03DF
S1131CF0882329F180919D0320919E0390E0821B0B
S1131D0091095AF4E0919D0380919E03F0E0E81B51
S1131D10F109E256FB4F90810AC0E0919D03809146
S1131D209E03F0E0E81BF109E156FC4F908180919D
S1131D309E03815080939E039093C60005C0E1ECFE
S1131D40F0E080818F7D8083FF91EF919F918F914F
S1131D502F910F900FBE0F901F9018951F920F9206
S1131D600FB60F9211242F933F934F935F936F936A
S1131D707F938F939F93AF93BF93CF93EF93FF93EF
S1131D80C091C60080918A03882349F080919E0304
S1131D908F3F29F060E070E08C2F0E94E60D809167
S1131DA0B004803120F081E08093AF0418C0CD30BE
S1131DB009F4CAE0E0919E0481E08E0F80939E04B2
S1131DC0F0E0E156FB4FC0838091B0048F5F8093B5
S1131DD0B00480919E04803111F410929E04FF910E
S1131DE0EF91CF91BF91AF919F918F917F916F911F
S1131DF05F914F913F912F910F900FBE0F901F90C5
S1131E00189510929D0310929E0310929E041092B6
S1131E10B0041092AF0440938A03DC01CB01880F15
S1131E20991FAA1FBB1F880F991FAA1FBB1F9C01C4
S1131E30AD01220F331F441F551F60E072E18AE792
S1131E4090E00E941812BA01A9014F5F5F4F6F4FD3
S1131E507F4FDB01CA011AF40196A11DB11DB5958E
S1131E60A7959795879501979093C5008093C40093
S1131E70E1ECF0E088E18083808180688083E1EB9D
S1131E80F4E08AE591E093838283918380830895CB
S1131E909091B00481E0911101C080E00895109206
S1131EA09E041092B004089594B1906B94B995B1C6
S1131EB0906195B990E59CBD883021F0803211F095
S1131EC0823019F491E09DBD01C01DBC803269F0DF
S1131ED028F4883071F0803161F00EC0803429F02C
S1131EE0803851F48CB581608CBD8CB582608CBD1A
S1131EF003C08CB581608CBD85B18F7E85B9089592
S1131F008EBD0DB407FEFDCF8EB508951F93CF93FC
S1131F10DF93CDB7DEB728970FB6F894DEBF0FBEB8
S1131F20CDBF10E017C0612F70E0660F771F660FFA
S1131F30771F660F771F60537E4F48E050E0CE0155
S1131F4001960E94F012BE016F5F7F4F812F0E94A5
S1131F505D091F5F103138F328960FB6F894DEBF81
S1131F600FBECDBFDF91CF911F910895CF93DF9323
S1131F70CDB7DEB728970FB6F894DEBF0FBECDBF3E
S1131F800E947A0960918B0370E0660F771F660FD9
S1131F90771F660F771F60537E4F48E050E0CE01F5
S1131FA001960E94F012BE016F5F7F4F8FE00E9486
S1131FB05D0940918B0350E04F5F5F4F9A01369566
S1131FC02795ABE7B4E10E9437129695879562E3B3
S1131FD0689F9001699F300D1124CA01821B930BE5
S1131FE080938B03803129F48091940381608093E2
S1131FF0940328960FB6F894DEBF0FBECDBFDF91D1
S1132000CF910895EF92FF920F931F93CF93DF9395
S1132010CDB7DEB728970FB6F894DEBF0FBECDBF9D
S1132020F62EE42E682F70E0660F771F660F771F79
S1132030660F771F68557E4F48E050E0CE01019649
S11320400E94F0120FE310E00F19110929813A815F
S11320504B815C816D817E818F8198850E944812BD
S1132060217030E040E050E060E070E080E090E01B
S1132070A0E00E946412C1F0E1101BC010E00FC088
S1132080812F90E0FC01EA50FD4F20812F1530F0A4
S1132090FC01E151FD4F80810E9479111F5F1730CF
S11320A078F3EE24E39405C0EE2019F00E945E114B
S11320B0E12C6091B3047091B40480E290E00E943A
S11320C040138E2D28960FB6F894DEBF0FBECDBFF9
S11320D0DF91CF911F910F91FF90EF9008950E948F
S11320E081090E94860F80919403816080939403F8
S11320F00895CF92DF92EF92FF920E94A5116B0197
S11321007C018091940380FF16C0C0929003D0920A
S11321109103E0929203F0929303C0928C03D092C5
S11321208D03E0928E03F0928F0390E190938B03E2
S1132130887F8093940380918B03803109F064C07D
S11321408091900390919103A0919203B091930395
S1132150AC01BD014053584F6F4F7F4F4C155D0587
S11321606E057F0558F40E94B60FC0928C03D0927E
S11321708D03E0928E03F0928F0361C0209194034B
S1132180322F327021FD19C088519C4FAF4FBF4F81
S11321908C159D05AE05BF0580F40E94860F8091C5
S11321A09403826080939403C0928C03D0928D0335
S11321B0E0928E03F0928F0342C0311140C08091AF
S11321C08C0390918D03A0918E03B0918F038C5951
S11321D09F4FAF4FBF4F8C159D05AE05BF0578F5DA
S11321E084E028272093940322FF03C00E948109DE
S11321F002C00E94860FC0928C03D0928D03E0929D
S11322008E03F0928F031BC080918C0390918D03F9
S1132210A0918E03B0918F0388539F4FAF4FBF4F50
S11322208C159D05AE05BF0550F40E94B60FC092F3
S11322308C03D0928D03E0928E03F0928F03FF9073
S1132240EF90DF90CF900895FF920F931F93CF9359
S1132250DF93F82E062F10E0D0E014C0602F70E05A
S11322608F2D90E0810F911D0E944A11C0E007C09C
S11322704D2F6C2F812F0E940210D82FCF5FC034B6
S1132280B8F31F5F153050F3DF91CF911F910F9179
S1132290FF9008956F5F7F4F7F936F9301969F9395
S11322A08F938BE793E09F938F930E9492130F90E9
S11322B00F900F900F900F900F90089586E793E082
S11322C09F938F930E9492130F900F90089581E72C
S11322D093E09F938F930E9492130F900F90089511
S11322E08DE693E09F938F930E9492130F900F902B
S11322F008951F928F9387E693E09F938F930E9494
S113230092130F900F900F900F90089580E693E032
S11323109F938F930E9492130F900F9008951092A1
S1132320950310929603109297031092980316BC8B
S11323308CE787BD92E094BD83E085BDEEE6F0E0D6
S113234080818260808395BB08958FB7282F207881
S1132350F8946091950370919603809197039091FE
S11323609803222309F0789408951F920F920FB6D0
S11323700F9211248F939F93AF93BF9380919503F2
S113238090919603A0919703B09198030196A11D93
S1132390B11D8093950390939603A0939703B093F4
S11323A09803BF91AF919F918F910F900FBE0F90A3
S11323B01F90189510928500109284000895109231
S11323C0B200089597FB072E16F4009407D077FD0A
S11323D009D00E94701207FC05D03EF490958195B7
S11323E09F4F0895709561957F4F0895A1E21A2E2D
S11323F0AA1BBB1BFD010DC0AA1FBB1FEE1FFF1FA5
S1132400A217B307E407F50720F0A21BB30BE40BF4
S1132410F50B661F771F881F991F1A9469F760953B
S11324207095809590959B01AC01BD01CF010895F5
S1132430052E97FB1EF400940E942F1257FD07D01F
S11324400E94F61107FC03D04EF40C942F12509501
S11324504095309521953F4F4F4F5F4F089590958C
S11324608095709561957F4F8F4F9F4F0895A29FE0
S1132470B001B39FC001A39F700D811D1124911D54
S1132480B29F700D811D1124911D089597FB10F8C2
S1132490169400080F93083098F00850232F342F17
S11324A0452F562F672F782F892F902DF4CF059421
S11324B09795879577956795579547953795279578
S11324C00A95AAF70F9108950024A7FD00942A17EE
S11324D03005400550056005700580059005089598
S11324E0AA1BBB1B51E107C0AA1FBB1FA617B70736
S11324F010F0A61BB70B881F991F5A95A9F7809552
S11325009095BC01CD0108958F929F92AF92BF9296
S1132510CF92DF92EF92FF92CF93DF93EC01688129
S113252079818A819B81611571058105910521F469
S113253064E279ED8BE597E02DE133EF41E050E083
S11325400E94181249015A019B01AC01A7EAB1E4A7
S11325500E9436166B017C01ACEEB4EFA501940128
S11325600E944416DC01CB018C0D9D1DAE1DBF1DC8
S1132570B7FF03C00197A109B04888839983AA8350
S1132580BB839F77DF91CF91FF90EF90DF90CF9047
S1132590BF90AF909F908F9008950E9484120895E9
S11325A080E091E00E9484120895A0E0B0E080935E
S11325B0000190930101A0930201B09303010895D7
S11325C09111089581548A5108F4805E855A0895C2
S11325D09111089581568A5108F4805285580895BE
S11325E0FB01DC0102C005900D9241505040D8F728
S11325F00895FB01DC018D91019080190110D9F33C
S1132600990B0895CF93DF93EC012B8120FF33C006
S113261026FF0AC02F7B2B838E819F8101969F8387
S11326208E838A8190E029C022FF0FC0E881F9815E
S11326308081082E000C990B009719F420622B83DB
S11326401AC03196F983E8830EC0EA85FB850995A3
S113265097FF09C02B81019611F080E201C080E14F
S1132660822B8B8308C02E813F812F5F3F4F3F8396
S11326702E83992702C08FEF9FEFDF91CF910895AA
S11326800F931F93CF93DF93FB01238121FD03C09D
S11326908FEF9FEF2CC022FF16C046815781248103
S11326A035814217530744F4A081B1819D012F5F06
S11326B03F4F318320838C93268137812F5F3F4F97
S11326C03783268314C08B01EC01FB010084F18560
S11326D0E02D0995892BE1F6D80116968D919C91F0
S11326E01797019617969C938E931697CE01DF91B8
S11326F0CF911F910F910895A0E0B0E0E2E8F3E1DB
S11327000C945916AE014B5F5F4FFA0161917191C0
S1132710AF018091B3049091B4040E94E113E2E00C
S11327200C947516A0E0B0E0E8E9F3E10C945716B8
S1132730AE01495F5F4FDA016D917D91AD0101EB0F
S113274014E0F80182819381DC0113962C91139794
S1132750286013962C930E94E113D8011296ED91F0
S1132760FC9113972381277F2383E4E00C94731651
S11327706091B3047091B4040E9440130895AEE0D4
S1132780B0E0E5ECF3E10C9457160D891E8986E060
S11327908C831A8309838FEF9FE79E838D83AE0119
S11327A0475E5F4F6F89788DCE0101960E94E113D9
S11327B0EF81F885E00FF11F10822E96E4E00C946F
S11327C07316ABE0B0E0E7EEF3E10C9449166C014C
S11327D07B018A01FC0117821682838181FFCCC1AF
S11327E0CE0101963C01F6019381F70193FD859199
S11327F093FF81917F01882309F4BAC1853239F4AA
S113280093FD859193FF81917F01853229F4B6016F
S113281090E00E944013E7CF912C212C312CFFE152
S1132820F315D8F08B3279F038F4803279F08332B2
S1132830A1F4232D20611DC08D3261F0803369F431
S1132840232D216016C0832D8260382EE32DE46091
S11328503E2E2AC0F32DF8601DC037FC2DC020ED9C
S1132860280F2A3040F08E32B9F436FC81C1232D72
S11328702064322E19C036FE06C08AE0989E200DD0
S11328801124922E11C0EAE02E9E200D1124222E36
S1132890F32DF0623F2E08C08C3621F4832D80681E
S11328A0382E02C0883641F4F70193FD859193FFD9
S11328B081917F018111B3CF982F9F7D95549330DF
S11328C028F40C5F1F4F9FE399830DC0833631F0CA
S11328D0833771F0833509F059C021C0F801808134
S11328E089830E5F1F4F88248394912C530113C056
S11328F02801F2E04F0E511CF801A080B18036FE91
S113290003C0692D70E002C06FEF7FEFC5010E9424
S1132910CD154C018201F32DFF773F2E16C02801FF
S113292022E0420E511CF801A080B18036FE03C0A3
S1132930692D70E002C06FEF7FEFC5010E94C215E0
S11329404C01F32DF0683F2E820133FC1BC0822D15
S113295090E088169906B0F4B60180E290E00E94F7
S113296040132A94F4CFF50137FC859137FE819109
S11329705F01B60190E00E94401321102A9421E0E7
S1132980821A91088114910471F7E8C0843611F019
S1132990893641F5F80137FE07C060817181828173
S11329A093810C5F1F4F08C060817181072E000C5A
S11329B0880B990B0E5F1F4FF32DFF763F2E97FF69
S11329C009C090958095709561957F4F8F4F9F4F6B
S11329D0F0683F2E2AE030E0A3010E94D815882E2B
S11329E0861845C0853731F4232D2F7EB22E2AE078
S11329F030E025C0932D997FB92E8F36C1F018F49D
S1132A00883579F0B5C0803719F0883721F0B0C027
S1132A10E92FE061BE2EB4FE0DC0FB2DF460BF2E85
S1132A2009C034FE0AC0292F2660B22E06C028E051
S1132A3030E005C020E130E002C020E132E0F801DE
S1132A40B7FE07C060817181828193810C5F1F4F43
S1132A5006C06081718180E090E00E5F1F4FA3018A
S1132A600E94D815882E8618FB2DFF773F2E36FE40
S1132A700DC0232D2E7FA22E891458F434FE0BC0D2
S1132A8032FC09C0832D8E7EA82E05C0B82CA32C41
S1132A9003C0B82C01C0B92CA4FE0FC0FE01E80D80
S1132AA0F11D8081803321F49A2D997EA92E09C0CD
S1132AB0A2FE06C0B394B39404C08A2D867809F0AC
S1132AC0B394A3FC11C0A0FE06C0B21488F4280C71
S1132AD0922C9B180EC0B21460F4B60180E290E010
S1132AE00E944013B394F7CFB21418F42B1802C009
S1132AF0982C212CA4FE10C0B60180E390E00E9423
S1132B004013A2FE17C0A1FC03C088E790E002C0F6
S1132B1088E590E0B6010CC08A2D867859F0A1FEB4
S1132B2002C08BE201C080E2A7FC8DE2B60190E016
S1132B300E944013891438F4B60180E390E00E94A7
S1132B4040139A94F7CF8A94F301E80DF11D808124
S1132B50B60190E00E9440138110F5CF222009F4C1
S1132B6042CEB60180E290E00E9440132A94F6CF50
S1132B70F6018681978102C08FEF9FEF2B96E2E1E9
S1132B800C946516FC010590615070400110D8F753
S1132B90809590958E0F9F1F0895FC0161507040A1
S1132BA001900110D8F7809590958E0F9F1F08957E
S1132BB0FA01AA27283051F1203181F1E8946F936A
S1132BC06E7F6E5F7F4F8F4F9F4FAF4FB1E03ED010
S1132BD0B4E03CD0670F781F891F9A1FA11D680FAE
S1132BE0791F8A1F911DA11D6A0F711D811D911DE1
S1132BF0A11D20D009F468943F912AE0269F112456
S1132C003019305D3193DEF6CF010895462F4770B9
S1132C10405D4193B3E00FD0C9F7F6CF462F4F7014
S1132C20405D4A3318F0495D31FD4052419302D072
S1132C30A9F7EACFB4E0A695979587957795679518
S1132C40BA95C9F700976105710508959B01AC0118
S1132C500A2E06945795479537952795BA95C9F73F
S1132C60620F731F841F951FA01D08950E943712C1
S1132C70A59F900DB49F900DA49F800D911D1124CC
S1132C800895B7FF0C9436160E943616821B930BD8
S1132C9008952F923F924F925F926F927F928F92FC
S1132CA09F92AF92BF92CF92DF92EF92FF920F93D7
S1132CB01F93CF93DF93CDB7DEB7CA1BDB0B0FB6E1
S1132CC0F894DEBF0FBECDBF09942A88398848889E
S1132CD05F846E847D848C849B84AA84B984C88434
S1132CE0DF80EE80FD800C811B81AA81B981CE0F2B
S1132CF0D11D0FB6F894DEBF0FBECDBFED01089510
S1072D00F894FFCF71
S1132D0401000000FFFFFFFFFFFFFFFFFFFFFFFFC6
S1132D14FFFFFFFFFFFFFFFFFFFFFFFFFFFFFFFFBB
S1132D24FFFFFFFFFFFFFFFFFFFFFFFFFFFFFFFFAB
S1132D34FFFFFFFFFFFFFFFFFFFFFFFFFFFFFFFF9B
S1132D44FFFFFFFFFFFFFFFFFFFFFFFFFFFFFFFF8B
S1132D543F065B4F666D7D077F6F00000003000034
S1132D640000E60D1E0E0000000100010101000137
S1132D74010100000101010100010401000001043A
S1132D840002000000000401000000000000000034
S1132D940000000000000000010002000000000127
S1132DA40000020000020001010000000100020012
S1132DB40000000000000000000000000000040007
S1132DC400000000000000000000000101010101F6
S1132DD401040000000000010101000000000000E3
S1132DE401010000010101010000010101010000D1
S1132DF401010000000000010000010000010001C5
S1132E0401000000000200000000010002010101B1
S1132E14000004010004010100000100000000049A
S1132E240000020101010000010101010001000090
S1132E34000000010001010001040200000000027E
S1132E440000000101000101010000000400000071
S1132E54000000020400000001010101010101015C
S1132E640101010101010101626F785F77616C6CFA
S1132E7400626F785F626F780077616C6C5F64697D
S1132E8461676F6E616C00626F785F646961676F1C
S1132E946E616C001B5B3130306D2020201B5B3075
S1132EA46D001B5B3130336D2020201B5B306D00C3
S1132EB41B5B34336D2020201B5B306D001B5B34A3
S1132EC4316D2020201B5B306D001B5B3130326D73
S1132ED42020201B5B306D004C6576656C3A202500
S1132EE4640053636F72653A202564002573002ED1
S1112EF42F292B2C2A2D3A302820170F0600E8
S9030000FC
