S015000041565241737369676E6D656E742E737265630D
S11300000C94A5010C94C2010C94C2010C94C2017D
S11300100C94C2010C9405020C94C2010C94C2010C
S11300200C94C2010C94C2010C94C2010C94C20140
S11300300C94C2010C94C2010C94C2010C94C20130
S11300400C94AE0D0C94C2010C94C2010C94C20128
S11300500C94A70A0C94650A0C94C2010C94C20176
S11300600C94C2010C94C2010C94C2010C94C20100
S11300700C94C2010C94C2010C94C20143616E6ED3
S11300806F7420737461636B20626F7865730043CF
S1130090616E6E6F74207075736820626F78206F64
S11300A06E746F2077616C6C0054686572652069AA
S11300B07320612077616C6C20696E207468652000
S11300C07761790057616C6C2068697400506C61C9
S11300D07965722068697420612077616C6C006FA7
S11300E07220707265737320276E272F274E272086
S11300F0746F2070726F677265737320746F206CF5
S11301006576656C20320050726573732027722700
S11301102F27522720746F20726573746172742CB8
S1130120202765272F27452720746F206578697459
S11301302C0047414D45204F5645520043535345EB
S1130140323031302F373230312050726F6A65636C
S1130150742062792052696C6579205374657761E3
S11301607274202D203438383238363632006038F4
S11301701F3F3F637EFE60BCB1B16166C3C060B621
S11301803FBF617CC3FE60B3B1B16166C306E0B139
S1130190313F3F637EFEF0F000F0F0F0F000F0003D
S11301A000F00000F000F00000F00000F000F0F0BB
S11301B0F0F000F0F0000000000000000000F0F09B
S11301C0F0F0F0000000F0000000F0000000F0008B
S11301D00000F0000000F0F0F0F0F000000000007B
S11301E0000000000000F0F0F0F0F0F0F00000007B
S11301F000F0000000000000F000F0000000F0F04B
S1130200000000F000000000000000000000F0F01A
S1130210F0F0F0000000F0000000F0000000F0003A
S11302200000F0000000F0F0F0F0F000000000002A
S1130230000000000000F0F0F0F0F0F0F000F0003A
S113024000F000000000F00000F000000000F0F0FA
S1130250F0F0000000000000000000000000F0F0DA
S1130260F000F0000000F000F000F0000000F000EA
S1130270F000F0000000F0F0F0F0F00000000000EA
S1130280000000000000F0F0F0F0F00000000000BA
S11302900000F000000000000000F0000000F0F09A
S11302A0F0F0F0000000000000000000000000007A
S11302B00000000000003C3C3C3C3C3C00003C3C5A
S11302C000003C3C00003C003C3C003C00003C0086
S11302D03C3C003C00003C3C00003C3C00003C3CFE
S11302E03C3C3C3C000000000010001000001000EA
S11302F0001000100000001000001000101000009A
S11303001010001010100010000000001010100059
S113031000000000000000000000000000000000D9
S11303200000000000001B5B3F32356C001B5B25A6
S1130330646D001B5B4B001B5B324A001B5B306D22
S1130340001B5B25643B2564480011241FBECFEFCE
S1130350D8E0DEBFCDBF12E0A0E0B1E0E6EFF4E20A
S113036002C005900D92A639B107D9F724E0A6E999
S1130370B2E001C01D92AF34B207E1F70E94CB098D
S11303800C9479120C9400001092960210929B0225
S1130390E8E6F0E08081826080838BB382608BBB6F
S11303A0ECE6F0E080818F6080830895809196026E
S11303B08823F9F0809197025FB75078F89491E020
S11303C00BC0292F30E0F901E956FD4F4081F901B6
S11303D0EA56FD4F40839F5F20919602921788F35F
S11303E090919602915090939602552319F0789427
S11303F008958FEF08958FB7F89410929602109293
S11304009B0288230CF4789408951F920F920FB6E0
S11304100F9211242F933F934F938F939F93EF93B6
S1130420FF9343B14F7080E024C0909196029430C2
S1130430F8F4242F30E0082E02C0359527950A944D
S1130440E2F720FF15C020919B0230E0082E02C085
S1130450359527950A94E2F720FD0AC0E0919602AB
S113046091E09E0F90939602F0E0E956FD4F808351
S11304708F5F8430D0F240939B02FF91EF919F9164
S11304808F914F913F912F910F900FBE0F901F901E
S113049018959C0140E050E060E472E48FE090E045
S11304A00E94EF0DC90108951092B30083EA80936E
S11304B0B0008AE08093B1000895882389F080ED2C
S11304C097E00E944902E3EBF0E080832FEF83EF93
S11304D091E0215080409040E1F700C0000010827C
S11304E00895CF93DF938823F9F080ED97E00E947D
S11304F04902C3EBD0E088832FEF82E597E02150D7
S113050080409040E1F700C0000080E991E00E9443
S1130510490288832FEF82E597E021508040904084
S1130520E1F700C000001882DF91CF9108951F9376
S1130530CF93DF938823C1F180ED97E00E944902B5
S1130540182FC3EBD0E088832FEF82E597E021508A
S113055080409040E1F700C0000088E893E10E94E9
S1130560490288832FEF82E597E021508040904034
S1130570E1F700C0000018832FEF82E597E02150D7
S113058080409040E1F700C0000084EC99E00E94B4
S1130590490288832FEF82E597E021508040904004
S11305A0E1F700C000001882DF91CF911F910895F8
S11305B090E1899FF0011124E056FD4FE60FF11DF3
S11305C090819770923099F028F4992341F09130FA
S11305D051F00895943079F0963089F0089540E010
S11305E00E943E0608954FEF0E943E0608954CE394
S11305F00E943E0608954FE00E943E06089540EF93
S11306000E943E060895CF93DF93CDB7DEB7DA9507
S11306100FB6F894DEBF0FBECDBF8130910519F03F
S11306200297E1F035C080E8ECE1F1E0DE01AF577C
S1130630BF4F01900D928A95E1F780E8FE01EF57D4
S1130640FF4FDE01119601900D928A95E1F785E046
S113065080939F0282E080939E021AC080E8ECE9B6
S1130660F1E0DE01AF57BF4F01900D928A95E1F79B
S113067080E8FE01EF57FF4FDE01119601900D92C5
S11306808A95E1F786E080939F028FE080939E0233
S1130690A0E02BC08A2F90E027E030E0281B390B24
S11306A0462F50E0FC01E295F295F07FFE27E07FB3
S11306B0FE2781E090E08C0F9D1FE80FF91FE40FE7
S11306C0F51F7081C90182959295907F9827807F4C
S11306D0982780569D4FFC01E40FF51F70836F5FD0
S11306E001C060E06031B0F2AF5FA830D0F3D395C1
S11306F00FB6F894DEBF0FBECDBFDF91CF91089542
S113070090919D0281E0892780939D02882341F086
S113071040E160919E0280919F020E943E060895EE
S113072060919E0280919F020E94D80208950F93C7
S11307301F93CF93DF9390919C0281E0892780934C
S11307409C0200E010E026C0F801E295F295F07FEB
S1130750FE27E07FFE27E056FD4FEC0FFD1F808152
S1130760843079F480919C02882331F04FE06C2F1F
S1130770802F0E943E0605C040E06C2F802F0E940F
S11307803E06219602C0C0E0D0E0C031D105E4F2BB
S11307900F5F1F4F08301105B4F3DF91CF911F9104
S11307A00F910895CF93DF93EC0160E272E00E9411
S11307B0F20E892B89F50E94C90E63E070E00E9455
S11307C0DB0DEC01219661E070E084E190E00E9491
S11307D0430DC130D10549F48DEC90E09F938F9384
S11307E00E948B0F0F900F9042C0C230D10549F484
S11307F084EC90E09F938F930E948B0F0F900F9047
S113080036C02397A1F589EA90E09F938F930E94C5
S11308108B0F0F900F902BC06CE172E0CE010E9401
S1130820F20E892B79F461E070E084E190E00E949B
S1130830430D8FE890E09F938F930E948B0F0F904E
S11308400F9015C065E272E0CE010E94F20E892B72
S113085071F461E070E084E190E00E94430D8CE764
S113086090E09F938F930E948B0F0F900F90DF91D6
S1130870CF91089540E050E017C0FA01E295F29557
S1130880F07FFE27E07FFE27E056FD4FE80FF91FBB
S113089020812430A1F0019602C080E090E08031F4
S11308A091055CF34F5F5F4F48305105B4F360919D
S11308B09E0280919F020E94D80281E0089580E008
S11308C008959B010E94DB0D820F931FB9010E94C2
S11308D0DB0D08950F931F93CF93DF938C01CB010E
S11308E0BA010E94430D0E94690DC1E0D0E043C0EB
S11308F0F801E295F295F07FFE27E07FFE27E056AF
S1130900FD4FEC0FFD1F8081811109C08DE292E043
S11309109F938F930E94750F0F900F902BC081307F
S113092049F48BE392E09F938F930E94750F0F908D
S11309300F9020C0823049F489E492E09F938F9312
S11309400E94750F0F900F9015C0843049F486E50E
S113095092E09F938F930E94750F0F900F900AC09F
S1130960863041F483E692E09F938F930E94750F43
S11309700F900F902196C031D1050CF4B9CFDF91BF
S1130980CF911F910F910895AF92BF92CF92DF92B2
S1130990EF92FF920F931F93CF93DF93C62EB090E5
S11309A09F02E82E880FFF0868E070E0C7018B0DF6
S11309B0911D0E946104EC01A0909E020C2C000C7D
S11309C0DD0860E170E0C6018A0D911D0E9461049A
S11309D08C0168E070E0C7018C0F9D1F0E946104C8
S11309E07C0160E170E0C601800F911F0E946104E8
S11309F06C016A2D8B2D0E94D80260E070E084E1C6
S1130A0090E00E94430D0E94690DFE01E295F2956B
S1130A10F07FFE27E07FFE27E056FD4FE00FF11F39
S1130A208081813031F480E292E00E94D20380E040
S1130A30D2C0863009F04BC0F701E295F295F07F01
S1130A40FE27E07FFE27E056FD4FEC0DFD1D808163
S1130A50813031F48CE192E00E94D20380E0BBC08B
S1130A60FE01E295F295F07FFE27E07FFE27E05637
S1130A70FD4FE00FF11F84E08083602F8C2F0E94D4
S1130A80D8026894AA24A3F8B12CB5016C1B7D0B81
S1130A9041E050E0CE010E946A04F701E295F2952C
S1130AA0F07FFE27E07FFE27E056FD4FEC0DFD1D95
S1130AB082E080836C2D8E2D0E94D802B5016E19C0
S1130AC07F0941E050E0C7010E946A046EC0823091
S1130AD009F06BC0F701E295F295F07FFE27E07F05
S1130AE0FE27E056FD4FEC0DFD1D8081813031F471
S1130AF08CE192E00E94D20380E06DC0823031F438
S1130B0085E292E00E94D20380E065C0FE01E29596
S1130B10F295F07FFE27E07FFE27E056FD4FE00FC1
S1130B20F11F1082F701E295F295F07FFE27E07F36
S1130B30FE27E056FD4FEC0DFD1D80818430D9F475
S1130B40F701E295F295F07FFE27E07FFE27E0565D
S1130B50FD4FEC0DFD1D86E080836C2D8E2D0E94D3
S1130B60D80268E070E06E197F0941E050E0C701E7
S1130B700E946A041AC0F701E295F295F07FFE27FD
S1130B80E07FFE27E056FD4FEC0DFD1D82E08083E3
S1130B906C2D8E2D0E94D80268E070E06E197F09DA
S1130BA041E050E0C7010E946A048C2FC0939F0269
S1130BB000939E02602F0E94D80280919F0290E0D1
S1130BC068E070E0681B790B41E050E00E946A0421
S1130BD00E94800381E0DF91CF911F910F91FF90DC
S1130BE0EF90DF90CF90BF90AF9008950F931F9335
S1130BF0CF93DF93C7E0D0E001E010E00DC041E007
S1130C0050E0B801CE010E946A048AE090E00E949C
S1130C10B10F0F5F1F4F2197DD238CF7DF91CF9129
S1130C201F910F910895CF93DF930E9403031092B5
S1130C309D02D0E00AC06C2F8D2F0E94D802CF5F96
S1130C4001C0C0E0C031B8F3DF5FD830D0F30E94F8
S1130C50F605DF91CF91089540E060E07BE480E009
S1130C6090E00E94FA0A80E480937C0086E88093F6
S1130C707A00089580E80E944D0B08951F93CF9346
S1130C80DF936031B0F48830A0F4142FD62FC82F2E
S1130C9081E00E94790B8C2F877020E1829FC00134
S1130CA011246D2F6F70862B0E94790B812F0E9467
S1130CB0790BDF91CF911F9108950F931F93CF93D9
S1130CC08031A0F48B01C82F83E00E94790B8C2F14
S1130CD08F700E94790BC0E007C0F801EC0FF11D82
S1130CE080810E94790BCF5FC830B8F3CF911F91F8
S1130CF00F91089584E00E94790B82E00E94790BA1
S1130D0008958FE00E94790B08950E943A060E948C
S1130D10C40140E060E07BE480E090E00E94FA0AD5
S1130D200E94880D0E94D30D0E94D80D0E94540287
S1130D300E942C06789408950E947F0D0E94570DFE
S1130D400E94600D65E083E00E941D0D65E070E087
S1130D508BE090E00E94430D8CE391E09F938F938E
S1130D600E948B0F0E94680C0E94FB010F900F9051
S1130D700E94D6018F3F99F40E94410B882361F0B1
S1130D808091490490914A040E94FB0E8337910597
S1130D9031F08335910519F00E94720CE9CF089562
S1130DA0CF93DF93EC010E947F0D0E94600DCE0172
S1130DB00E94130661E070E08AE090E00E94430D17
S1130DC0809133031F928F9381E792E09F938F93D7
S1130DD00E94750F8AB180648AB9809132030E949F
S1130DE071020E94FB010E94480B109231030F9084
S1130DF00F900F900F90DF91CF9108956AE070E00B
S1130E008EE090E00E94430D82E391E09F938F93E4
S1130E100E948B0F6AE070E08FE090E00E94430D27
S1130E2087E091E09F938F930E948B0F6AE070E0BC
S1130E3080E190E00E94430D8FED90E09F938F93AB
S1130E400E948B0F80913103C8ECD0E0C81BD109FC
S1130E500F900F900F900F900F900F901C161D067F
S1130E6014F0C0E0D0E02091340380EB94E0821BC6
S1130E7091091816190614F4C80FD91F6AE070E016
S1130E8082E190E00E94430DDF93CF938BE792E0E1
S1130E909F938F930E94750F0F900F900F900F9058
S1130EA0C0E0D0E00E94410B882339F080914904CE
S1130EB090914A040E94FB0E02C08FEF9FEF0E94A4
S1130EC0E10E8235910541F48091330390E00E9454
S1130ED0D0060E94C3071CC08534910569F481E0E3
S1130EE0809333030E949C068091330390E00E9418
S1130EF0D0060E94C3070CC08E34910549F482E0E9
S1130F008093330382E090E00E94D0060E94C307DE
S1130F10209791F490913103EDEC9E9FE12D1124E3
S1130F20E695E695E695EE0F8E2F880F880FE80F6D
S1130F309E1BE92FF0E017C080913103EDEC8E9FEA
S1130F40812D11248695869586958E9FE12D1124F9
S1130F50E695E695E695EE0F9E2F990F990FE90F0A
S1130F608E1BE82FF0E0EC5FFE4F808188B98C2F58
S1130F708295880F807E8BB981E090E09C012C1BC8
S1130F803D0BE9018FCFCF93DF93CDB7DEB76897E1
S1130F900FB6F894DEBF0FBECDBF109231038FEFB2
S1130FA087B980E28AB90E949E0D4B015C010E94C0
S1130FB09E0D2B013C010E949E0D1092340333249C
S1130FC033941D8A1E8A1F8A188E10E0D3C10E9492
S1130FD0D601082F0E94410B882339F080914904DF
S1130FE090914A040E94FB0E02C08FEF9FEF0E9473
S1130FF0D90E7C018137910531F49091320381E05F
S113100089278093320380E7E816F10409F046C08B
S11310100E94410B882359F08091490490914A041D
S11310200E94FB0E0E94D90E80379105B9F111116F
S113103011C090913103EDEC9E9FE12D1124E695B2
S1131040E695E695EE0F8E2F880F880FE80F9E1B0E
S1131050E92F16C080913103EDEC8E9F812D112470
S11310608695869586958E9FE12D1124E695E695C5
S1131070E695EE0F9E2F990F990FE90F8E1BE82F1F
S1131080F0E0EC5FFE4F808188B9812F8295880F54
S1131090807E8BB981E0811B182FBACFECE7F0E09A
S11310A080818E7F8083EAE7F0E0808180648083A2
S11310B080917A0086FDFCCF2091780030917900F0
S11310C0ECE7F0E0808181608083EAE7F0E08081F2
S11310D08064808380917A0086FDFCCF80917800C3
S11310E090917900002341F044E6E416F10421F0E4
S11310F02D3B42E0340700F13320F1F061E080E061
S11311000E94C404882399F0809131038F5F8093F7
S113111031038AB180648AB9809132030E945D02EE
S11311200E949E0D6D8B7E8B8F8B988F312C0E942D
S11311309E0D4B015C017BC0013041F043E7E41696
S1131140F10421F08C3241E0940700F53320F1F0F2
S113115060E08FEF0E94C404882399F080913103EA
S11311608F5F809331038AB180648AB9809132039E
S11311700E945D020E949E0D6D8B7E8B8F8B988FDB
S1131180312C0E949E0D4B015C0151C0023039F09C
S113119047E7E416F10419F08D3B924000F1332047
S11311A0F1F060E081E00E94C404882399F080910A
S11311B031038F5F809331038AB180648AB980914F
S11311C032030E945D020E949E0D6D8B7E8B8F8B7D
S11311D0988F312C0E949E0D4B015C0128C0033076
S11311E039F081E6E816F10419F02C323140F8F4B4
S11311F03320E9F06FEF80E00E94C404882399F063
S1131200809131038F5F809331038AB180648AB9FE
S1131210809132030E945D020E949E0D6D8B7E8B35
S11312208F8B988F312C0E949E0D4B015C010E9484
S11312309E0D6B017C01D501C40188539F4FAF4FB4
S1131240BF4FC816D906EA06FB0620F00E948003A9
S113125046015701D301C2018C509E4FAF4FBF4F7F
S1131260C816D906EA06FB0620F00E949703260159
S113127037018D899E89AF89B88D8C599F4FAF4FA7
S1131280BF4FC816D906EA06FB0610F03324339480
S1131290111111C090913103EDEC9E9FE12D1124A9
S11312A0E695E695E695EE0F8E2F880F880FE80FEA
S11312B09E1BE92F16C080913103EDEC8E9F812D8A
S11312C011248695869586958E9FE12D1124E695A9
S11312D0E695E695EE0F9E2F990F990FE90F8E1B59
S11312E0E82FF0E0EC5FFE4F808188B9812F829572
S11312F0880F807E8BB981E0811B182F0E949E0D80
S113130028EE33E040E050E00E94EF0D672B682B9D
S1131310692B69F561E070E086E190E00E94430D7D
S1131320809134031F928F9382E892E09F938F936E
S1131330CE0101967C019F938F930E94B80FFF9278
S1131340EF9285E892E09F938F930E94750F8091AE
S113135034038F5F809334038FE19EE40197F1F7A8
S113136000C000000FB6F894DEBF0FBECDBF8AB137
S11313708D7B8AB90E943A04882309F428CE8AB165
S113138080648AB9809132030E9497028AB18D7B6E
S11313908AB90E94FE060E949E0DCB010E94CE0EC9
S11313A00E9485060E949C0681E08093330380930B
S11313B0320381E090E00E94D0060E94C307CF93DD
S11313C0C82F8A3019F48DE00E94DF099FB7907806
S11313D002C0992329F1809136038F3FD1F3F89409
S11313E0E091350381E08E0F80933503F0E0E95CF2
S11313F0FC4FC083809136038F5F809336038091C6
S113140035038F3F11F410923503E1ECF0E0808155
S113141080628083992339F0789480E090E005C05D
S113142081E090E002C080E090E0CF910895809147
S113143048048823E1F32FB72078F8948091360488
S11314403091480490E0831B91095AF4E0913604EA
S113145080914804F0E0E81BF109E95BFB4F8081CF
S11314600AC0E091360480914804F0E0E81BF109D9
S1131470E95CFB4F8081909148049150909348041B
S1131480222309F07894909121039B31B1F4909137
S113149020039B3591F4823449F018F4813461F0CF
S11314A00CC0833429F0843429F007C083E705C0D5
S11314B084E603C081E601C087E7909120039093FE
S11314C021038093200390E008951F920F920FB69A
S11314D00F9211242F938F939F93EF93FF938091F7
S11314E03603882329F1809135032091360390E057
S11314F0821B91095AF4E091350380913603F0E0A0
S1131500E81BF109EA5CFB4F90810AC0E0913503C6
S113151080913603F0E0E81BF109E95CFC4F90810F
S1131520809136038150809336039093C60005C0A2
S1131530E1ECF0E080818F7D8083FF91EF919F91BA
S11315408F912F910F900FBE0F901F9018951F929F
S11315500F920FB60F9211242F933F934F935F93E3
S11315606F937F938F939F93AF93BF93CF93EF9397
S1131570FF93C091C60080912203882349F0809193
S113158036038F3F29F060E070E08C2F0E94DF0962
S113159080914804803120F081E08093470418C092
S11315A0CD3009F4CAE0E091360481E08E0F8093D7
S11315B03604F0E0E95CFB4FC083809148048F5F00
S11315C08093480480913604803111F410923604DB
S11315D0FF91EF91CF91BF91AF919F918F917F91A7
S11315E06F915F914F913F912F910F900FBE0F908C
S11315F01F901895109235031092360310923604FA
S1131600109248041092470440932203DC01CB015A
S1131610880F991FAA1FBB1F880F991FAA1FBB1FE2
S11316209C01AD01220F331F441F551F60E072E17E
S11316308AE790E00E94110EBA01A9014F5F5F4F43
S11316406F4F7F4FDB01CA011AF40196A11DB11D32
S1131650B595A7959795879501979093C500809325
S1131660C400E1ECF0E088E18083808180688083BD
S1131670E9E4F4E08EE091E09383828391838083B4
S113168008959091480481E0911101C080E008958B
S11316901092360410924804089594B1906B94B952
S11316A095B1906195B990E59CBD883021F0803268
S11316B011F0823019F491E09DBD01C01DBC80324F
S11316C069F028F4883071F0803161F00EC0803404
S11316D029F0803851F48CB581608CBD8CB5826062
S11316E08CBD03C08CB581608CBD85B18F7E85B9FE
S11316F008958EBD0DB407FEFDCF8EB508951F93DA
S1131700CF93DF93CDB7DEB728970FB6F894DEBF3B
S11317100FBECDBF10E017C0612F70E0660F771FBA
S1131720660F771F660F771F6A567E4F48E050E0BA
S1131730CE0101960E94E90EBE016F5F7F4F812F9B
S11317400E945D061F5F103138F328960FB6F89497
S1131750DEBF0FBECDBFDF91CF911F910895CF9310
S1131760DF93CDB7DEB728970FB6F894DEBF0FBE70
S1131770CDBF0E947A066091230370E0660F771F45
S1131780660F771F660F771F6A567E4F48E050E05A
S1131790CE0101960E94E90EBE016F5F7F4F8FE07C
S11317A00E945D064091230350E04F5F5F4F9A0112
S11317B036952795ABE7B4E10E94300E9695879550
S11317C062E3689F9001699F300D1124CA01821B56
S11317D0930B80932303803129F480912C0381603F
S11317E080932C0328960FB6F894DEBF0FBECDBFAE
S11317F0DF91CF910895EF92FF920F931F93CF93B0
S1131800DF93CDB7DEB728970FB6F894DEBF0FBECF
S1131810CDBFF62EE42E682F70E0660F771F660F9B
S1131820771F660F771F62597E4F48E050E0CE0164
S113183001960E94E90E0FE310E00F1911092981A6
S11318403A814B815C816D817E818F8198850E9474
S1131850410E217030E040E050E060E070E080E054
S113186090E0A0E00E945D0EC1F0E1101BC010E00A
S11318700FC0812F90E0FC01E157FD4F20812F150F
S113188030F0FC01E857FD4F80810E94720D1F5F0C
S1131890173078F3EE24E39405C0EE2019F00E948B
S11318A0570DE12C60914B0470914C0480E290E060
S11318B00E94390F8E2D28960FB6F894DEBF0FBE06
S11318C0CDBFDF91CF911F910F91FF90EF900895BD
S11318D00E9481060E947F0B80912C03816080937B
S11318E02C030895CF92DF92EF92FF920E949E0DF7
S11318F06B017C0180912C0380FF16C0C0922803E9
S1131900D0922903E0922A03F0922B03C09224037D
S1131910D0922503E0922603F092270390E190935E
S11319202303887F80932C0380912303803109F063
S113193064C08091280390912903A0912A03B09157
S11319402B03AC01BD014053584F6F4F7F4F4C15D3
S11319505D056E057F0558F40E94AF0BC092240309
S1131960D0922503E0922603F092270361C02091D0
S11319702C03322F327021FD19C088519C4FAF4F78
S1131980BF4F8C159D05AE05BF0580F40E947F0BEB
S113199080912C03826080932C03C0922403D09204
S11319A02503E0922603F092270342C0311140C080
S11319B08091240390912503A0912603B0912703DD
S11319C08C599F4FAF4FBF4F8C159D05AE05BF057A
S11319D078F584E0282720932C0322FF03C00E947B
S11319E0810602C00E947F0BC0922403D09225037B
S11319F0E0922603F09227031BC080912403909168
S1131A002503A0912603B091270388539F4FAF4F1E
S1131A10BF4F8C159D05AE05BF0550F40E94AF0B5A
S1131A20C0922403D0922503E0922603F092270368
S1131A30FF90EF90DF90CF900895FF920F931F9344
S1131A40CF93DF93F82E062F10E0D0E014C0602F60
S1131A5070E08F2D90E0810F911D0E94430DC0E036
S1131A6007C04D2F6C2F812F0E94FB0BD82FCF5F07
S1131A70C034B8F31F5F153050F3DF91CF911F913D
S1131A800F91FF9008956F5F7F4F7F936F9301963F
S1131A909F938F9381E493E09F938F930E948B0F86
S1131AA00F900F900F900F900F900F9008958CE36C
S1131AB093E09F938F930E948B0F0F900F90089544
S1131AC087E393E09F938F930E948B0F0F900F9067
S1131AD0089583E393E09F938F930E948B0F0F905D
S1131AE00F9008951F928F938DE293E09F938F93AD
S1131AF00E948B0F0F900F900F900F90089586E225
S1131B0093E09F938F930E948B0F0F900F900895F3
S1131B1010922D0310922E0310922F031092300373
S1131B2016BC8CE787BD92E094BD83E085BDEEE6EC
S1131B30F0E080818260808395BB08958FB7282F61
S1131B402078F89460912D0370912E0380912F03D7
S1131B5090913003222309F0789408951F920F92F4
S1131B600FB60F9211248F939F93AF93BF938091DD
S1131B702D0390912E03A0912F03B0913003019671
S1131B80A11DB11D80932D0390932E03A0932F03C9
S1131B90B0933003BF91AF919F918F910F900FBE7F
S1131BA00F901F901895109285001092840008954C
S1131BB01092B200089597FB072E16F4009407D0F4
S1131BC077FD09D00E94690E07FC05D03EF490957C
S1131BD081959F4F0895709561957F4F0895A1E277
S1131BE01A2EAA1BBB1BFD010DC0AA1FBB1FEE1F93
S1131BF0FF1FA217B307E407F50720F0A21BB30BDE
S1131C00E40BF50B661F771F881F991F1A9469F759
S1131C1060957095809590959B01AC01BD01CF01B5
S1131C200895052E97FB1EF400940E94280E57FD7C
S1131C3007D00E94EF0D07FC03D04EF40C94280E3D
S1131C4050954095309521953F4F4F4F5F4F0895E4
S1131C5090958095709561957F4F8F4F9F4F089514
S1131C60A29FB001B39FC001A39F700D811D1124D9
S1131C70911DB29F700D811D1124911D089597FB34
S1131C8010F8169400080F93083098F00850232F8A
S1131C90342F452F562F672F782F892F902DF4CF6F
S1131CA005949795879577956795579547953795B3
S1131CB027950A95AAF70F9108950024A7FD00948B
S1131CC02A1730054005500560057005800590050C
S1131CD00895AA1BBB1B51E107C0AA1FBB1FA6176F
S1131CE0B70710F0A61BB70B881F991F5A95A9F7C1
S1131CF080959095BC01CD0108958F929F92AF92EB
S1131D00BF92CF92DF92EF92FF92CF93DF93EC01D9
S1131D10688179818A819B816115710581059105AD
S1131D2021F464E279ED8BE597E02DE133EF41E0B6
S1131D3050E00E94110E49015A019B01AC01A7EA2F
S1131D40B1E40E942F126B017C01ACEEB4EFA5014B
S1131D5094010E943D12DC01CB018C0D9D1DAE1D32
S1131D60BF1DB7FF03C00197A109B04888839983B9
S1131D70AA83BB839F77DF91CF91FF90EF90DF9091
S1131D80CF90BF90AF909F908F9008950E947D0E4A
S1131D90089580E091E00E947D0E0895A0E0B0E0F7
S1131DA08093000190930101A0930201B093030179
S1131DB008959111089581548A5108F4805E855ADA
S1131DC008959111089581568A5108F480528558D6
S1131DD00895FB01DC0102C005900D924150504072
S1131DE0D8F70895FB01DC018D9101908019011051
S1131DF0D9F3990B0895CF93DF93EC012B8120FF46
S1131E0033C026FF0AC02F7B2B838E819F810196CE
S1131E109F838E838A8190E029C022FF0FC0E881CE
S1131E20F9818081082E000C990B009719F4206227
S1131E302B831AC03196F983E8830EC0EA85FB85AB
S1131E40099597FF09C02B81019611F080E201C02A
S1131E5080E1822B8B8308C02E813F812F5F3F4F0F
S1131E603F832E83992702C08FEF9FEFDF91CF919D
S1131E7008950F931F93CF93DF93FB01238121FDDB
S1131E8003C08FEF9FEF2CC022FF16C046815781FD
S1131E90248135814217530744F4A081B1819D0107
S1131EA02F5F3F4F318320838C93268137812F5FAF
S1131EB03F4F3783268314C08B01EC01FB01008460
S1131EC0F185E02D0995892BE1F6D80116968D91BF
S1131ED09C911797019617969C938E931697CE0113
S1131EE0DF91CF911F910F910895A0E0B0E0EBE74F
S1131EF0FFE00C945212AE014B5F5F4FFA01619107
S1131F007191AF0180914B0490914C040E94DA0FBF
S1131F10E2E00C946E12A0E0B0E0E1E9FFE00C9482
S1131F205012AE01495F5F4FDA016D917D91AD01B1
S1131F3009E414E0F80182819381DC0113962C9169
S1131F401397286013962C930E94DA0FD8011296E7
S1131F50ED91FC9113972381277F2383E4E00C9474
S1131F606C1260914B0470914C040E94390F0895D7
S1131F70AEE0B0E0EEEBFFE00C9450120D891E8948
S1131F8086E08C831A8309838FEF9FE79E838D837A
S1131F90AE01475E5F4F6F89788DCE0101960E9436
S1131FA0DA0FEF81F885E00FF11F10822E96E4E03E
S1131FB00C946C12ABE0B0E0E0EEFFE00C94421243
S1131FC06C017B018A01FC0117821682838181FFE7
S1131FD0CCC1CE0101963C01F6019381F70193FD3A
S1131FE0859193FF81917F01882309F4BAC18532D9
S1131FF039F493FD859193FF81917F01853229F412
S1132000B60190E00E94390FE7CF912C212C312C9E
S1132010FFE1F315D8F08B3279F038F4803279F09F
S11320208332A1F4232D20611DC08D3261F08033F1
S113203069F4232D216016C0832D8260382EE32D90
S1132040E4603E2E2AC0F32DF8601DC037FC2DC07D
S113205020ED280F2A3040F08E32B9F436FC81C1CD
S1132060232D2064322E19C036FE06C08AE0989EC5
S1132070200D1124922E11C0EAE02E9E200D112471
S1132080222EF32DF0623F2E08C08C3621F4832DCE
S11320908068382E02C0883641F4F70193FD85919B
S11320A093FF81917F018111B3CF982F9F7D955428
S11320B0933028F40C5F1F4F9FE399830DC0833640
S11320C031F0833771F0833509F059C021C0F8012C
S11320D0808189830E5F1F4F88248394912C530140
S11320E013C02801F2E04F0E511CF801A080B1800A
S11320F036FE03C0692D70E002C06FEF7FEFC501AB
S11321000E94C6114C018201F32DFF773F2E16C0A9
S1132110280122E0420E511CF801A080B18036FE55
S113212003C0692D70E002C06FEF7FEFC5010E940C
S1132130BB114C01F32DF0683F2E820133FC1BC010
S1132140822D90E088169906B0F4B60180E290E002
S11321500E94390F2A94F4CFF50137FC859137FE9C
S113216081915F01B60190E00E94390F21102A94F9
S113217021E0821A91088114910471F7E8C0843631
S113218011F0893641F5F80137FE07C0608171818D
S1132190828193810C5F1F4F08C060817181072E7B
S11321A0000C880B990B0E5F1F4FF32DFF763F2E0B
S11321B097FF09C090958095709561957F4F8F4FDB
S11321C09F4FF0683F2E2AE030E0A3010E94D11116
S11321D0882E861845C0853731F4232D2F7EB22EE4
S11321E02AE030E025C0932D997FB92E8F36C1F0B7
S11321F018F4883579F0B5C0803719F0883721F0A4
S1132200B0C0E92FE061BE2EB4FE0DC0FB2DF4601A
S1132210BF2E09C034FE0AC0292F2660B22E06C084
S113222028E030E005C020E130E002C020E132E0E7
S1132230F801B7FE07C060817181828193810C5FD0
S11322401F4F06C06081718180E090E00E5F1F4FD8
S1132250A3010E94D111882E8618FB2DFF773F2EF3
S113226036FE0DC0232D2E7FA22E891458F434FE81
S11322700BC032FC09C0832D8E7EA82E05C0B82C5D
S1132280A32C03C0B82C01C0B92CA4FE0FC0FE01BE
S1132290E80DF11D8081803321F49A2D997EA92EB9
S11322A009C0A2FE06C0B394B39404C08A2D8678F4
S11322B009F0B394A3FC11C0A0FE06C0B21488F4C4
S11322C0280C922C9B180EC0B21460F4B60180E264
S11322D090E00E94390FB394F7CFB21418F42B187E
S11322E002C0982C212CA4FE10C0B60180E390E01B
S11322F00E94390FA2FE17C0A1FC03C088E790E03A
S113230002C088E590E0B6010CC08A2D867859F0A9
S1132310A1FE02C08BE201C080E2A7FC8DE2B601FF
S113232090E00E94390F891438F4B60180E390E0FC
S11323300E94390F9A94F7CF8A94F301E80DF11DA6
S11323408081B60190E00E94390F8110F5CF2220E0
S113235009F442CEB60180E290E00E94390F2A943B
S1132360F6CFF6018681978102C08FEF9FEF2B96FF
S1132370E2E10C945E12FC01059061507040011082
S1132380D8F7809590958E0F9F1F0895FC0161509A
S1132390704001900110D8F7809590958E0F9F1F83
S11323A00895FA01AA27283051F1203181F1E894E7
S11323B06F936E7F6E5F7F4F8F4F9F4FAF4FB1E034
S11323C03ED0B4E03CD0670F781F891F9A1FA11D2F
S11323D0680F791F8A1F911DA11D6A0F711D811D30
S11323E0911DA11D20D009F468943F912AE0269FF5
S11323F011243019305D3193DEF6CF010895462F54
S11324004770405D4193B3E00FD0C9F7F6CF462F34
S11324104F70405D4A3318F0495D31FD405241939D
S113242002D0A9F7EACFB4E0A6959795879577955A
S11324306795BA95C9F700976105710508959B01E1
S1132440AC010A2E06945795479537952795BA956A
S1132450C9F7620F731F841F951FA01D08950E9462
S1132460300EA59F900DB49F900DA49F800D911DDB
S113247011240895B7FF0C942F120E942F12821B6F
S1132480930B08952F923F924F925F926F927F9297
S11324908F929F92AF92BF92CF92DF92EF92FF9270
S11324A00F931F93CF93DF93CDB7DEB7CA1BDB0B1C
S11324B00FB6F894DEBF0FBECDBF09942A883988C1
S11324C048885F846E847D848C849B84AA84B984C8
S11324D0C884DF80EE80FD800C811B81AA81B981D4
S11324E0CE0FD11D0FB6F894DEBF0FBECDBFED01E8
S10924F00895F894FFCFEB
S11324F6010000003F065B4F666D7D077F6F00009D
S1132506000300000000DF09170A000000010001B3
S113251601010001010100000101010100010401A2
S11325260000010400020000000004010000000095
S1132536000000000000000000000000010002008E
S1132546000000010000020000020001010000007A
S1132556010002000000000000000000000000006E
S1132566000004000000000000000000000000015C
S11325760101010101040000000000010101000045
S11325860000000001010000010101010000010139
S1132596010100000101000000000001000001002B
S11325A6000100010100000000020000000001001B
S11325B60201010100000401000401010000010000
S11325C600000004000002010101000001010101F4
S11325D600010000000000010001010001040200E6
S11325E600000002000000010100010101000000DA
S11325F604000000000000020400000001010101C3
S1132606010101010101010101010101626F785F0C
S113261677616C6C00626F785F626F78001B5B3168
S113262630306D2020201B5B306D001B5B31303356
S11326366D2020201B5B306D001B5B34336D202026
S1132646201B5B306D001B5B34316D2020201B5B2F
S1132656306D001B5B3130326D2020201B5B306DEA
S1132666004C6576656C3A2025640053636F726589
S11326763A202564002573002E2F292B2C2A2D3A67
S1092686302820170F06A6
S9030000FC
