:100000000C9492010C94AF010C94AF010C94AF01CD
:100010000C94AF010C94F2010C94AF010C94AF015D
:100020000C94AF010C94AF010C94AF010C94AF0190
:100030000C94AF010C94AF010C94AF010C94AF0180
:100040000C949A090C94AF010C94AF010C94AF017D
:100050000C9493060C9451060C94AF010C94AF01D0
:100060000C94AF010C94AF010C94AF010C94AF0150
:100070000C94AF010C94AF010C94AF0143616E6E10
:100080006F7420737461636B20626F7865730043D3
:10009000616E6E6F74207075736820626F78206F68
:1000A0006E746F2077616C6C0054686572652069AE
:1000B0007320612077616C6C20696E207468652004
:1000C0007761790057616C6C2068697400506C61CD
:1000D0007965722068697420612077616C6C0050CA
:1000E00072657373202772272F27522720746F2081
:1000F000726573746172742C206F72202765272FCC
:1001000027452720746F20657869740047414D4565
:10011000204F5645520043535345323031302F372C
:100120003230312050726F6A6563742062792052D8
:10013000696C65792053746577617274202D203461
:10014000383832383636320060381F3F3F637EFE23
:1001500060BCB1B16166C3C060B63FBF617CC3FE25
:1001600060B3B1B16166C306E0B1313F3F637EFE6B
:10017000F0F000F0F0F0F000F00000F00000F0000F
:10018000F00000F00000F000F0F0F0F000F0F000FF
:100190000000000000000000F0F0F0F0F0000000AF
:1001A000F0000000F0000000F0000000F00000008F
:1001B000F0F0F0F0F000000000000000000000008F
:1001C000F0F0F0F0F0F0F000000000F000000000AF
:1001D0000000F000F0000000F0F0000000F000006F
:1001E0000000000000000000F0F0F0F0F00000005F
:1001F000F0000000F0000000F0000000F00000003F
:10020000F0F0F0F0F000000000000000000000003E
:10021000F0F0F0F0F0F0F000F00000F0000000006E
:10022000F00000F000000000F0F0F0F0000000002E
:100230000000000000000000F0F0F000F0000000FE
:10024000F000F000F0000000F000F000F00000000E
:10025000F0F0F0F0F00000000000000000000000EE
:10026000F0F0F0F0F000000000000000F0000000EE
:1002700000000000F0000000F0F0F0F0F0000000DE
:10028000000000000000000000000000000000006E
:100290003C3C3C3C3C3C00003C3C00003C3C000006
:1002A0003C003C3C003C00003C003C3C003C00006E
:1002B0003C3C00003C3C00003C3C3C3C3C3C0000E6
:1002C00000000010001000001000001000100000DE
:1002D000001000001000101000001010001010108E
:1002E00000100000000010101000000000000000CE
:1002F00000000000000000000000000000000000FE
:100300001B5B3F32356C001B5B25646D001B5B4B38
:10031000001B5B324A001B5B306D001B5B25643B9E
:100320002564480011241FBECFEFD8E0DEBFCDBF4B
:1003300011E0A0E0B1E0E0EBFCE102C005900D921D
:10034000A83BB107D9F723E0A8EBB1E001C01D92AB
:10035000AC36B207E1F70E94BC050C94560E0C9423
:1003600000001092B8011092BD01E8E6F0E0808133
:10037000826080838BB382608BBBECE6F0E080818F
:100380008F60808308958091B8018823F9F080916F
:10039000B9015FB75078F89491E00BC0292F30E095
:1003A000F901E754FE4F4081F901E854FE4F4083C4
:1003B0009F5F2091B801921788F39091B8019150F6
:1003C0009093B801552319F0789408958FEF08950C
:1003D0008FB7F8941092B8011092BD0188230CF4E5
:1003E000789408951F920F920FB60F9211242F93B5
:1003F0003F934F938F939F93EF93FF9343B14F702E
:1004000080E024C09091B8019430F8F4242F30E0BB
:10041000082E02C0359527950A94E2F720FF15C0F3
:100420002091BD0130E0082E02C0359527950A9431
:10043000E2F720FD0AC0E091B80191E09E0F909391
:10044000B801F0E0E754FE4F80838F5F8430D0F234
:100450004093BD01FF91EF919F918F914F913F91FB
:100460002F910F900FBE0F901F90189590E1899FCC
:10047000F0011124EF53FE4FE60FF11D90819770AC
:10048000923099F028F4992341F0913051F0089579
:10049000943079F0963089F0089540E00E94340459
:1004A00008954FEF0E94340408954CE30E943404F1
:1004B00008954FE00E943404089540EF0E943404F0
:1004C0000895CF93DF9385E08093C00182E080930D
:1004D000BF011092BE01A0E027C08A2F90E027E064
:1004E00030E0281B390B462F50E0FC01E295F295D5
:1004F000F07FFE27E07FFE27ED5DFE4FE40FF51F46
:100500007081C90182959295907F9827807F982766
:100510008F539E4FFC01E40FF51F70836F5F01C086
:1005200060E06031D0F2AF5FA830D0F3D0E00AC015
:100530006C2F8D2F0E943602CF5F01C0C0E0C0310A
:10054000B8F3DF5FD830D0F3DF91CF910895909169
:10055000BE0181E089278093BE01882341F040E1FC
:100560006091BF018091C0010E94340408956091A0
:10057000BF018091C0010E9436020895CF93DF939E
:10058000EC0166E171E00E94D60A892B89F50E9490
:10059000B50A63E070E00E94C709EC01219661E0B2
:1005A00070E084E190E00E942F09C130D10549F448
:1005B0008DEC90E09F938F930E946F0B0F900F90A4
:1005C00042C0C230D10549F484EC90E09F938F93F0
:1005D0000E946F0B0F900F9036C02397A1F589EA08
:1005E00090E09F938F930E946F0B0F900F902BC002
:1005F00062E171E0CE010E94D60A892B79F461E0B4
:1006000070E084E190E00E942F098FE890E09F93D2
:100610008F930E946F0B0F900F9015C06BE171E0EC
:10062000CE010E94D60A892B71F461E070E084E16A
:1006300090E00E942F098CE790E09F938F930E9497
:100640006F0B0F900F90DF91CF9108958F929F9233
:10065000AF92BF92CF92DF92EF92FF920F931F93D0
:10066000CF93DF93262F9091C001482F880F550B11
:10067000FA01E90FF11DE770F078FF2324F43197B8
:10068000E86FFF6F31968F01DE2F6091BF01022E60
:10069000000C330BF901E60FF11DEF70F078FF232A
:1006A00024F43197E06FFF6F31966F019E2E112772
:1006B000400F511F47705078552334F44150510971
:1006C000486F5F6F4F5F5F4F7A01842EDD242C0DE2
:1006D0003D1D2F703078332334F421503109206FC1
:1006E0003F6F2F5F3F4F5901C22F892F0E94360263
:1006F00060E070E084E190E00E942F090E945509BB
:10070000F801E295F295F07FFE27E07FFE27EF5398
:10071000FE4FEC0DFD1D8081813029F486E191E0D2
:100720000E94BE028EC0863021F502951295107F80
:100730001027007F10270F531E4FF801EC0DFD1DF1
:1007400084E08083692D8D2F0E943602F701FF27F8
:10075000E295F295F07FFE27E07FFE27EF53FE4FF4
:10076000EA0DF11D82E080836A2D882D0E943602F9
:100770005EC0823009F05BC0FF24BB24F701E29524
:10078000F295F07FFE27E07FFE27EF53FE4FEA0D44
:10079000FB1D8081813029F482E191E00E94BE023C
:1007A00050C0823029F48BE191E00E94BE0249C022
:1007B00002951295107F1027007F10270F531E4FB0
:1007C000F801EC0DFD1D1082F701E295F295F07F26
:1007D000FE27E07FFE27EF53FE4FEA0DFB1D8081D1
:1007E000843099F4C70182959295907F9827807FF5
:1007F00098278F539E4FFC01EA0DFB1D86E08083F6
:100800006C2F882D0E94360212C0C70182959295E6
:10081000907F9827807F98278F539E4FFC01EA0D89
:10082000FB1D82E080836C2F882D0E943602D093BE
:10083000C0019092BF01692D8D2F0E9436020E9447
:10084000A702DF91CF911F910F91FF90EF90DF9062
:10085000CF90BF90AF909F908F90089580E00895C3
:1008600080E80E94390708951F93CF93DF9360318A
:10087000B0F48830A0F4142FD62FC82F81E00E9446
:1008800065078C2F877020E1829FC00111246D2F96
:100890006F70862B0E946507812F0E946507DF918C
:1008A000CF911F9108950F931F93CF938031A0F4A0
:1008B0008B01C82F83E00E9465078C2F8F700E94E8
:1008C0006507C0E007C0F801EC0FF11D80810E94B0
:1008D0006507CF5FC830B8F3CF911F910F9108958E
:1008E00084E00E94650782E00E94650708958FE01A
:1008F0000E94650708950E9430040E94B10140E003
:1009000060E07BE480E090E00E94E6060E947409CB
:100910000E94BF090E94C409789408950E946B093F
:100920000E9443090E944C0965E083E00E94090986
:1009300065E070E08BE090E00E942F0986E191E095
:100940009F938F930E946F0B0E9454080E94E801AE
:100950000F900F900E94C3018F3F99F40E942D07C2
:10096000882361F080916603909167030E94DF0AFB
:100970008337910531F08335910519F00E945E08A7
:10098000E9CF08950E946B090E944C090E94610200
:100990000E94E8010E94340708954F925F926F927F
:1009A0007F92AF92BF92CF92DF92EF92FF920F931E
:1009B0001F93CF93DF93CDB7DEB764970FB6F8944C
:1009C000DEBF0FBECDBF0E948A092B013C01A12CC6
:1009D000B12C91C00E94C301182F0E942D078823BB
:1009E00039F080916603909167030E94DF0A02C08C
:1009F0008FEF9FEF112329F00E94C50A84369105DD
:100A000049F461E080E00E9426030E948A092B01DC
:100A10003C0129C0113019F08337910549F460E099
:100A20008FEF0E9426030E948A092B013C011BC004
:100A3000123019F08737910549F460E081E00E9497
:100A400026030E948A092B013C010DC0133019F0C6
:100A50008136910541F46FEF80E00E9426030E94E9
:100A60008A092B013C010E948A096B017C01D30198
:100A7000C20188539F4FAF4FBF4FC816D906EA0631
:100A8000FB0620F00E94A702260137010E948A0976
:100A900028EE33E040E050E00E94DB09672B682B32
:100AA000692B49F561E070E086E190E00E942F0932
:100AB000BF92AF9283EA91E09F938F938E010F5F75
:100AC0001F4F1F930F930E94950B1F930F9386EA5E
:100AD00091E09F938F930E94590B8FEFA81AB80A49
:100AE0008FE19EE40197F1F700C000000FB6F89483
:100AF000DEBF0FBECDBF0E942E04882309F46ACF4B
:100B000064960FB6F894DEBF0FBECDBFDF91CF91D4
:100B10001F910F91FF90EF90DF90CF90BF90AF901B
:100B20007F906F905F904F9008956AE070E08EE044
:100B300090E00E942F098CE091E09F938F930E9498
:100B40006F0B6AE070E08FE090E00E942F098FED5C
:100B500090E09F938F930E946F0B0F900F900F90D8
:100B60000F900E942D078823E1F3809166039091F6
:100B700067030E94DF0AF5CF0E948A09CB010E9419
:100B8000BA0A0E947B040E948E040E94C2040E9442
:100B9000CD040E949505CF93C82F8A3019F48DE0BB
:100BA0000E94CB059FB7907802C0992329F18091CC
:100BB00053028F3FD1F3F894E091520281E08E0FFF
:100BC00080935202F0E0EC5AFD4FC08380915302B3
:100BD0008F5F80935302809152028F3F11F41092E5
:100BE0005202E1ECF0E0808180628083992339F049
:100BF000789480E090E005C081E090E002C080E061
:100C000090E0CF910895809165038823E1F32FB799
:100C10002078F894809153033091650390E0831B12
:100C200091095AF4E091530380916503F0E0E81BC9
:100C3000F109EC59FC4F80810AC0E0915303809187
:100C40006503F0E0E81BF109EC5AFC4F80819091BC
:100C50006503915090936503222309F07894909155
:100C600042029B31B1F4909141029B3591F4823460
:100C700049F018F4813461F00CC0833429F08434D5
:100C800029F007C083E705C084E603C081E601C000
:100C900087E790914102909342028093410290E055
:100CA00008951F920F920FB60F9211242F938F93D6
:100CB0009F93EF93FF9380915302882329F18091B2
:100CC00052022091530290E0821B91095AF4E09164
:100CD000520280915302F0E0E81BF109ED5AFC4FFB
:100CE00090810AC0E091520280915302F0E0E81B2B
:100CF000F109EC5AFD4F908180915302815080930D
:100D000053029093C60005C0E1ECF0E080818F7D36
:100D10008083FF91EF919F918F912F910F900FBE44
:100D20000F901F9018951F920F920FB60F921124DB
:100D30002F933F934F935F936F937F938F939F93E3
:100D4000AF93BF93CF93EF93FF93C091C600809171
:100D50004302882349F0809153028F3F29F060E0DD
:100D600070E08C2F0E94CB0580916503803120F0CC
:100D700081E08093640318C0CD3009F4CAE0E091AB
:100D8000530381E08E0F80935303F0E0EC5AFC4F45
:100D9000C083809165038F5F8093650380915303C7
:100DA000803111F410925303FF91EF91CF91BF91D5
:100DB000AF919F918F917F916F915F914F913F91F3
:100DC0002F910F900FBE0F901F9018951092520206
:100DD0001092530210925303109265031092640311
:100DE00040934302DC01CB01880F991FAA1FBB1F50
:100DF000880F991FAA1FBB1F9C01AD01220F331F33
:100E0000441F551F60E072E18AE790E00E94FD09EF
:100E1000BA01A9014F5F5F4F6F4F7F4FDB01CA01DE
:100E20001AF40196A11DB11DB595A79597958795C3
:100E300001979093C5008093C400E1ECF0E088E155
:100E40008083808180688083E6E6F3E084E091E03F
:100E5000938382839183808308959091650381E0D9
:100E6000911101C080E00895109253031092650320
:100E7000089594B1906B94B995B1906195B990E54E
:100E80009CBD883021F0803211F0823019F491E05D
:100E90009DBD01C01DBC803269F028F4883071F01E
:100EA000803161F00EC0803429F0803851F48CB567
:100EB00081608CBD8CB582608CBD03C08CB58160B7
:100EC0008CBD85B18F7E85B908958EBD0DB407FEAA
:100ED000FDCF8EB508951F93CF93DF93CDB7DEB7C7
:100EE00028970FB6F894DEBF0FBECDBF10E017C035
:100EF000612F70E0660F771F660F771F660F771FF1
:100F000060597E4F48E050E0CE0101960E94CD0A24
:100F1000BE016F5F7F4F812F0E9453041F5F10310E
:100F200038F328960FB6F894DEBF0FBECDBFDF9121
:100F3000CF911F910895CF93DF93CDB7DEB7289758
:100F40000FB6F894DEBF0FBECDBF0E947004609153
:100F5000440270E0660F771F660F771F660F771FDA
:100F600060597E4F48E050E0CE0101960E94CD0AC4
:100F7000BE016F5F7F4F8FE00E9453044091440297
:100F800050E04F5F5F4F9A0136952795ABE7B4E18C
:100F90000E941C0A9695879562E3689F9001699F5D
:100FA000300D1124CA01821B930B809344028031BF
:100FB00029F480914D02816080934D0228960FB6EE
:100FC000F894DEBF0FBECDBFDF91CF910895EF92B1
:100FD000FF920F931F93CF93DF93CDB7DEB7289780
:100FE0000FB6F894DEBF0FBECDBFF62EE42E682FED
:100FF00070E0660F771F660F771F660F771F685BBD
:101000007E4F48E050E0CE0101960E94CD0A0FE3EA
:1010100010E00F19110929813A814B815C816D81A2
:101020007E818F8198850E942D0A217030E040E0FA
:1010300050E060E070E080E090E0A0E00E94490AAB
:10104000C1F0E1101BC010E00FC0812F90E0FC0147
:10105000E055FE4F20812F1530F0FC01E755FE4F83
:1010600080810E945E091F5F173078F3EE24E394BD
:1010700005C0EE2019F00E944309E12C609168033D
:101080007091690380E290E00E941D0B8E2D2896DE
:101090000FB6F894DEBF0FBECDBFDF91CF911F9189
:1010A0000F91FF90EF9008950E9477040E946B07C4
:1010B00080914D02816080934D020895CF92DF921E
:1010C000EF92FF920E948A096B017C0180914D0290
:1010D00080FF16C0C0924902D0924A02E0924B02B1
:1010E000F0924C02C0924502D0924602E092470232
:1010F000F092480290E190934402887F80934D02E1
:1011000080914402803109F064C08091490290913D
:101110004A02A0914B02B0914C02AC01BD01405378
:10112000584F6F4F7F4F4C155D056E057F0558F486
:101130000E949B07C0924502D0924602E09247026D
:10114000F092480261C020914D02322F327021FD91
:1011500019C088519C4FAF4FBF4F8C159D05AE05F0
:10116000BF0580F40E946B0780914D0282608093DE
:101170004D02C0924502D0924602E0924702F092A0
:10118000480242C0311140C0809145029091460210
:10119000A0914702B09148028C599F4FAF4FBF4F6B
:1011A0008C159D05AE05BF0578F584E028272093B2
:1011B0004D0222FF03C00E94770402C00E946B0709
:1011C000C0924502D0924602E0924702F092480255
:1011D0001BC08091450290914602A0914702B091B8
:1011E000480288539F4FAF4FBF4F8C159D05AE05EA
:1011F000BF0550F40E949B07C0924502D092460260
:10120000E0924702F0924802FF90EF90DF90CF907B
:101210000895FF920F931F93CF93DF93F82E062F1D
:1012200010E0D0E014C0602F70E08F2D90E0810FAF
:10123000911D0E942F09C0E007C04D2F6C2F812FF8
:101240000E94E707D82FCF5FC034B8F31F5F153077
:1012500050F3DF91CF911F910F91FF9008956F5F31
:101260007F4F7F936F9301969F938F938BE193E0D2
:101270009F938F930E946F0B0F900F900F900F9082
:101280000F900F90089586E193E09F938F930E94B3
:101290006F0B0F900F90089581E193E09F938F93D0
:1012A0000E946F0B0F900F9008958DE093E09F9335
:1012B0008F930E946F0B0F900F9008951F928F9342
:1012C00087E093E09F938F930E946F0B0F900F9096
:1012D0000F900F90089580E093E09F938F930E946A
:1012E0006F0B0F900F90089510924E0210924F02C4
:1012F000109250021092510216BC8CE787BD92E00A
:1013000094BD83E085BDEEE6F0E08081826080835D
:1013100095BB08958FB7282F2078F89460914E02DE
:1013200070914F028091500290915102222309F056
:10133000789408951F920F920FB60F9211248F93F5
:101340009F93AF93BF9380914E0290914F02A091D3
:101350005002B09151020196A11DB11D80934E0221
:1013600090934F02A0935002B0935102BF91AF915E
:101370009F918F910F900FBE0F901F901895109214
:1013800085001092840008951092B200089597FB92
:10139000072E16F4009407D077FD09D00E94550A55
:1013A00007FC05D03EF4909581959F4F0895709568
:1013B00061957F4F0895A1E21A2EAA1BBB1BFD0168
:1013C0000DC0AA1FBB1FEE1FFF1FA217B307E40724
:1013D000F50720F0A21BB30BE40BF50B661F771F7C
:1013E000881F991F1A9469F760957095809590955C
:1013F0009B01AC01BD01CF010895052E97FB1EF4A2
:1014000000940E94140A57FD07D00E94DB0907FCD4
:1014100003D04EF40C94140A5095409530952195C4
:101420003F4F4F4F5F4F0895909580957095619510
:101430007F4F8F4F9F4F0895A29FB001B39FC00170
:10144000A39F700D811D1124911DB29F700D811DF0
:101450001124911D089597FB10F8169400080F931E
:10146000083098F00850232F342F452F562F672F20
:10147000782F892F902DF4CF0594979587957795A0
:10148000679557954795379527950A95AAF70F9130
:1014900008950024A7FD00942A1730054005500543
:1014A00060057005800590050895AA1BBB1B51E1DE
:1014B00007C0AA1FBB1FA617B70710F0A61BB70BC4
:1014C000881F991F5A95A9F780959095BC01CD0169
:1014D00008958F929F92AF92BF92CF92DF92EF9238
:1014E000FF92CF93DF93EC01688179818A819B81A0
:1014F000611571058105910521F464E279ED8BE5B3
:1015000097E02DE133EF41E050E00E94FD094901F1
:101510005A019B01AC01A7EAB1E40E940C0E6B01D9
:101520007C01ACEEB4EFA50194010E941A0EDC011F
:10153000CB018C0D9D1DAE1DBF1DB7FF03C00197D4
:10154000A109B04888839983AA83BB839F77DF91E1
:10155000CF91FF90EF90DF90CF90BF90AF909F9092
:101560008F9008950E94690A089580E091E00E949A
:10157000690A0895A0E0B0E0809300019093010112
:10158000A0930201B093030108959111089581542D
:101590008A5108F4805E855A0895FB01DC0102C07F
:1015A00005900D9241505040D8F70895FB01DC01A1
:1015B0008D91019080190110D9F3990B0895CF9363
:1015C000DF93EC012B8120FF33C026FF0AC02F7B65
:1015D0002B838E819F8101969F838E838A8190E0E9
:1015E00029C022FF0FC0E881F9818081082E000CFC
:1015F000990B009719F420622B831AC03196F98356
:10160000E8830EC0EA85FB85099597FF09C02B8109
:10161000019611F080E201C080E1822B8B8308C02B
:101620002E813F812F5F3F4F3F832E83992702C03A
:101630008FEF9FEFDF91CF9108950F931F93CF937B
:10164000DF93FB01238121FD03C08FEF9FEF2CC0AF
:1016500022FF16C0468157812481358142175307E6
:1016600044F4A081B1819D012F5F3F4F31832083DE
:101670008C93268137812F5F3F4F3783268314C099
:101680008B01EC01FB010084F185E02D0995892B8C
:10169000E1F6D80116968D919C91179701961796B1
:1016A0009C938E931697CE01DF91CF911F910F914E
:1016B0000895A0E0B0E0EFE5FBE00C942F0EAE0142
:1016C0004B5F5F4FFA0161917191AF0180916803A7
:1016D000909169030E94B70BE2E00C944B0EA0E0DE
:1016E000B0E0E5E7FBE00C942D0EAE01495F5F4FE3
:1016F000DA016D917D91AD0106E613E0F80182817A
:101700009381DC0113962C911397286013962C93E8
:101710000E94B70BD8011296ED91FC91139723818B
:10172000277F2383E4E00C94490EAEE0B0E0EBE9C0
:10173000FBE00C942D0E0D891E8986E08C831A83A4
:1017400009838FEF9FE79E838D83AE01475E5F4FD6
:101750006F89788DCE0101960E94B70BEF81F885D5
:10176000E00FF11F10822E96E4E00C94490EABE0DE
:10177000B0E0EDEBFBE00C941F0E6C017B018A01E5
:10178000FC0117821682838181FFCCC1CE010196B4
:101790003C01F6019381F70193FD859193FF8191BF
:1017A0007F01882309F4BAC1853239F493FD85910C
:1017B00093FF81917F01853229F4B60190E00E9468
:1017C0001D0BE7CF912C212C312CFFE1F315D8F024
:1017D0008B3279F038F4803279F08332A1F4232D02
:1017E00020611DC08D3261F0803369F4232D2160AA
:1017F00016C0832D8260382EE32DE4603E2E2AC071
:10180000F32DF8601DC037FC2DC020ED280F2A30C5
:1018100040F08E32B9F436FC81C1232D2064322E83
:1018200019C036FE06C08AE0989E200D1124922E23
:1018300011C0EAE02E9E200D1124222EF32DF0621D
:101840003F2E08C08C3621F4832D8068382E02C0CC
:10185000883641F4F70193FD859193FF81917F01D3
:101860008111B3CF982F9F7D9554933028F40C5F4E
:101870001F4F9FE399830DC0833631F0833771F09A
:10188000833509F059C021C0F801808189830E5F3A
:101890001F4F88248394912C530113C02801F2E038
:1018A0004F0E511CF801A080B18036FE03C0692D97
:1018B00070E002C06FEF7FEFC5010E94A30D4C01E5
:1018C0008201F32DFF773F2E16C0280122E0420E41
:1018D000511CF801A080B18036FE03C0692D70E074
:1018E00002C06FEF7FEFC5010E94980D4C01F32DF0
:1018F000F0683F2E820133FC1BC0822D90E08816D9
:101900009906B0F4B60180E290E00E941D0B2A9483
:10191000F4CFF50137FC859137FE81915F01B60167
:1019200090E00E941D0B21102A9421E0821A910858
:101930008114910471F7E8C0843611F0893641F5BD
:10194000F80137FE07C060817181828193810C5F4D
:101950001F4F08C060817181072E000C880B990B06
:101960000E5F1F4FF32DFF763F2E97FF09C0909516
:101970008095709561957F4F8F4F9F4FF0683F2EF8
:101980002AE030E0A3010E94AE0D882E861845C0E3
:10199000853731F4232D2F7EB22E2AE030E025C08A
:1019A000932D997FB92E8F36C1F018F4883579F0D0
:1019B000B5C0803719F0883721F0B0C0E92FE06159
:1019C000BE2EB4FE0DC0FB2DF460BF2E09C034FE48
:1019D0000AC0292F2660B22E06C028E030E005C0DC
:1019E00020E130E002C020E132E0F801B7FE07C09C
:1019F00060817181828193810C5F1F4F06C060817D
:101A0000718180E090E00E5F1F4FA3010E94AE0D38
:101A1000882E8618FB2DFF773F2E36FE0DC0232D16
:101A20002E7FA22E891458F434FE0BC032FC09C05C
:101A3000832D8E7EA82E05C0B82CA32C03C0B82CF5
:101A400001C0B92CA4FE0FC0FE01E80DF11D80817C
:101A5000803321F49A2D997EA92E09C0A2FE06C0DA
:101A6000B394B39404C08A2D867809F0B394A3FC90
:101A700011C0A0FE06C0B21488F4280C922C9B184A
:101A80000EC0B21460F4B60180E290E00E941D0B1B
:101A9000B394F7CFB21418F42B1802C0982C212C51
:101AA000A4FE10C0B60180E390E00E941D0BA2FED0
:101AB00017C0A1FC03C088E790E002C088E590E071
:101AC000B6010CC08A2D867859F0A1FE02C08BE2C7
:101AD00001C080E2A7FC8DE2B60190E00E941D0BE0
:101AE000891438F4B60180E390E00E941D0B9A94AB
:101AF000F7CF8A94F301E80DF11D8081B60190E0E3
:101B00000E941D0B8110F5CF222009F442CEB601B0
:101B100080E290E00E941D0B2A94F6CFF6018681A8
:101B2000978102C08FEF9FEF2B96E2E10C943B0E62
:101B3000FC010590615070400110D8F78095909598
:101B40008E0F9F1F0895FC0161507040019001109D
:101B5000D8F7809590958E0F9F1F0895FA01AA27B8
:101B6000283051F1203181F1E8946F936E7F6E5FE0
:101B70007F4F8F4F9F4FAF4FB1E03ED0B4E03CD08E
:101B8000670F781F891F9A1FA11D680F791F8A1F71
:101B9000911DA11D6A0F711D811D911DA11D20D0D8
:101BA00009F468943F912AE0269F11243019305D92
:101BB0003193DEF6CF010895462F4770405D419383
:101BC000B3E00FD0C9F7F6CF462F4F70405D4A33D0
:101BD00018F0495D31FD4052419302D0A9F7EACF98
:101BE000B4E0A6959795879577956795BA95C9F7C7
:101BF00000976105710508959B01AC010A2E0694BA
:101C00005795479537952795BA95C9F7620F731F72
:101C1000841F951FA01D08950E941C0AA59F900D6A
:101C2000B49F900DA49F800D911D11240895B7FFBE
:101C30000C940C0E0E940C0E821B930B08952F9295
:101C40003F924F925F926F927F928F929F92AF924C
:101C5000BF92CF92DF92EF92FF920F931F93CF9399
:101C6000DF93CDB7DEB7CA1BDB0B0FB6F894DEBF30
:101C70000FBECDBF09942A88398848885F846E8456
:101C80007D848C849B84AA84B984C884DF80EE80A0
:101C9000FD800C811B81AA81B981CE0FD11D0FB6A9
:101CA000F894DEBF0FBECDBFED010895F894FFCFCD
:101CB000010000000000000300000000CB05030647
:101CC0000000626F785F77616C6C00626F785F62B2
:101CD0006F78000001000101010001010100000115
:101CE00001010100010401000001040002000000E4
:101CF00000040100000000000000000000000000DF
:101D000000000001000200000000010000020000CD
:101D100002000101000000010002000000000000BC
:101D200000000000000000000004000000000000AF
:101D30000000000000000101010101010400000099
:101D4000000001010100000000000001010000018D
:101D50000101012564002573002E2F292B2C2A2D2B
:081D60003A302820170F06009D
:00000001FF
