:100000000C94A5010C94C2010C94C2010C94C20181
:100010000C94C2010C9405020C94C2010C94C20110
:100020000C94C2010C94C2010C94C2010C94C20144
:100030000C94C2010C94C2010C94C2010C94C20134
:100040000C94090C0C94C2010C94C2010C94C201D2
:100050000C9402090C94C0080C94C2010C94C201C7
:100060000C94C2010C94C2010C94C2010C94C20104
:100070000C94C2010C94C2010C94C20143616E6ED7
:100080006F7420737461636B20626F7865730043D3
:10009000616E6E6F74207075736820626F78206F68
:1000A0006E746F2077616C6C0054686572652069AE
:1000B0007320612077616C6C20696E207468652004
:1000C0007761790057616C6C2068697400506C61CD
:1000D0007965722068697420612077616C6C006FAB
:1000E0007220707265737320276E272F274E27208A
:1000F000746F2070726F677265737320746F206CF9
:100100006576656C20320050726573732027722704
:100110002F27522720746F20726573746172742CBC
:10012000202765272F27452720746F20657869745D
:100130002C0047414D45204F5645520043535345EF
:10014000323031302F373230312050726F6A656370
:10015000742062792052696C6579205374657761E7
:100160007274202D203438383238363632006038F8
:100170001F3F3F637EFE60BCB1B16166C3C060B625
:100180003FBF617CC3FE60B3B1B16166C306E0B13D
:10019000313F3F637EFEF0F000F0F0F0F000F00041
:1001A00000F00000F000F00000F00000F000F0F0BF
:1001B000F0F000F0F0000000000000000000F0F09F
:1001C000F0F0F0000000F0000000F0000000F0008F
:1001D0000000F0000000F0F0F0F0F000000000007F
:1001E000000000000000F0F0F0F0F0F0F00000007F
:1001F00000F0000000000000F000F0000000F0F04F
:10020000000000F000000000000000000000F0F01E
:10021000F0F0F0000000F0000000F0000000F0003E
:100220000000F0000000F0F0F0F0F000000000002E
:10023000000000000000F0F0F0F0F0F0F000F0003E
:1002400000F000000000F00000F000000000F0F0FE
:10025000F0F0000000000000000000000000F0F0DE
:10026000F000F0000000F000F000F0000000F000EE
:10027000F000F0000000F0F0F0F0F00000000000EE
:10028000000000000000F0F0F0F0F00000000000BE
:100290000000F000000000000000F0000000F0F09E
:1002A000F0F0F0000000000000000000000000007E
:1002B0000000000000003C3C3C3C3C3C00003C3C5E
:1002C00000003C3C00003C003C3C003C00003C008A
:1002D0003C3C003C00003C3C00003C3C00003C3C02
:1002E0003C3C3C3C000000000010001000001000EE
:1002F000001000100000001000001000101000009E
:10030000101000101010001000000000101010005D
:1003100000000000000000000000000000000000DD
:100320000000000000001B5B3F32356C001B5B25AA
:10033000646D001B5B4B001B5B324A001B5B306D26
:10034000001B5B25643B2564480011241FBECFEFD2
:10035000D8E0DEBFCDBF12E0A0E0B1E0ECEAF1E210
:1003600002C005900D92A639B107D9F724E0A6E99D
:10037000B2E001C01D92AD34B207E1F70E94280837
:100380000C94D4100C9400001092960210929B02D0
:10039000E8E6F0E08081826080838BB382608BBB73
:1003A000ECE6F0E080818F60808308958091960272
:1003B0008823F9F0809197025FB75078F89491E024
:1003C0000BC0292F30E0F901E956FD4F4081F901BA
:1003D000EA56FD4F40839F5F20919602921788F363
:1003E00090919602915090939602552319F078942B
:1003F00008958FEF08958FB7F89410929602109297
:100400009B0288230CF4789408951F920F920FB6E4
:100410000F9211242F933F934F938F939F93EF93BA
:10042000FF9343B14F7080E024C0909196029430C6
:10043000F8F4242F30E0082E02C0359527950A9451
:10044000E2F720FF15C020919B0230E0082E02C089
:10045000359527950A94E2F720FD0AC0E0919602AF
:1004600091E09E0F90939602F0E0E956FD4F808355
:100470008F5F8430D0F240939B02FF91EF919F9168
:100480008F914F913F912F910F900FBE0F901F9022
:10049000189590E1899FF0011124E156FD4FE60F78
:1004A000F11D90819770923099F028F4992341F0D2
:1004B000913051F00895943079F0963089F0089594
:1004C00040E00E94660508954FEF0E94660508957A
:1004D0004CE30E94660508954FE00E94660508956A
:1004E00040EF0E9466050895CF93DF93CDB7DEB746
:1004F000DA950FB6F894DEBF0FBECDBF81309105FF
:1005000019F00297E1F035C080E8ECE1F1E0DE019E
:10051000AF57BF4F01900D928A95E1F780E8FE0139
:10052000EF57FF4FDE01119601900D928A95E1F78A
:1005300085E080939E0282E080939D021AC080E84D
:10054000ECE9F1E0DE01AF57BF4F01900D928A95C3
:10055000E1F780E8FE01EF57FF4FDE0111960190B1
:100560000D928A95E1F786E080939E028FE080935A
:100570009D02A0E02BC08A2F90E027E030E0281BEE
:10058000390B462F50E0FC01E295F295F07FFE27F3
:10059000E07FFE2781E090E08C0F9D1FE80FF91FA0
:1005A000E40FF51F7081C90182959295907F98277D
:1005B000807F982781569D4FFC01E40FF51F7083C3
:1005C0006F5F01C060E06031B0F2AF5FA830D0F380
:1005D000D3950FB6F894DEBF0FBECDBFDF91CF919C
:1005E000089590919C0281E0892780939C02882342
:1005F00041F040E160919D0280919E020E9466055B
:10060000089560919D0280919E020E944902089582
:10061000CF93DF93EC0160E272E00E944D0D892BD5
:1006200089F50E94240D63E070E00E94360CEC0115
:10063000219661E070E084E190E00E949E0BC13061
:10064000D10549F48DEC90E09F938F930E94E60DC5
:100650000F900F9042C0C230D10549F484EC90E075
:100660009F938F930E94E60D0F900F9036C02397B3
:10067000A1F589EA90E09F938F930E94E60D0F9079
:100680000F902BC06CE172E0CE010E944D0D892BC2
:1006900079F461E070E084E190E00E949E0B8FE8C5
:1006A00090E09F938F930E94E60D0F900F9015C0DE
:1006B00065E272E0CE010E944D0D892B71F461E07C
:1006C00070E084E190E00E949E0B8CE790E09F93A5
:1006D0008F930E94E60D0F900F90DF91CF910895B8
:1006E00040E050E017C0FA01E295F295F07FFE2756
:1006F000E07FFE27E156FD4FE80FF91F20812430EF
:10070000A1F0019602C080E090E0803191055CF399
:100710004F5F5F4F48305105B4F360919D02809167
:100720009E020E94490281E0089580E008959B01A5
:100730000E94360C820F931FB9010E94360C089557
:100740000F931F93CF93DF938C01CB01BA010E94CB
:100750009E0B0E94C40BC1E0D0E043C0F801E295BB
:10076000F295F07FFE27E07FFE27E156FD4FEC0F6C
:10077000FD1F8081811109C08DE292E09F938F93CC
:100780000E94D00D0F900F902BC0813049F48BE365
:1007900092E09F938F930E94D00D0F900F9020C0F6
:1007A000823049F489E492E09F938F930E94D00DA8
:1007B0000F900F9015C0843049F486E592E09F9326
:1007C0008F930E94D00D0F900F900AC0863041F495
:1007D00083E692E09F938F930E94D00D0F900F902D
:1007E0002196C031D1050CF4B9CFDF91CF911F9183
:1007F0000F910895AF92BF92CF92DF92EF92FF9246
:100800000F931F93CF93DF93C62EB0909E02E82ED6
:10081000880FFF0868E070E0C7018B0D911D0E94F2
:100820009703EC01A0909D020C2C000CDD0860E108
:1008300070E0C6018A0D911D0E9497038C0168E04B
:1008400070E0C7018C0F9D1F0E9497037C0160E13F
:1008500070E0C601800F911F0E9497036C016A2D02
:100860008B2D0E94490260E070E084E190E00E94DC
:100870009E0B0E94C40BFE01E295F295F07FFE27CD
:10088000E07FFE27E156FD4FE00FF11F80818130B0
:1008900031F480E292E00E94080380E0D2C086300A
:1008A00009F04BC0F701E295F295F07FFE27E07F5B
:1008B000FE27E156FD4FEC0DFD1D8081813031F4A6
:1008C0008CE192E00E94080380E0BBC0FE01E2954B
:1008D000F295F07FFE27E07FFE27E156FD4FE00F07
:1008E000F11F84E08083602F8C2F0E94490268945E
:1008F000AA24A3F8B12CB5016C1B7D0B41E050E09C
:10090000CE010E94A003F701E295F295F07FFE2749
:10091000E07FFE27E156FD4FEC0DFD1D82E0808358
:100920006C2D8E2D0E944902B5016E197F0941E0A0
:1009300050E0C7010E94A0036EC0823009F06BC076
:10094000F701E295F295F07FFE27E07FFE27E15662
:10095000FD4FEC0DFD1D8081813031F48CE192E082
:100960000E94080380E06DC0823031F485E292E09D
:100970000E94080380E065C0FE01E295F295F07FD9
:10098000FE27E07FFE27E156FD4FE00FF11F1082AA
:10099000F701E295F295F07FFE27E07FFE27E15612
:1009A000FD4FEC0DFD1D80818430D9F4F701E295F7
:1009B000F295F07FFE27E07FFE27E156FD4FEC0D1C
:1009C000FD1D86E080836C2D8E2D0E94490268E01B
:1009D00070E06E197F0941E050E0C7010E94A0035A
:1009E0001AC0F701E295F295F07FFE27E07FFE271F
:1009F000E156FD4FEC0DFD1D82E080836C2D8E2DA8
:100A00000E94490268E070E06E197F0941E050E001
:100A1000C7010E94A0038C2FC0939E0200939D02E9
:100A2000602F0E94490280919E0290E068E070E091
:100A3000681B790B41E050E00E94A0030E94F10284
:100A400081E0DF91CF911F910F91FF90EF90DF90A8
:100A5000CF90BF90AF9008950F931F93CF93DF93E4
:100A6000C7E0D0E001E010E00DC041E050E0B80187
:100A7000CE010E94A0038AE090E00E940C0E0F5F5E
:100A80001F4F2197DD238CF7DF91CF911F910F919D
:100A90000895CF93DF930E94740210929C02D0E0DD
:100AA0000AC06C2F8D2F0E944902CF5F01C0C0E0A9
:100AB000C031B8F3DF5FD830D0F30E942C05DF914E
:100AC000CF91089580E80E94A80908951F93CF93BD
:100AD000DF936031B0F48830A0F4142FD62FC82FE4
:100AE00081E00E94D4098C2F877020E1829FC00191
:100AF00011246D2F6F70862B0E94D409812F0E94C4
:100B0000D409DF91CF911F9108950F931F93CF9335
:100B10008031A0F48B01C82F83E00E94D4098C2F70
:100B20008F700E94D409C0E007C0F801EC0FF11DDE
:100B300080810E94D409CF5FC830B8F3CF911F9154
:100B40000F91089584E00E94D40982E00E94D409A4
:100B500008958FE00E94D40908950E9462050E94C2
:100B6000C40140E060E07BE480E090E00E94550931
:100B70000E94E30B0E942E0C0E94330C789408957F
:100B80000E94DA0B0E94B20B0E94BB0B65E083E06F
:100B90000E94780B65E070E08BE090E00E949E0B75
:100BA0008CE391E09F938F930E94E60D0E94C30A0D
:100BB0000E94FB010F900F900E94D6018F3F99F485
:100BC0000E949C09882361F0809147049091480419
:100BD0000E94560D8337910531F08335910519F048
:100BE0000E94CD0AE9CF0895CF93DF93EC010E94D4
:100BF000DA0B0E94BB0BCE010E94490561E070E058
:100C00008AE090E00E949E0B809131031F928F93A7
:100C100081E792E09F938F930E94D00D0E94FB0189
:100C20000E94A309109230030F900F900F900F9025
:100C3000DF91CF9108956AE070E08EE090E00E942D
:100C40009E0B82E391E09F938F930E94E60D6AE0F2
:100C500070E08FE090E00E949E0B87E091E09F9310
:100C60008F930E94E60D6AE070E080E190E00E94C0
:100C70009E0B8FED90E09F938F930E94E60D8091E5
:100C80003003C8ECD0E0C81BD1090F900F900F9033
:100C90000F900F900F901C161D0614F0C0E0D0E0CE
:100CA0002091320380EB94E0821B910918161906FB
:100CB00014F4C80FD91F6AE070E082E190E00E944E
:100CC0009E0BDF93CF938BE792E09F938F930E94CD
:100CD000D00D0F900F900F900F90C0E0D0E00E94C9
:100CE0009C09882339F080914704909148040E9420
:100CF000560D02C08FEF9FEF0E943C0D823591058B
:100D000041F48091310390E00E94F4050E94DC06DA
:100D10001CC08534910569F481E0809331030E9401
:100D2000C0058091310390E00E94F4050E94DC062A
:100D30000CC08E34910549F482E08093310382E047
:100D400090E00E94F4050E94DC06209791F49091B7
:100D50003003EDEC9E9FE12D1124E695E695E69596
:100D6000EE0F8E2F880F880FE80F9E1BE92FF0E003
:100D700017C080913003EDEC8E9F812D1124869554
:100D8000869586958E9FE12D1124E695E695E6954C
:100D9000EE0F9E2F990F990FE90F8E1BE82FF0E0B1
:100DA000EC5FFE4F808182B9C8B981E090E09C0180
:100DB0002C1B3D0BE90193CFCF93DF93CDB7DEB76B
:100DC00064970FB6F894DEBF0FBECDBF109230030C
:100DD0008FEF81B981E087B90E94F90B4B015C016B
:100DE00010923203F12C2DC10E94D601E82E0E94F0
:100DF0009C09882339F080914704909148040E940F
:100E0000560D02C08FEF9FEF0E94340D8C0180378A
:100E1000910509F042C00E949C09882359F08091F5
:100E20004704909148040E94560D0E94340D80376B
:100E3000910599F1F11011C090913003EDEC9E9F56
:100E4000E12D1124E695E695E695EE0F8E2F880F9D
:100E5000880FE80F9E1BE92F16C080913003EDEC40
:100E60008E9F812D11248695869586958E9FE12DE6
:100E70001124E695E695E695EE0F9E2F990F990FB2
:100E8000E90F8E1BE82FF0E0EC5FFE4F808182B906
:100E9000F8B881E08F19F82EBECFEE2019F0043695
:100EA000110581F461E080E00E94FA03882329F0B3
:100EB000809130038F5F809330030E94F90B4B01C8
:100EC0005C0141C081E0E81619F00337110581F497
:100ED00060E08FEF0E94FA03882329F080913003AD
:100EE0008F5F809330030E94F90B4B015C012BC094
:100EF00092E0E91619F00737110581F460E081E00E
:100F00000E94FA03882329F0809130038F5F809339
:100F100030030E94F90B4B015C0115C083E0E81619
:100F200019F00136110579F46FEF80E00E94FA03A1
:100F3000882329F0809130038F5F809330030E94D3
:100F4000F90B4B015C010E94F90B2B013C01D5010F
:100F5000C40188539F4FAF4FBF4F481659066A06CA
:100F60007B0620F00E94F10253014201F11011C0F2
:100F700090913003EDEC9E9FE12D1124E695E695CE
:100F8000E695EE0F8E2F880F880FE80F9E1BE92F36
:100F900016C080913003EDEC8E9F812D1124869533
:100FA000869586958E9FE12D1124E695E695E6952A
:100FB000EE0F9E2F990F990FE90F8E1BE82FF0E08F
:100FC000EC5FFE4F808182B9F8B881E08F19F82E6E
:100FD0000E94F90B28EE33E040E050E00E944A0CFA
:100FE000672B682B692B69F561E070E086E190E082
:100FF0000E949E0B809132031F928F9382E892E0B1
:101000009F938F938E010F5F1F4F1F930F930E942B
:10101000130E1F930F9385E892E09F938F930E9486
:10102000D00D809132038F5F809332038FE19EE475
:101030000197F1F700C000000FB6F894DEBF0FBEB5
:10104000CDBF0E947003882309F4CECE0E941B06F8
:101050000E94F90BCB010E94290D0E94AD050E9450
:10106000C00581E08093310381E090E00E94F405A7
:101070000E94DC06CF93C82F8A3019F48DE00E94BD
:101080003A089FB7907802C0992329F180913403E0
:101090008F3FD1F3F894E091330381E08E0F80937A
:1010A0003303F0E0EB5CFC4FC083809134038F5F2F
:1010B00080933403809133038F3F11F410923303F4
:1010C000E1ECF0E0808180628083992339F07894AC
:1010D00080E090E005C081E090E002C080E090E018
:1010E000CF910895809146048823E1F32FB72078AB
:1010F000F894809134043091460490E0831B910968
:101100005AF4E091340480914604F0E0E81BF109C0
:10111000EB5BFB4F80810AC0E09134048091460470
:10112000F0E0E81BF109EB5CFB4F808190914604F5
:10113000915090934604222309F0789490912003D3
:101140009B31B1F490911F039B3591F4823449F0A7
:1011500018F4813461F00CC0833429F0843429F010
:1011600007C083E705C084E603C081E601C087E7C6
:1011700090911F039093200380931F0390E00895A4
:101180001F920F920FB60F9211242F938F939F935C
:10119000EF93FF9380913403882329F180913303E7
:1011A0002091340390E0821B91095AF4E0913303BB
:1011B00080913403F0E0E81BF109EC5CFB4F908177
:1011C0000AC0E091330380913403F0E0E81BF10999
:1011D000EB5CFC4F90818091340381508093340309
:1011E0009093C60005C0E1ECF0E080818F7D8083A4
:1011F000FF91EF919F918F912F910F900FBE0F90C4
:101200001F9018951F920F920FB60F9211242F93D3
:101210003F934F935F936F937F938F939F93AF937E
:10122000BF93CF93EF93FF93C091C60080912103AA
:10123000882349F0809134038F3F29F060E070E00B
:101240008C2F0E943A0880914604803120F081E082
:101250008093450418C0CD3009F4CAE0E09134040D
:1012600081E08E0F80933404F0E0EB5CFB4FC08391
:10127000809146048F5F80934604809134048031CE
:1012800011F410923404FF91EF91CF91BF91AF917F
:101290009F918F917F916F915F914F913F912F918E
:1012A0000F900FBE0F901F9018951092330310925D
:1012B0003403109234041092460410924504409373
:1012C0002103DC01CB01880F991FAA1FBB1F880FC8
:1012D000991FAA1FBB1F9C01AD01220F331F441F82
:1012E000551F60E072E18AE790E00E946C0CBA0141
:1012F000A9014F5F5F4F6F4F7F4FDB01CA011AF4A7
:101300000196A11DB11DB595A79597958795019754
:101310009093C5008093C400E1ECF0E088E1808305
:10132000808180688083E7E4F4E08EE091E093833D
:1013300082839183808308959091460481E0911186
:1013400001C080E00895109234041092460408957C
:1013500094B1906B94B995B1906195B990E59CBDAD
:10136000883021F0803211F0823019F491E09DBD77
:1013700001C01DBC803269F028F4883071F08031E2
:1013800061F00EC0803429F0803851F48CB5816052
:101390008CBD8CB582608CBD03C08CB581608CBD6A
:1013A00085B18F7E85B908958EBD0DB407FEFDCF42
:1013B0008EB508951F93CF93DF93CDB7DEB72897EF
:1013C0000FB6F894DEBF0FBECDBF10E017C0612F7F
:1013D00070E0660F771F660F771F660F771F6A56DC
:1013E0007E4F48E050E0CE0101960E94440DBE01C0
:1013F0006F5F7F4F812F0E9485051F5F103138F38B
:1014000028960FB6F894DEBF0FBECDBFDF91CF9107
:101410001F910895CF93DF93CDB7DEB728970FB60E
:10142000F894DEBF0FBECDBF0E94A20560912203DB
:1014300070E0660F771F660F771F660F771F6A567B
:101440007E4F48E050E0CE0101960E94440DBE015F
:101450006F5F7F4F8FE00E9485054091220350E02F
:101460004F5F5F4F9A0136952795ABE7B4E10E9435
:101470008B0C9695879562E3689F9001699F300D6C
:101480001124CA01821B930B80932203803129F41B
:1014900080912B03816080932B0328960FB6F894DC
:1014A000DEBF0FBECDBFDF91CF910895EF92FF92C7
:1014B0000F931F93CF93DF93CDB7DEB728970FB667
:1014C000F894DEBF0FBECDBFF62EE42E682F70E07D
:1014D000660F771F660F771F660F771F62597E4F63
:1014E00048E050E0CE0101960E94440D0FE310E069
:1014F0000F19110929813A814B815C816D817E81AF
:101500008F8198850E949C0C217030E040E050E073
:1015100060E070E080E090E0A0E00E94B80CC1F0D4
:10152000E1101BC010E00FC0812F90E0FC01E157DB
:10153000FD4F20812F1530F0FC01E857FD4F8081D1
:101540000E94CD0B1F5F173078F3EE24E39405C0A3
:10155000EE2019F00E94B20BE12C609149047091C9
:101560004A0480E290E00E94940D8E2D28960FB6DA
:10157000F894DEBF0FBECDBFDF91CF911F910F91C9
:10158000FF90EF9008950E94A9050E94DA098091CA
:101590002B03816080932B030895CF92DF92EF920B
:1015A000FF920E94F90B6B017C0180912B0380FF5D
:1015B00016C0C0922703D0922803E0922903F0922C
:1015C0002A03C0922303D0922403E0922503F092D1
:1015D000260390E190932203887F80932B038091D0
:1015E0002203803109F064C0809127039091280381
:1015F000A0912903B0912A03AC01BD014053584F7B
:101600006F4F7F4F4C155D056E057F0558F40E94A6
:101610000A0AC0922303D0922403E0922503F09299
:10162000260361C020912B03322F327021FD19C097
:1016300088519C4FAF4FBF4F8C159D05AE05BF0520
:1016400080F40E94DA0980912B03826080932B033F
:10165000C0922303D0922403E0922503F092260344
:1016600042C0311140C08091230390912403A09186
:101670002503B09126038C599F4FAF4FBF4F8C1558
:101680009D05AE05BF0578F584E0282720932B0340
:1016900022FF03C00E94A90502C00E94DA09C0927D
:1016A0002303D0922403E0922503F09226031BC06B
:1016B0008091230390912403A0912503B0912603E8
:1016C00088539F4FAF4FBF4F8C159D05AE05BF058B
:1016D00050F40E940A0AC0922303D0922403E0929D
:1016E0002503F0922603FF90EF90DF90CF900895AE
:1016F000FF920F931F93CF93DF93F82E062F10E0E6
:10170000D0E014C0602F70E08F2D90E0810F911D0C
:101710000E949E0BC0E007C04D2F6C2F812F0E94AE
:10172000560AD82FCF5FC034B8F31F5F153050F37F
:10173000DF91CF911F910F91FF9008956F5F7F4FC1
:101740007F936F9301969F938F9381E493E09F9390
:101750008F930E94E60D0F900F900F900F900F90B7
:101760000F9008958CE393E09F938F930E94E60D72
:101770000F900F90089587E393E09F938F930E94BB
:10178000E60D0F900F90089583E393E09F938F935E
:101790000E94E60D0F900F9008951F928F938DE297
:1017A00093E09F938F930E94E60D0F900F900F9000
:1017B0000F90089586E293E09F938F930E94E60D29
:1017C0000F900F90089510922C0310922D031092F9
:1017D0002E0310922F0316BC8CE787BD92E094BDB8
:1017E00083E085BDEEE6F0E080818260808395BB7A
:1017F00008958FB7282F2078F89460912C0370916A
:101800002D0380912E0390912F03222309F07894C9
:1018100008951F920F920FB60F9211248F939F93EA
:10182000AF93BF9380912C0390912D03A0912E0331
:10183000B0912F030196A11DB11D80932C039093AD
:101840002D03A0932E03B0932F03BF91AF919F91CF
:101850008F910F900FBE0F901F90189510928500DA
:101860001092840008951092B200089597FB072EFD
:1018700016F4009407D077FD09D00E94C40C07FC31
:1018800005D03EF4909581959F4F08957095619590
:101890007F4F0895A1E21A2EAA1BBB1BFD010DC0AC
:1018A000AA1FBB1FEE1FFF1FA217B307E407F50710
:1018B00020F0A21BB30BE40BF50B661F771F881FEC
:1018C000991F1A9469F760957095809590959B0182
:1018D000AC01BD01CF010895052E97FB1EF40094C5
:1018E0000E94830C57FD07D00E944A0C07FC03D0CE
:1018F0004EF40C94830C50954095309521953F4FB4
:101900004F4F5F4F089590958095709561957F4FEB
:101910008F4F9F4F0895A29FB001B39FC001A39F17
:10192000700D811D1124911DB29F700D811D112418
:10193000911D089597FB10F8169400080F93083036
:1019400098F00850232F342F452F562F672F782FCC
:10195000892F902DF4CF0594979587957795679566
:1019600057954795379527950A95AAF70F910895AA
:101970000024A7FD00942A17300540055005600596
:101980007005800590050895AA1BBB1B51E107C097
:10199000AA1FBB1FA617B70710F0A61BB70B881FFF
:1019A000991F5A95A9F780959095BC01CD0108958E
:1019B0008F929F92AF92BF92CF92DF92EF92FF925F
:1019C000CF93DF93EC01688179818A819B816115D6
:1019D00071058105910521F464E279ED8BE597E0CD
:1019E0002DE133EF41E050E00E946C0C49015A01B7
:1019F0009B01AC01A7EAB1E40E948A106B017C0153
:101A0000ACEEB4EFA50194010E949810DC01CB016B
:101A10008C0D9D1DAE1DBF1DB7FF03C00197A10911
:101A2000B04888839983AA83BB839F77DF91CF9146
:101A3000FF90EF90DF90CF90BF90AF909F908F90EE
:101A400008950E94D80C089580E091E00E94D80C7F
:101A50000895A0E0B0E08093000190930101A0936D
:101A60000201B093030108959111089581548A51A0
:101A700008F4805E855A08959111089581568A511F
:101A800008F4805285580895FB01DC0102C00590DE
:101A90000D9241505040D8F70895FB01DC018D9123
:101AA000019080190110D9F3990B0895CF93DF931A
:101AB000EC012B8120FF33C026FF0AC02F7B2B8334
:101AC0008E819F8101969F838E838A8190E029C0B9
:101AD00022FF0FC0E881F9818081082E000C990B4C
:101AE000009719F420622B831AC03196F983E8839A
:101AF0000EC0EA85FB85099597FF09C02B810196E9
:101B000011F080E201C080E1822B8B8308C02E811E
:101B10003F812F5F3F4F3F832E83992702C08FEF76
:101B20009FEFDF91CF9108950F931F93CF93DF9392
:101B3000FB01238121FD03C08FEF9FEF2CC022FF0B
:101B400016C046815781248135814217530744F4DA
:101B5000A081B1819D012F5F3F4F318320838C9302
:101B6000268137812F5F3F4F3783268314C08B0137
:101B7000EC01FB010084F185E02D0995892BE1F64C
:101B8000D80116968D919C911797019617969C9364
:101B90008E931697CE01DF91CF911F910F910895EB
:101BA000A0E0B0E0E6EDFDE00C94AD10AE014B5FBF
:101BB0005F4FFA0161917191AF0180914904909159
:101BC0004A040E94350EE2E00C94C910A0E0B0E097
:101BD000ECEEFDE00C94AB10AE01495F5F4FDA0113
:101BE0006D917D91AD0107E414E0F801828193814C
:101BF000DC0113962C911397286013962C930E9466
:101C0000350ED8011296ED91FC9113972381277F11
:101C10002383E4E00C94C7106091490470914A0456
:101C20000E94940D0895AEE0B0E0E9E1FEE00C946E
:101C3000AB100D891E8986E08C831A8309838FEF90
:101C40009FE79E838D83AE01475E5F4F6F89788DDE
:101C5000CE0101960E94350EEF81F885E00FF11F4D
:101C600010822E96E4E00C94C710ABE0B0E0EBE3FA
:101C7000FEE00C949D106C017B018A01FC0117822F
:101C80001682838181FFCCC1CE0101963C01F60111
:101C90009381F70193FD859193FF81917F018823C3
:101CA00009F4BAC1853239F493FD859193FF81918E
:101CB0007F01853229F4B60190E00E94940DE7CFB0
:101CC000912C212C312CFFE1F315D8F08B3279F0D7
:101CD00038F4803279F08332A1F4232D20611DC0C5
:101CE0008D3261F0803369F4232D216016C0832D7D
:101CF0008260382EE32DE4603E2E2AC0F32DF8607A
:101D00001DC037FC2DC020ED280F2A3040F08E3248
:101D1000B9F436FC81C1232D2064322E19C036FE61
:101D200006C08AE0989E200D1124922E11C0EAE090
:101D30002E9E200D1124222EF32DF0623F2E08C07E
:101D40008C3621F4832D8068382E02C0883641F409
:101D5000F70193FD859193FF81917F018111B3CFAD
:101D6000982F9F7D9554933028F40C5F1F4F9FE36D
:101D700099830DC0833631F0833771F0833509F0D4
:101D800059C021C0F801808189830E5F1F4F8824CC
:101D90008394912C530113C02801F2E04F0E511C83
:101DA000F801A080B18036FE03C0692D70E002C04A
:101DB0006FEF7FEFC5010E9421104C018201F32DCE
:101DC000FF773F2E16C0280122E0420E511CF80179
:101DD000A080B18036FE03C0692D70E002C06FEFB5
:101DE0007FEFC5010E9416104C01F32DF0683F2EC5
:101DF000820133FC1BC0822D90E088169906B0F456
:101E0000B60180E290E00E94940D2A94F4CFF5018F
:101E100037FC859137FE81915F01B60190E00E9409
:101E2000940D21102A9421E0821A910881149104C2
:101E300071F7E8C0843611F0893641F5F80137FEB4
:101E400007C060817181828193810C5F1F4F08C040
:101E500060817181072E000C880B990B0E5F1F4F5C
:101E6000F32DFF763F2E97FF09C0909580957095D2
:101E700061957F4F8F4F9F4FF0683F2E2AE030E0F3
:101E8000A3010E942C10882E861845C0853731F496
:101E9000232D2F7EB22E2AE030E025C0932D997F8E
:101EA000B92E8F36C1F018F4883579F0B5C0803777
:101EB00019F0883721F0B0C0E92FE061BE2EB4FEE2
:101EC0000DC0FB2DF460BF2E09C034FE0AC0292FBF
:101ED0002660B22E06C028E030E005C020E130E0E8
:101EE00002C020E132E0F801B7FE07C060817181D5
:101EF000828193810C5F1F4F06C06081718180E0F9
:101F000090E00E5F1F4FA3010E942C10882E8618B0
:101F1000FB2DFF773F2E36FE0DC0232D2E7FA22EE8
:101F2000891458F434FE0BC032FC09C0832D8E7E18
:101F3000A82E05C0B82CA32C03C0B82C01C0B92C06
:101F4000A4FE0FC0FE01E80DF11D8081803321F455
:101F50009A2D997EA92E09C0A2FE06C0B394B3940F
:101F600004C08A2D867809F0B394A3FC11C0A0FEAA
:101F700006C0B21488F4280C922C9B180EC0B21420
:101F800060F4B60180E290E00E94940DB394F7CF24
:101F9000B21418F42B1802C0982C212CA4FE10C0E7
:101FA000B60180E390E00E94940DA2FE17C0A1FC50
:101FB00003C088E790E002C088E590E0B6010CC05D
:101FC0008A2D867859F0A1FE02C08BE201C080E222
:101FD000A7FC8DE2B60190E00E94940D891438F4BC
:101FE000B60180E390E00E94940D9A94F7CF8A9412
:101FF000F301E80DF11D8081B60190E00E94940D7F
:102000008110F5CF222009F442CEB60180E290E0A3
:102010000E94940D2A94F6CFF6018681978102C022
:102020008FEF9FEF2B96E2E10C94B910FC01059025
:10203000615070400110D8F7809590958E0F9F1FCA
:102040000895FC016150704001900110D8F780950F
:1020500090958E0F9F1F0895FA01AA27283051F1FD
:10206000203181F1E8946F936E7F6E5F7F4F8F4FC9
:102070009F4FAF4FB1E03ED0B4E03CD0670F781F28
:10208000891F9A1FA11D680F791F8A1F911DA11D0D
:102090006A0F711D811D911DA11D20D009F4689446
:1020A0003F912AE0269F11243019305D3193DEF6EE
:1020B000CF010895462F4770405D4193B3E00FD0A4
:1020C000C9F7F6CF462F4F70405D4A3318F0495D8F
:1020D00031FD4052419302D0A9F7EACFB4E0A69572
:1020E0009795879577956795BA95C9F70097610594
:1020F000710508959B01AC010A2E069457954795EA
:1021000037952795BA95C9F7620F731F841F951FDE
:10211000A01D08950E948B0CA59F900DB49F900D5B
:10212000A49F800D911D11240895B7FF0C948A106F
:102130000E948A10821B930B08952F923F924F9218
:102140005F926F927F928F929F92AF92BF92CF9247
:10215000DF92EF92FF920F931F93CF93DF93CDB750
:10216000DEB7CA1BDB0B0FB6F894DEBF0FBECDBFC8
:1021700009942A88398848885F846E847D848C8499
:102180009B84AA84B984C884DF80EE80FD800C81A2
:102190001B81AA81B981CE0FD11D0FB6F894DEBF85
:0C21A0000FBECDBFED010895F894FFCFF5
:1021AC00010000003F065B4F666D7D077F6F0000EE
:1021BC000003000000003A08720800000001000152
:1021CC0001010001010100000101010100010401F4
:1021DC0000000104000200000000040100000000E7
:1021EC0000000000000000000000000001000200E0
:1021FC0000000001000002000002000101000000CC
:10220C0001000200000000000000000000000000BF
:10221C0000000400000000000000000000000001AD
:10222C000101010101040000000000010101000096
:10223C00000000000101000001010101000001018A
:10224C00010100000101000000000001000001007C
:10225C00000100010100000000020000000001006C
:10226C000201010100000401000401010000010051
:10227C000000000400000201010100000101010145
:10228C000001000000000001000101000104020037
:10229C00000000020000000101000101010000002B
:1022AC000400000000000002040000000101010114
:1022BC00010101010101010101010101626F785F5E
:1022CC0077616C6C00626F785F626F78001B5B31BA
:1022DC0030306D2020201B5B306D001B5B313033A8
:1022EC006D2020201B5B306D001B5B34336D202078
:1022FC00201B5B306D001B5B34316D2020201B5B81
:10230C00306D001B5B3130326D2020201B5B306D3B
:10231C00004C6576656C3A2025640053636F7265DA
:10232C003A202564002573002E2F292B2C2A2D3AB8
:06233C00302820170F06F7
:00000001FF
