S015000041565241737369676E6D656E742E737265630D
S11300000C9492010C94AF010C94AF010C94AF01C9
S11300100C94AF010C94F2010C94AF010C94AF0159
S11300200C94AF010C94AF010C94AF010C94AF018C
S11300300C94AF010C94AF010C94AF010C94AF017C
S11300400C944B090C94AF010C94AF010C94AF01C8
S11300500C9444060C9402060C94AF010C94AF016A
S11300600C94AF010C94AF010C94AF010C94AF014C
S11300700C94AF010C94AF010C94AF0143616E6E0C
S11300806F7420737461636B20626F7865730043CF
S1130090616E6E6F74207075736820626F78206F64
S11300A06E746F2077616C6C0054686572652069AA
S11300B07320612077616C6C20696E207468652000
S11300C07761790057616C6C2068697400506C61C9
S11300D07965722068697420612077616C6C0050C6
S11300E072657373202772272F27522720746F207D
S11300F0726573746172742C206F72202765272FC8
S113010027452720746F20657869740047414D4561
S1130110204F5645520043535345323031302F3728
S11301203230312050726F6A6563742062792052D4
S1130130696C65792053746577617274202D20345D
S1130140383832383636320060381F3F3F637EFE1F
S113015060BCB1B16166C3C060B63FBF617CC3FE21
S113016060B3B1B16166C306E0B1313F3F637EFE67
S1130170F0F000F0F0F0F000F00000F00000F0000B
S1130180F00000F00000F000F0F0F0F000F0F000FB
S11301900000000000000000F0F0F0F0F0000000AB
S11301A0F0000000F0000000F0000000F00000008B
S11301B0F0F0F0F0F000000000000000000000008B
S11301C0F0F0F0F0F0F0F000000000F000000000AB
S11301D00000F000F0000000F0F0000000F000006B
S11301E00000000000000000F0F0F0F0F00000005B
S11301F0F0000000F0000000F0000000F00000003B
S1130200F0F0F0F0F000000000000000000000003A
S1130210F0F0F0F0F0F0F000F00000F0000000006A
S1130220F00000F000000000F0F0F0F0000000002A
S11302300000000000000000F0F0F000F0000000FA
S1130240F000F000F0000000F000F000F00000000A
S1130250F0F0F0F0F00000000000000000000000EA
S1130260F0F0F0F0F000000000000000F0000000EA
S113027000000000F0000000F0F0F0F0F0000000DA
S1130280000000000000000000000000000000006A
S11302903C3C3C3C3C3C00003C3C00003C3C000002
S11302A03C003C3C003C00003C003C3C003C00006A
S11302B03C3C00003C3C00003C3C3C3C3C3C0000E2
S11302C000000010001000001000001000100000DA
S11302D0001000001000101000001010001010108A
S11302E000100000000010101000000000000000CA
S11302F000000000000000000000000000000000FA
S11303001B5B3F32356C001B5B25646D001B5B4B34
S1130310001B5B324A001B5B306D001B5B25643B9A
S11303202564480011241FBECFEFD8E0DEBFCDBF47
S113033011E0A0E0B1E0E2EAFBE102C005900D9219
S1130340A23BB107D9F723E0A2EBB1E001C01D92B3
S1130350A636B207E1F70E946D050C94CF0D0C94FC
S113036000001092B2011092B701E8E6F0E080813B
S1130370826080838BB382608BBBECE6F0E080818B
S11303808F60808308958091B2018823F9F0809171
S1130390B3015FB75078F89491E00BC0292F30E097
S11303A0F901ED54FE4F4081F901EE54FE4F4083B4
S11303B09F5F2091B201921788F39091B2019150FE
S11303C09093B201552319F0789408958FEF08950E
S11303D08FB7F8941092B2011092B70188230CF4ED
S11303E0789408951F920F920FB60F9211242F93B1
S11303F03F934F938F939F93EF93FF9343B14F702A
S113040080E024C09091B2019430F8F4242F30E0BD
S1130410082E02C0359527950A94E2F720FF15C0EF
S11304202091B70130E0082E02C0359527950A9433
S1130430E2F720FD0AC0E091B20191E09E0F909393
S1130440B201F0E0ED54FE4F80838F5F8430D0F230
S11304504093B701FF91EF919F918F914F913F91FD
S11304602F910F900FBE0F901F90189590E1899FC8
S1130470F0011124E554FE4FE60FF11D90819770B1
S1130480923099F028F4992341F0913051F0089575
S1130490943079F0963089F0089540E00E94340455
S11304A008954FEF0E94340408954CE30E943404ED
S11304B008954FE00E943404089540EF0E943404EC
S11304C00895CF93DF9385E08093BA0182E080930F
S11304D0B9011092B801A0E027C08A2F90E027E06C
S11304E030E0281B390B462F50E0FC01E295F295D1
S11304F0F07FFE27E07FFE27ED5DFE4FE40FF51F42
S11305007081C90182959295907F9827807F982762
S113051085549E4FFC01E40FF51F70836F5F01C08B
S113052060E06031D0F2AF5FA830D0F3D0E00AC011
S11305306C2F8D2F0E943602CF5F01C0C0E0C03106
S1130540B8F3DF5FD830D0F3DF91CF910895909165
S1130550B80181E089278093B801882341F040E104
S11305606091B9018091BA010E94340408956091A8
S1130570B9018091BA010E9436020895CF93DF93A6
S1130580EC0166E171E00E94870A892B89F50E94DB
S1130590660A63E070E00E947809EC01219661E04C
S11305A070E08EE190E00E94E008C130D10549F48A
S11305B08DEC90E09F938F930E940A0B0F900F9005
S11305C042C0C230D10549F484EC90E09F938F93EC
S11305D00E940A0B0F900F9036C02397A1F589EA69
S11305E090E09F938F930E940A0B0F900F902BC063
S11305F062E171E0CE010E94870A892B79F461E0FF
S113060070E08EE190E00E94E0088FE890E09F9314
S11306108F930E940A0B0F900F9015C06BE171E04D
S1130620CE010E94870A892B71F461E070E08EE1AB
S113063090E00E94E0088CE790E09F938F930E94E3
S11306400A0B0F900F90DF91CF9108958F929F9294
S1130650AF92BF92CF92DF92EF92FF920F931F93CC
S1130660CF93DF93262F9091BA01482F880F550B13
S1130670FA01E90FF11DE770F078FF2324F43197B4
S1130680E86FFF6F31968F01DE2F6091B901022E62
S1130690000C330BF901E60FF11DEF70F078FF2326
S11306A024F43197E06FFF6F31966F019E2E11276E
S11306B0400F511F47705078552334F4415051096D
S11306C0486F5F6F4F5F5F4F7A01842EDD242C0DDE
S11306D03D1D2F703078332334F421503109206FBD
S11306E03F6F2F5F3F4F5901C22F892F0E9436025F
S11306F060E070E08EE190E00E94E0080E9406094C
S1130700F801E295F295F07FFE27E07FFE27E5549D
S1130710FE4FEC0DFD1D8081813029F486E191E0CE
S11307200E94BE028EC0863021F502951295107F7C
S11307301027007F102705541E4FF801EC0DFD1DF6
S113074084E08083692D8D2F0E943602F701FF27F4
S1130750E295F295F07FFE27E07FFE27E554FE4FF9
S1130760EA0DF11D82E080836A2D882D0E943602F5
S11307705EC0823009F05BC0FF24BB24F701E29520
S1130780F295F07FFE27E07FFE27E554FE4FEA0D49
S1130790FB1D8081813029F482E191E00E94BE0238
S11307A050C0823029F48BE191E00E94BE0249C01E
S11307B002951295107F1027007F102705541E4FB5
S11307C0F801EC0DFD1D1082F701E295F295F07F22
S11307D0FE27E07FFE27E554FE4FEA0DFB1D8081D6
S11307E0843099F4C70182959295907F9827807FF1
S11307F0982785549E4FFC01EA0DFB1D86E08083FB
S11308006C2F882D0E94360212C0C70182959295E2
S1130810907F9827807F982785549E4FFC01EA0D8E
S1130820FB1D82E080836C2F882D0E943602D093BA
S1130830BA019092B901692D8D2F0E9436020E944F
S1130840A702DF91CF911F910F91FF90EF90DF905E
S1130850CF90BF90AF909F908F90089580E00895BF
S113086080E80E94EA0608951F93CF93DF936031D6
S1130870B0F48830A0F4142FD62FC82F81E00E9442
S113088016078C2F877020E1829FC00111246D2FE1
S11308906F70862B0E941607812F0E941607DF9126
S11308A0CF911F9108950F931F93CF938031A0F49C
S11308B08B01C82F83E00E9416078C2F8F700E9433
S11308C01607C0E007C0F801EC0FF11D80810E94FB
S11308D01607CF5FC830B8F3CF911F910F910895D9
S11308E084E00E94160782E00E94160708958FE0B4
S11308F00E94160708950E9430040E94B10140E04E
S113090060E07BE480E090E00E9497060E94250965
S11309100E9470090E947509789408950E941C0928
S11309200E94F4080E94FD0865E083E00E94BA0872
S113093065E070E08BE090E00E94E00886E191E0E1
S11309409F938F930E940A0B0E9405080E94E8015E
S11309500F900F900E94C3018F3F99F40E94DE060E
S1130960882361F080916003909161030E94900A52
S11309708337910531F08335910519F00E940F08F2
S1130980E9CF08950E941C090E94FD080E9461029B
S11309900E94E8010E94E50608958F929F92AF920B
S11309A0BF92CF92DF92EF92FF92CF930E943B09C6
S11309B04B015C015CC00E94C301C82F0E94DE068B
S11309C0882339F080916003909161030E94900A1A
S11309D002C08FEF9FEFCC2329F00E94760A843661
S11309E0910549F461E080E00E9426030E943B09DE
S11309F04B015C0129C0C13019F08337910549F4DA
S1130A0060E08FEF0E9426030E943B094B015C01CA
S1130A101BC0C23019F08737910549F460E081E0CA
S1130A200E9426030E943B094B015C010DC0C330A8
S1130A3019F08136910541F46FEF80E00E9426039E
S1130A400E943B094B015C010E943B096B017C0144
S1130A50D501C40188539F4FAF4FBF4FC816D90665
S1130A60EA06FB0620F00E94A702460157010E94F5
S1130A702E04882309F49FCFCF91FF90EF90DF904D
S1130A80CF90BF90AF909F908F9008956AE070E0F0
S1130A908EE090E00E94E0088CE091E09F938F93B9
S1130AA00E940A0B6AE070E08FE090E00E94E00888
S1130AB08FED90E09F938F930E940A0B0F900F90FD
S1130AC00F900F900E94DE068823E1F3809160036B
S1130AD0909161030E94900AF5CF0E943B09CB01DB
S1130AE00E946B0A0E947B040E948E040E94C2042E
S1130AF00E94CD040E944605CF93C82F8A3019F472
S1130B008DE00E947C059FB7907802C0992329F15B
S1130B1080914D028F3FD1F3F894E0914C0281E033
S1130B208E0F80934C02F0E0E25BFD4FC083809116
S1130B304D028F5F80934D0280914C028F3F11F4E0
S1130B4010924C02E1ECF0E0808180628083992372
S1130B5039F0789480E090E005C081E090E002C034
S1130B6080E090E0CF91089580915F038823E1F3C2
S1130B702FB72078F89480914D0330915F0390E073
S1130B80831B91095AF4E0914D0380915F03F0E0D7
S1130B90E81BF109E25AFC4F80810AC0E0914D0341
S1130BA080915F03F0E0E81BF109E25BFC4F808178
S1130BB090915F03915090935F03222309F07894FE
S1130BC090913C029B31B1F490913B029B3591F49E
S1130BD0823449F018F4813461F00CC0833429F074
S1130BE0843429F007C083E705C084E603C081E6A6
S1130BF001C087E790913B0290933C0280933B02B3
S1130C0090E008951F920F920FB60F9211242F9324
S1130C108F939F93EF93FF9380914D02882329F143
S1130C2080914C0220914D0290E0821B91095AF46C
S1130C30E0914C0280914D02F0E0E81BF109E35B86
S1130C40FC4F90810AC0E0914C0280914D02F0E08B
S1130C50E81BF109E25BFD4F908180914D028150C8
S1130C6080934D029093C60005C0E1ECF0E08081D2
S1130C708F7D8083FF91EF919F918F912F910F90A2
S1130C800FBE0F901F9018951F920F920FB60F92E0
S1130C9011242F933F934F935F936F937F938F937D
S1130CA09F93AF93BF93CF93EF93FF93C091C600ED
S1130CB080913D02882349F080914D028F3F29F0B5
S1130CC060E070E08C2F0E947C0580915F0380318E
S1130CD020F081E080935E0318C0CD3009F4CAE0AF
S1130CE0E0914D0381E08E0F80934D03F0E0E25BD1
S1130CF0FC4FC08380915F038F5F80935F0380917B
S1130D004D03803111F410924D03FF91EF91CF9177
S1130D10BF91AF919F918F917F916F915F914F910F
S1130D203F912F910F900FBE0F901F901895109226
S1130D304C0210924D0210924D0310925F031092D8
S1130D405E0340933D02DC01CB01880F991FAA1F6B
S1130D50BB1F880F991FAA1FBB1F9C01AD01220F47
S1130D60331F441F551F60E072E18AE790E00E9440
S1130D708C09BA01A9014F5F5F4F6F4F7F4FDB01B1
S1130D80CA011AF40196A11DB11DB595A7959795B1
S1130D90879501979093C5008093C400E1ECF0E03F
S1130DA088E18083808180688083E0E6F3E084E0EA
S1130DB091E09383828391838083089590915F036C
S1130DC081E0911101C080E0089510924D031092CA
S1130DD05F03089594B1906B94B995B1906195B9FE
S1130DE090E59CBD883021F0803211F0823019F4F6
S1130DF091E09DBD01C01DBC803269F028F48830AB
S1130E0071F0803161F00EC0803429F0803851F4E3
S1130E108CB581608CBD8CB582608CBD03C08CB5F3
S1130E2081608CBD85B18F7E85B908958EBD0DB46A
S1130E3007FEFDCF8EB508951F93CF93DF93CDB7F3
S1130E40DEB728970FB6F894DEBF0FBECDBF10E013
S1130E5017C0612F70E0660F771F660F771F660F4C
S1130E60771F60597E4F48E050E0CE0101960E9402
S1130E707E0ABE016F5F7F4F812F0E9453041F5F64
S1130E80103138F328960FB6F894DEBF0FBECDBFED
S1130E90DF91CF911F910895CF93DF93CDB7DEB744
S1130EA028970FB6F894DEBF0FBECDBF0E94700422
S1130EB060913E0270E0660F771F660F771F660F22
S1130EC0771F60597E4F48E050E0CE0101960E94A2
S1130ED07E0ABE016F5F7F4F8FE00E9453044091F2
S1130EE03E0250E04F5F5F4F9A0136952795ABE77E
S1130EF0B4E10E94AB099695879562E3689F9001DF
S1130F00699F300D1124CA01821B930B80933E020A
S1130F10803129F4809147028160809347022896AA
S1130F200FB6F894DEBF0FBECDBFDF91CF91089509
S1130F30EF92FF920F931F93CF93DF93CDB7DEB75A
S1130F4028970FB6F894DEBF0FBECDBFF62EE42E61
S1130F50682F70E0660F771F660F771F660F771F85
S1130F60685B7E4F48E050E0CE0101960E947E0A05
S1130F700FE310E00F19110929813A814B815C813B
S1130F806D817E818F8198850E94BC09217030E03B
S1130F9040E050E060E070E080E090E0A0E00E947B
S1130FA0D809C1F0E1101BC010E00FC0812F90E000
S1130FB0FC01E655FE4F20812F1530F0FC01ED5564
S1130FC0FE4F80810E940F091F5F173078F3EE24D3
S1130FD0E39405C0EE2019F00E94F408E12C60911E
S1130FE062037091630380E290E00E94CE0A8E2D2A
S1130FF028960FB6F894DEBF0FBECDBFDF91CF9118
S11310001F910F91FF90EF9008950E9477040E9422
S11310101C07809147028160809347020895CF9214
S1131020DF92EF92FF920E943B096B017C01809159
S1131030470280FF16C0C0924302D0924402E0925D
S11310404502F0924602C0923F02D0924002E092E2
S11310504102F092420290E190933E02887F809395
S1131060470280913E02803109F064C080914302BE
S113107090914402A0914502B0914602AC01BD0199
S11310804053584F6F4F7F4F4C155D056E057F05DC
S113109058F40E944C07C0923F02D0924002E09262
S11310A04102F092420261C020914702322F327015
S11310B021FD19C088519C4FAF4FBF4F8C159D0522
S11310C0AE05BF0580F40E941C0780914702826030
S11310D080934702C0923F02D0924002E0924102C4
S11310E0F092420242C0311140C080913F0290917F
S11310F04002A0914102B09142028C599F4FAF4FE0
S1131100BF4F8C159D05AE05BF0578F584E02827F3
S11311102093470222FF03C00E94770402C00E946A
S11311201C07C0923F02D0924002E0924102F0922A
S113113042021BC080913F0290914002A091410263
S1131140B091420288539F4FAF4FBF4F8C159D05FE
S1131150AE05BF0550F40E944C07C0923F02D092E6
S11311604002E0924102F0924202FF90EF90DF9041
S1131170CF900895FF920F931F93CF93DF93F82E90
S1131180062F10E0D0E014C0602F70E08F2D90E0A7
S1131190810F911D0E94E008C0E007C04D2F6C2F05
S11311A0812F0E949807D82FCF5FC034B8F31F5FF8
S11311B0153050F3DF91CF911F910F91FF90089557
S11311C06F5F7F4F7F936F9301969F938F938BE114
S11311D093E09F938F930E940A0B0F900F900F90B0
S11311E00F900F900F90089586E193E09F938F9353
S11311F00E940A0B0F900F90089581E193E09F9352
S11312008F930E940A0B0F900F9008958DE093E046
S11312109F938F930E940A0B0F900F9008951F9233
S11312208F9387E093E09F938F930E940A0B0F9014
S11312300F900F900F90089580E093E09F938F9309
S11312400E940A0B0F900F9008951092480210927A
S1131250490210924A0210924B0216BC8CE787BDD9
S113126092E094BD83E085BDEEE6F0E0808182608B
S1131270808395BB08958FB7282F2078F8946091C8
S113128048027091490280914A0290914B022223B4
S113129009F0789408951F920F920FB60F921124BB
S11312A08F939F93AF93BF9380914802909149028B
S11312B0A0914A02B0914B020196A11DB11D8093E9
S11312C0480290934902A0934A02B0934B02BF9103
S11312D0AF919F918F910F900FBE0F901F90189513
S11312E0109285001092840008951092B20008951F
S11312F097FB072E16F4009407D077FD09D00E94BF
S1131300E40907FC05D03EF4909581959F4F08951C
S1131310709561957F4F0895052E97FB1EF40094F8
S11313200E94A30957FD07D00E94F80907FC03D0C7
S11313304EF40C94A30950954095309521953F4F58
S11313404F4F5F4F089590958095709561957F4FAD
S11313508F4F9F4F0895A29FB001B39FC001A39FD9
S1131360700D811D1124911DB29F700D811D1124DA
S1131370911D089597FB10F8169400080F930830F8
S113138098F00850232F342F452F562F672F782F8E
S1131390892F902DF4CF0594979587957795679528
S11313A057954795379527950A95AAF70F9108956C
S11313B00024A7FD00942A17300540055005600558
S11313C07005800590050895AA1BBB1B51E107C059
S11313D0AA1FBB1FA617B70710F0A61BB70B881FC1
S11313E0991F5A95A9F780959095BC01CD01089550
S11313F0A1E21A2EAA1BBB1BFD010DC0AA1FBB1F15
S1131400EE1FFF1FA217B307E407F50720F0A21B86
S1131410B30BE40BF50B661F771F881F991F1A94F3
S113142069F760957095809590959B01AC01BD011D
S1131430CF0108958F929F92AF92BF92CF92DF9285
S1131440EF92FF92CF93DF93EC01688179818A81D7
S11314509B81611571058105910521F464E279EDA3
S11314608BE597E02DE133EF41E050E00E948C09D9
S113147049015A019B01AC01A7EAB1E40E94850D20
S11314806B017C01ACEEB4EFA50194010E94930DB5
S1131490DC01CB018C0D9D1DAE1DBF1DB7FF03C02C
S11314A00197A109B04888839983AA83BB839F7756
S11314B0DF91CF91FF90EF90DF90CF90BF90AF90EE
S11314C09F908F9008950E941A0A089580E091E0F9
S11314D00E941A0A0895A0E0B0E08093000190935E
S11314E00101A0930201B09303010895911108959D
S11314F081548A5108F4805E855A0895FB01DC0109
S113150002C005900D9241505040D8F70895FB0158
S1131510DC018D91019080190110D9F3990B089584
S1131520CF93DF93EC012B8120FF33C026FF0AC049
S11315302F7B2B838E819F8101969F838E838A814B
S113154090E029C022FF0FC0E881F9818081082E34
S1131550000C990B009719F420622B831AC0319662
S1131560F983E8830EC0EA85FB85099597FF09C0D6
S11315702B81019611F080E201C080E1822B8B83E4
S113158008C02E813F812F5F3F4F3F832E839927D1
S113159002C08FEF9FEFDF91CF9108950F931F93B8
S11315A0CF93DF93FB01238121FD03C08FEF9FEFD6
S11315B02CC022FF16C046815781248135814217F1
S11315C0530744F4A081B1819D012F5F3F4F3183C4
S11315D020838C93268137812F5F3F4F3783268367
S11315E014C08B01EC01FB010084F185E02D099509
S11315F0892BE1F6D80116968D919C911797019647
S113160017969C938E931697CE01DF91CF911F91DD
S11316100F910895A0E0B0E0E0E1FBE00C94A60D8A
S1131620AE01495F5F4FDA016D917D91AD0100E636
S113163013E0F80182819381DC0113962C911397B6
S1131640286013962C930E94300BD8011296ED91CA
S1131650FC9113972381277F2383E4E00C94C20D2C
S1131660ABE0B0E0E6E3FBE00C94980D6C017B0189
S11316708A01FC0117821682838181FFCCC1CE01CD
S113168001963C01F6019381F70193FD859193FF47
S113169081917F01882309F4BAC1853239F493FD1D
S11316A0859193FF81917F01853229F4B60190E001
S11316B00E94CE0AE7CF912C212C312CFFE1F315A7
S11316C0D8F08B3279F038F4803279F08332A1F497
S11316D0232D20611DC08D3261F0803369F4232DE8
S11316E0216016C0832D8260382EE32DE4603E2EE7
S11316F02AC0F32DF8601DC037FC2DC020ED280F43
S11317002A3040F08E32B9F436FC81C1232D206496
S1131710322E19C036FE06C08AE0989E200D112490
S1131720922E11C0EAE02E9E200D1124222EF32DBC
S1131730F0623F2E08C08C3621F4832D8068382E49
S113174002C0883641F4F70193FD859193FF81919E
S11317507F018111B3CF982F9F7D9554933028F446
S11317600C5F1F4F9FE399830DC0833631F083379D
S113177071F0833509F059C021C0F8018081898353
S11317800E5F1F4F88248394912C530113C02801AA
S1131790F2E04F0E511CF801A080B18036FE03C068
S11317A0692D70E002C06FEF7FEFC5010E941C0D30
S11317B04C018201F32DFF773F2E16C0280122E051
S11317C0420E511CF801A080B18036FE03C0692D81
S11317D070E002C06FEF7FEFC5010E94110D4C0154
S11317E0F32DF0683F2E820133FC1BC0822D90E064
S11317F088169906B0F4B60180E290E00E94CE0A01
S11318002A94F4CFF50137FC859137FE81915F016D
S1131810B60190E00E94CE0A21102A9421E0821A97
S113182091088114910471F7E8C0843611F0893667
S113183041F5F80137FE07C060817181828193818F
S11318400C5F1F4F08C060817181072E000C880B4C
S1131850990B0E5F1F4FF32DFF763F2E97FF09C0A4
S113186090958095709561957F4F8F4F9F4FF0684D
S11318703F2E2AE030E0A3010E94270D882E86180F
S113188045C0853731F4232D2F7EB22E2AE030E077
S113189025C0932D997FB92E8F36C1F018F4883561
S11318A079F0B5C0803719F0883721F0B0C0E92F3E
S11318B0E061BE2EB4FE0DC0FB2DF460BF2E09C046
S11318C034FE0AC0292F2660B22E06C028E030E07C
S11318D005C020E130E002C020E132E0F801B7FEAB
S11318E007C060817181828193810C5F1F4F06C0A4
S11318F06081718180E090E00E5F1F4FA3010E9420
S1131900270D882E8618FB2DFF773F2E36FE0DC03F
S1131910232D2E7FA22E891458F434FE0BC032FCE2
S113192009C0832D8E7EA82E05C0B82CA32C03C01D
S1131930B82C01C0B92CA4FE0FC0FE01E80DF11DA6
S11319408081803321F49A2D997EA92E09C0A2FEAC
S113195006C0B394B39404C08A2D867809F0B39476
S1131960A3FC11C0A0FE06C0B21488F4280C922C6B
S11319709B180EC0B21460F4B60180E290E00E949D
S1131980CE0AB394F7CFB21418F42B1802C0982CD3
S1131990212CA4FE10C0B60180E390E00E94CE0A80
S11319A0A2FE17C0A1FC03C088E790E002C088E54E
S11319B090E0B6010CC08A2D867859F0A1FE02C0D1
S11319C08BE201C080E2A7FC8DE2B60190E00E94A8
S11319D0CE0A891438F4B60180E390E00E94CE0A5E
S11319E09A94F7CF8A94F301E80DF11D8081B60132
S11319F090E00E94CE0A8110F5CF222009F442CE55
S1131A00B60180E290E00E94CE0A2A94F6CFF60155
S1131A108681978102C08FEF9FEF2B96E2E10C94B1
S1131A20B40DFC010590615070400110D8F7809509
S1131A3090958E0F9F1F0895FC0161507040019096
S1131A400110D8F7809590958E0F9F1F0895FA0185
S1131A50AA27283051F1203181F1E8946F936E7FE9
S1131A606E5F7F4F8F4F9F4FAF4FB1E03ED0B4E0DA
S1131A703CD0670F781F891F9A1FA11D680F791F1B
S1131A808A1F911DA11D6A0F711D811D911DA11D2C
S1131A9020D009F468943F912AE0269F112430193C
S1131AA0305D3193DEF6CF010895462F4770405DD7
S1131AB04193B3E00FD0C9F7F6CF462F4F70405D86
S1131AC04A3318F0495D31FD4052419302D0A9F7E1
S1131AD0EACFB4E0A6959795879577956795BA95DB
S1131AE0C9F700976105710508959B01AC010A2EA1
S1131AF006945795479537952795BA95C9F7620F78
S1131B00731F841F951FA01D08950E94AB09A59FF4
S1131B10900DB49F900DA49F800D911D11240895E4
S1131B20B7FF0C94850D0E94850D821B930B0895BD
S1131B302F923F924F925F926F927F928F929F92D9
S1131B40AF92BF92CF92DF92EF92FF920F931F93C7
S1131B50CF93DF93CDB7DEB7CA1BDB0B0FB6F89478
S1131B60DEBF0FBECDBF09942A88398848885F84B8
S1131B706E847D848C849B84AA84B984C884DF8029
S1131B80EE80FD800C811B81AA81B981CE0FD11D0D
S1131B900FB6F894DEBF0FBECDBFED010895F894E3
S1051BA0FFCF71
S1131BA20100000000000003000000007C05B405F1
S1131BB20000626F785F77616C6C00626F785F62BD
S1131BC26F78000001000101010001010100000120
S1131BD201010100010401000001040002000000EF
S1131BE200040100000000000000000000000000EA
S1131BF200000001000200000000010000020000D9
S1131C0202000101000000010002000000000000C7
S1131C1200000000000000000004000000000000BA
S1131C2200000000000001010101010104000000A4
S1131C320000010101000000000000010100000198
S1131C420101012E2F292B2C2A2D3A302820170F7F
S1051C52060086
S9030000FC
