:100000000C9492010C94AF010C94AF010C94AF01CD
:100010000C94AF010C94F2010C94AF010C94AF015D
:100020000C94AF010C94AF010C94AF010C94AF0190
:100030000C94AF010C94AF010C94AF010C94AF0180
:100040000C94AA0A0C94AF010C94AF010C94AF016C
:100050000C94A3070C9461070C94AF010C94AF01AE
:100060000C94AF010C94AF010C94AF010C94AF0150
:100070000C94AF010C94AF010C94AF0143616E6E10
:100080006F7420737461636B20626F7865730043D3
:10009000616E6E6F74207075736820626F78206F68
:1000A0006E746F2077616C6C0054686572652069AE
:1000B0007320612077616C6C20696E207468652004
:1000C0007761790057616C6C2068697400506C61CD
:1000D0007965722068697420612077616C6C0050CA
:1000E00072657373202772272F27522720746F2081
:1000F000726573746172742C206F72202765272FCC
:1001000027452720746F20657869740047414D4565
:10011000204F5645520043535345323031302F372C
:100120003230312050726F6A6563742062792052D8
:10013000696C65792053746577617274202D203461
:10014000383832383636320060381F3F3F637EFE23
:1001500060BCB1B16166C3C060B63FBF617CC3FE25
:1001600060B3B1B16166C306E0B1313F3F637EFE6B
:10017000F0F000F0F0F0F000F00000F00000F0000F
:10018000F00000F00000F000F0F0F0F000F0F000FF
:100190000000000000000000F0F0F0F0F0000000AF
:1001A000F0000000F0000000F0000000F00000008F
:1001B000F0F0F0F0F000000000000000000000008F
:1001C000F0F0F0F0F0F0F000000000F000000000AF
:1001D0000000F000F0000000F0F0000000F000006F
:1001E0000000000000000000F0F0F0F0F00000005F
:1001F000F0000000F0000000F0000000F00000003F
:10020000F0F0F0F0F000000000000000000000003E
:10021000F0F0F0F0F0F0F000F00000F0000000006E
:10022000F00000F000000000F0F0F0F0000000002E
:100230000000000000000000F0F0F000F0000000FE
:10024000F000F000F0000000F000F000F00000000E
:10025000F0F0F0F0F00000000000000000000000EE
:10026000F0F0F0F0F000000000000000F0000000EE
:1002700000000000F0000000F0F0F0F0F0000000DE
:10028000000000000000000000000000000000006E
:100290003C3C3C3C3C3C00003C3C00003C3C000006
:1002A0003C003C3C003C00003C003C3C003C00006E
:1002B0003C3C00003C3C00003C3C3C3C3C3C0000E6
:1002C00000000010001000001000001000100000DE
:1002D000001000001000101000001010001010108E
:1002E00000100000000010101000000000000000CE
:1002F00000000000000000000000000000000000FE
:100300001B5B3F32356C001B5B25646D001B5B4B38
:10031000001B5B324A001B5B306D001B5B25643B9E
:100320002564480011241FBECFEFD8E0DEBFCDBF4B
:1003300012E0A0E0B1E0EEEDFEE102C005900D920A
:10034000A630B107D9F723E0A6E0B2E001C01D92C4
:10035000AB3BB207E1F70E94CE060C946D0F0C94F4
:1003600000001092060210920B02E8E6F0E0808195
:10037000826080838BB382608BBBECE6F0E080818F
:100380008F6080830895809106028823F9F0809120
:1003900007025FB75078F89491E00BC0292F30E046
:1003A000F901E95FFD4F4081F901EA5FFD4F4083AC
:1003B0009F5F20910602921788F390910602915058
:1003C00090930602552319F0789408958FEF0895BD
:1003D0008FB7F8941092060210920B0288230CF447
:1003E000789408951F920F920FB60F9211242F93B5
:1003F0003F934F938F939F93EF93FF9343B14F702E
:1004000080E024C0909106029430F8F4242F30E06C
:10041000082E02C0359527950A94E2F720FF15C0F3
:1004200020910B0230E0082E02C0359527950A94E2
:10043000E2F720FD0AC0E091060291E09E0F909342
:100440000602F0E0E95FFD4F80838F5F8430D0F2D9
:1004500040930B02FF91EF919F918F914F913F91AC
:100460002F910F900FBE0F901F90189590E1899FCC
:10047000F0011124E15FFD4FE60FF11D90819770AF
:10048000923099F028F4992341F0913051F0089579
:10049000943079F0963089F0089540E00E94FF048E
:1004A00008954FEF0E94FF0408954CE30E94FF045B
:1004B00008954FE00E94FF04089540EF0E94FF045A
:1004C000089590910C0281E0892780930C02882383
:1004D00041F040E160910D0280910E020E94FF0404
:1004E000089560910D0280910E020E9436020895D7
:1004F000CF93DF93EC0160E271E00E94E60B892B61
:1005000089F50E94C50B63E070E00E94D70AEC01F8
:10051000219661E070E084E190E00E943F0AC130E2
:10052000D10549F48DEC90E09F938F930E947F0C4E
:100530000F900F9042C0C230D10549F484EC90E096
:100540009F938F930E947F0C0F900F9036C023973C
:10055000A1F589EA90E09F938F930E947F0C0F9002
:100560000F902BC06CE171E0CE010E94E60B892B4D
:1005700079F461E070E084E190E00E943F0A8FE846
:1005800090E09F938F930E947F0C0F900F9015C067
:1005900065E271E0CE010E94E60B892B71F461E007
:1005A00070E084E190E00E943F0A8CE790E09F9326
:1005B0008F930E947F0C0F900F90DF91CF91089541
:1005C00040E050E017C0FA01E295F295F07FFE2777
:1005D000E07FFE27E15FFD4FE80FF91F2081243007
:1005E00071F0019602C080E090E0803191055CF3EB
:1005F0004F5F5F4F48305105B4F381E0089580E0CC
:1006000008959B010E94D70A820F931FB9010E948F
:10061000D70A08950F931F93CF93DF938C01CB01DB
:10062000BA010E943F0A0E94650AC1E0D0E043C0BF
:10063000F801E295F295F07FFE27E07FFE27E15F6B
:10064000FD4FEC0FFD1F8081811109C08DE291E00B
:100650009F938F930E94690C0F900F902BC0813055
:1006600049F48BE391E09F938F930E94690C0F9064
:100670000F9020C0823049F489E491E09F938F93DA
:100680000E94690C0F900F9015C0843049F486E5E4
:1006900091E09F938F930E94690C0F900F900AC076
:1006A000863041F483E691E09F938F930E94690C1A
:1006B0000F900F902196C031D1050CF4B9CFDF9186
:1006C000CF911F910F910895AF92BF92CF92DF9279
:1006D000EF92FF920F931F93CF93DF93C62EB090AC
:1006E0000E02E82E880FFF0868E070E0C7018B0D4E
:1006F000911D0E940103EC01A0900D020C2C000C36
:10070000DD0860E170E0C6018A0D911D0E940103C1
:100710008C0168E070E0C7018C0F9D1F0E940103EF
:100720007C0160E170E0C601800F911F0E9401030F
:100730006C016A2D8B2D0E94360260E070E084E12E
:1007400090E00E943F0A0E94650AFE01E295F29540
:10075000F07FFE27E07FFE27E15FFD4FE00FF11FF6
:100760008081813031F480E291E00E94780280E063
:10077000D2C0863009F04BC0F701E295F295F07FC8
:10078000FE27E07FFE27E15FFD4FEC0DFD1D808120
:10079000813031F48CE191E00E94780280E0BBC0AE
:1007A000FE01E295F295F07FFE27E07FFE27E15FF4
:1007B000FD4FE00FF11F84E08083602F8C2F0E949B
:1007C00036026894AA24A3F8B12CB5016C1B7D0BEA
:1007D00041E050E0CE010E940A03F701E295F29554
:1007E000F07FFE27E07FFE27E15FFD4FEC0DFD1D52
:1007F00082E080836C2D8E2D0E943602B5016E1929
:100800007F0941E050E0C7010E940A036EC08230B8
:1008100009F06BC0F701E295F295F07FFE27E07FCB
:10082000FE27E15FFD4FEC0DFD1D8081813031F42D
:100830008CE191E00E94780280E06DC0823031F45A
:1008400085E291E00E94780280E065C0FE01E295B9
:10085000F295F07FFE27E07FFE27E15FFD4FE00F7E
:10086000F11F1082F701E295F295F07FFE27E07FFD
:10087000FE27E15FFD4FEC0DFD1D80818430D9F432
:10088000F701E295F295F07FFE27E07FFE27E15F1A
:10089000FD4FEC0DFD1D86E080836C2D8E2D0E949A
:1008A000360268E070E06E197F0941E050E0C70150
:1008B0000E940A031AC0F701E295F295F07FFE2725
:1008C000E07FFE27E15FFD4FEC0DFD1D82E08083A0
:1008D0006C2D8E2D0E94360268E070E06E197F0943
:1008E00041E050E0C7010E940A038C2FC0930E0222
:1008F00000930D02602F0E94360280910E0290E05C
:1009000068E070E0681B790B41E050E00E940A0348
:100910000E94610281E0DF91CF911F910F91FF90C2
:10092000EF90DF90CF90BF90AF9008950F931F93FB
:10093000CF93DF93C7E0D0E001E010E00DC041E0CD
:1009400050E0B801CE010E940A038AE090E00E94C4
:10095000A50C0F5F1F4F2197DD238CF7DF91CF91FF
:100960001F910F910895CF93DF9385E080930E023E
:1009700082E080930D0210920C02A0E027C08A2F23
:1009800090E027E030E0281B390B462F50E0FC01B7
:10099000E295F295F07FFE27E07FFE27EF58FE4FAD
:1009A000E40FF51F7081C90182959295907F982779
:1009B000807F9827815F9D4FFC01E40FF51F7083B6
:1009C0006F5F01C060E06031D0F2AF5FA830D0F35C
:1009D000D0E00AC06C2F8D2F0E943602CF5F01C07D
:1009E000C0E0C031B8F3DF5FD830D0F30E94960486
:1009F000DF91CF91089580E80E94490808951F93E0
:100A0000CF93DF936031B0F48830A0F4142FD62F49
:100A1000C82F81E00E9475088C2F877020E1829F8B
:100A2000C00111246D2F6F70862B0E947508812FD5
:100A30000E947508DF91CF911F9108950F931F9326
:100A4000CF938031A0F48B01C82F83E00E947508FA
:100A50008C2F8F700E947508C0E007C0F801EC0F62
:100A6000F11D80810E947508CF5FC830B8F3CF9127
:100A70001F910F91089584E00E94750882E00E9402
:100A8000750808958FE00E94750808950E94FB0480
:100A90000E94B10140E060E07BE480E090E00E94D1
:100AA000F6070E94840A0E94CF0A0E94D40A789412
:100AB00008950E947B0A0E94530A0E945C0A65E026
:100AC00083E00E94190A65E070E08BE090E00E94EC
:100AD0003F0A86E191E09F938F930E947F0C0E94D2
:100AE00064090E94E8010F900F900E94C3018F3F9C
:100AF00099F40E943D08882361F08091B50390919C
:100B0000B6030E94EF0B8337910531F083359105D1
:100B100019F00E946E09E9CF08950E947B0A0E9495
:100B20005C0A0E94B3040E94E8010E9444081092EB
:100B3000A00208956AE070E08EE090E00E943F0A13
:100B40008CE091E09F938F930E947F0C6AE070E0AD
:100B50008FE090E00E943F0A8FED90E09F938F938B
:100B60000E947F0C0F900F900F900F900E943D08F5
:100B70008823E1F38091B5039091B6030E94EF0BB7
:100B8000F5CFCF93DF93CDB7DEB76E970FB6F8945E
:100B9000DEBF0FBECDBF8AE0E2E1F1E0DE011196DB
:100BA00001900D928A95E1F71092A0028FEF81B922
:100BB00081E087B90E949A0A4B015C0100E010E0D5
:100BC000F12CE5C00E94C301E82E0E943D08882355
:100BD00039F08091B5039091B6030E94EF0B02C0EB
:100BE0008FEF9FEFEE2029F00E94D50B8436910500
:100BF00081F461E080E00E946403882329F0809101
:100C0000A0028F5F8093A0020E949A0A4B015C01B0
:100C100041C021E0E21619F08337910581F460E0CC
:100C20008FEF0E946403882329F08091A0028F5FD8
:100C30008093A0020E949A0A4B015C012BC022E023
:100C4000E21619F08737910581F460E081E00E9497
:100C50006403882329F08091A0028F5F8093A00213
:100C60000E949A0A4B015C0115C023E0E21619F0BC
:100C70008136910579F46FEF80E00E946403882348
:100C800029F08091A0028F5F8093A0020E949A0AAF
:100C90004B015C010E949A0A2B013C01D501C40161
:100CA00088539F4FAF4FBF4F481659066A067B06C1
:100CB00020F00E94610253014201F11011C0209105
:100CC000A0028DEC289F812D11248695869586950E
:100CD000880F982F990F990F890F281B822F16C004
:100CE0009091A0028DEC989F912D11249695969548
:100CF0009695989F812D1124869586958695880FC7
:100D0000282F220F220F820F981B892FE1E0F0E09D
:100D1000EC0FFD1FE80FF11D808182B9F8B881E06A
:100D20008F19F82E0E949A0A28EE33E040E050E036
:100D30000E94EB0A672B682B692B49F561E070E094
:100D400086E190E00E943F0A1F930F9381EF91E0AC
:100D50009F938F933E018BE0680E711C7F926F9280
:100D60000E94AC0C7F926F9284EF91E09F938F93DF
:100D70000E94690C0F5F1F4F8FE19EE40197F1F70E
:100D800000C000000FB6F894DEBF0FBECDBF0E94BA
:100D9000E002882309F416CF0E949A050E949A0A5D
:100DA000CB010E94CA0B0E9446050E9459050E9471
:100DB0008D050E94C105CF93C82F8A3019F48DE0AC
:100DC0000E94DB069FB7907802C0992329F1809199
:100DD000A2028F3FD1F3F894E091A10281E08E0F3F
:100DE0008093A102F0E0ED55FD4FC0838091A202F7
:100DF0008F5F8093A2028091A1028F3F11F4109225
:100E0000A102E1ECF0E0808180628083992339F0D7
:100E1000789480E090E005C081E090E002C080E03E
:100E200090E0CF9108958091B4038823E1F32FB728
:100E30002078F8948091A2033091B40390E0831B52
:100E400091095AF4E091A2038091B403F0E0E81B09
:100E5000F109ED54FC4F80810AC0E091A20380911A
:100E6000B403F0E0E81BF109ED55FC4F808190914F
:100E7000B40391509093B403222309F07894909195
:100E800090029B31B1F490918F029B3591F48234A2
:100E900049F018F4813461F00CC0833429F08434B3
:100EA00029F007C083E705C084E603C081E601C0DE
:100EB00087E790918F029093900280938F0290E049
:100EC00008951F920F920FB60F9211242F938F93B4
:100ED0009F93EF93FF938091A202882329F1809141
:100EE000A1022091A20290E0821B91095AF4E091A4
:100EF000A1028091A202F0E0E81BF109EE55FC4F3F
:100F000090810AC0E091A1028091A202F0E0E81B6A
:100F1000F109ED55FD4F90818091A202815080939F
:100F2000A2029093C60005C0E1ECF0E080818F7DC5
:100F30008083FF91EF919F918F912F910F900FBE22
:100F40000F901F9018951F920F920FB60F921124B9
:100F50002F933F934F935F936F937F938F939F93C1
:100F6000AF93BF93CF93EF93FF93C091C60080914F
:100F70009102882349F08091A2028F3F29F060E01E
:100F800070E08C2F0E94DB068091B403803120F04A
:100F900081E08093B30318C0CD3009F4CAE0E0913A
:100FA000A20381E08E0F8093A203F0E0ED55FC4F89
:100FB000C0838091B4038F5F8093B4038091A203B8
:100FC000803111F41092A203FF91EF91CF91BF9164
:100FD000AF919F918F917F916F915F914F913F91D1
:100FE0002F910F900FBE0F901F9018951092A10295
:100FF0001092A2021092A2031092B4031092B303B3
:1010000040939102DC01CB01880F991FAA1FBB1FDF
:10101000880F991FAA1FBB1F9C01AD01220F331F10
:10102000441F551F60E072E18AE790E00E940D0BBB
:10103000BA01A9014F5F5F4F6F4F7F4FDB01CA01BC
:101040001AF40196A11DB11DB595A79597958795A1
:1010500001979093C5008093C400E1ECF0E088E133
:101060008083808180688083E5EBF3E084E091E019
:10107000938382839183808308959091B40381E068
:10108000911101C080E008951092A2031092B40360
:10109000089594B1906B94B995B1906195B990E52C
:1010A0009CBD883021F0803211F0823019F491E03B
:1010B0009DBD01C01DBC803269F028F4883071F0FC
:1010C000803161F00EC0803429F0803851F48CB545
:1010D00081608CBD8CB582608CBD03C08CB5816095
:1010E0008CBD85B18F7E85B908958EBD0DB407FE88
:1010F000FDCF8EB508951F93CF93DF93CDB7DEB7A5
:1011000028970FB6F894DEBF0FBECDBF10E017C012
:10111000612F70E0660F771F660F771F660F771FCE
:1011200060597E4F48E050E0CE0101960E94DD0BF1
:10113000BE016F5F7F4F812F0E941E051F5F103120
:1011400038F328960FB6F894DEBF0FBECDBFDF91FF
:10115000CF911F910895CF93DF93CDB7DEB7289736
:101160000FB6F894DEBF0FBECDBF0E943B05609165
:10117000920270E0660F771F660F771F660F771F6A
:1011800060597E4F48E050E0CE0101960E94DD0B91
:10119000BE016F5F7F4F8FE00E941E05409192025B
:1011A00050E04F5F5F4F9A0136952795ABE7B4E16A
:1011B0000E942C0B9695879562E3689F9001699F2A
:1011C000300D1124CA01821B930B8093920280314F
:1011D00029F480919B02816080939B0228960FB630
:1011E000F894DEBF0FBECDBFDF91CF910895EF928F
:1011F000FF920F931F93CF93DF93CDB7DEB728975E
:101200000FB6F894DEBF0FBECDBFF62EE42E682FCA
:1012100070E0660F771F660F771F660F771F685B9A
:101220007E4F48E050E0CE0101960E94DD0B0FE3B7
:1012300010E00F19110929813A814B815C816D8180
:101240007E818F8198850E943D0B217030E040E0C7
:1012500050E060E070E080E090E0A0E00E94590B78
:10126000C1F0E1101BC010E00FC0812F90E0FC0125
:10127000E250FE4F20812F1530F0FC01E950FE4F67
:1012800080810E946E0A1F5F173078F3EE24E3948A
:1012900005C0EE2019F00E94530AE12C6091B703BB
:1012A0007091B80380E290E00E942D0C8E2D28965C
:1012B0000FB6F894DEBF0FBECDBFDF91CF911F9167
:1012C0000F91FF90EF9008950E9442050E947B08C5
:1012D00080919B02816080939B020895CF92DF9260
:1012E000EF92FF920E949A0A6B017C0180919B020F
:1012F00080FF16C0C0929702D0929802E0929902A5
:10130000F0929A02C0929302D0929402E0929502D7
:10131000F092960290E190939202887F80939B02D4
:1013200080919202803109F064C08091970290917F
:101330009802A0919902B0919A02AC01BD0140536C
:10134000584F6F4F7F4F4C155D056E057F0558F464
:101350000E94AB08C0929302D0929402E092950250
:10136000F092960261C020919B02322F327021FDD3
:1013700019C088519C4FAF4FBF4F8C159D05AE05CE
:10138000BF0580F40E947B0880919B02826080935D
:101390009B02C0929302D0929402E0929502F09246
:1013A000960242C0311140C0809193029091940204
:1013B000A0919502B09196028C599F4FAF4FBF4FAD
:1013C0008C159D05AE05BF0578F584E02827209390
:1013D0009B0222FF03C00E94420502C00E947B08BC
:1013E000C0929302D0929402E0929502F0929602FB
:1013F0001BC08091930290919402A0919502B091AC
:10140000960288539F4FAF4FBF4F8C159D05AE0579
:10141000BF0550F40E94AB08C0929302D092940290
:10142000E0929502F0929602FF90EF90DF90CF90BD
:101430000895FF920F931F93CF93DF93F82E062FFB
:1014400010E0D0E014C0602F70E08F2D90E0810F8D
:10145000911D0E943F0AC0E007C04D2F6C2F812FC5
:101460000E94F708D82FCF5FC034B8F31F5F153044
:1014700050F3DF91CF911F910F91FF9008956F5F0F
:101480007F4F7F936F9301969F938F938BE193E0B0
:101490009F938F930E947F0C0F900F900F900F904F
:1014A0000F900F90089586E193E09F938F930E9491
:1014B0007F0C0F900F90089581E193E09F938F939D
:1014C0000E947F0C0F900F9008958DE093E09F9302
:1014D0008F930E947F0C0F900F9008951F928F930F
:1014E00087E093E09F938F930E947F0C0F900F9063
:1014F0000F900F90089580E093E09F938F930E9448
:101500007F0C0F900F90089510929C0210929D02F4
:1015100010929E0210929F0216BC8CE787BD92E04B
:1015200094BD83E085BDEEE6F0E08081826080833B
:1015300095BB08958FB7282F2078F89460919C026E
:1015400070919D0280919E0290919F02222309F04A
:10155000789408951F920F920FB60F9211248F93D3
:101560009F93AF93BF9380919C0290919D02A09115
:101570009E02B0919F020196A11DB11D80939C0215
:1015800090939D02A0939E02B0939F02BF91AF9152
:101590009F918F910F900FBE0F901F9018951092F2
:1015A00085001092840008951092B200089597FB70
:1015B000072E16F4009407D077FD09D00E94650B22
:1015C00007FC05D03EF4909581959F4F0895709546
:1015D00061957F4F0895A1E21A2EAA1BBB1BFD0146
:1015E0000DC0AA1FBB1FEE1FFF1FA217B307E40702
:1015F000F50720F0A21BB30BE40BF50B661F771F5A
:10160000881F991F1A9469F7609570958095909539
:101610009B01AC01BD01CF010895052E97FB1EF47F
:1016200000940E94240B57FD07D00E94EB0A07FC90
:1016300003D04EF40C94240B509540953095219591
:101640003F4F4F4F5F4F08959095809570956195EE
:101650007F4F8F4F9F4F0895A29FB001B39FC0014E
:10166000A39F700D811D1124911DB29F700D811DCE
:101670001124911D089597FB10F8169400080F93FC
:10168000083098F00850232F342F452F562F672FFE
:10169000782F892F902DF4CF05949795879577957E
:1016A000679557954795379527950A95AAF70F910E
:1016B00008950024A7FD00942A1730054005500521
:1016C00060057005800590050895AA1BBB1B51E1BC
:1016D00007C0AA1FBB1FA617B70710F0A61BB70BA2
:1016E000881F991F5A95A9F780959095BC01CD0147
:1016F00008958F929F92AF92BF92CF92DF92EF9216
:10170000FF92CF93DF93EC01688179818A819B817D
:10171000611571058105910521F464E279ED8BE590
:1017200097E02DE133EF41E050E00E940D0B4901BD
:101730005A019B01AC01A7EAB1E40E94230F6B019F
:101740007C01ACEEB4EFA50194010E94310FDC01E5
:10175000CB018C0D9D1DAE1DBF1DB7FF03C00197B2
:10176000A109B04888839983AA83BB839F77DF91BF
:10177000CF91FF90EF90DF90CF90BF90AF909F9070
:101780008F9008950E94790B089580E091E00E9467
:10179000790B0895A0E0B0E08093000190930101DF
:1017A000A0930201B093030108959111089581540B
:1017B0008A5108F4805E855A0895FB01DC0102C05D
:1017C00005900D9241505040D8F70895FB01DC017F
:1017D0008D91019080190110D9F3990B0895CF9341
:1017E000DF93EC012B8120FF33C026FF0AC02F7B43
:1017F0002B838E819F8101969F838E838A8190E0C7
:1018000029C022FF0FC0E881F9818081082E000CD9
:10181000990B009719F420622B831AC03196F98333
:10182000E8830EC0EA85FB85099597FF09C02B81E7
:10183000019611F080E201C080E1822B8B8308C009
:101840002E813F812F5F3F4F3F832E83992702C018
:101850008FEF9FEFDF91CF9108950F931F93CF9359
:10186000DF93FB01238121FD03C08FEF9FEF2CC08D
:1018700022FF16C0468157812481358142175307C4
:1018800044F4A081B1819D012F5F3F4F31832083BC
:101890008C93268137812F5F3F4F3783268314C077
:1018A0008B01EC01FB010084F185E02D0995892B6A
:1018B000E1F6D80116968D919C911797019617968F
:1018C0009C938E931697CE01DF91CF911F910F912C
:1018D0000895A0E0B0E0EFE6FCE00C94460FAE0106
:1018E0004B5F5F4FFA0161917191AF018091B70336
:1018F0009091B8030E94CE0CE2E00C94620FA0E03D
:10190000B0E0E5E8FCE00C94440FAE01495F5F4FA6
:10191000DA016D917D91AD0105EB13E0F801828153
:101920009381DC0113962C911397286013962C93C6
:101930000E94CE0CD8011296ED91FC911397238151
:10194000277F2383E4E00C94600F6091B7037091CC
:10195000B8030E942D0C0895AEE0B0E0E2EBFCE08D
:101960000C94440F0D891E8986E08C831A830983A9
:101970008FEF9FE79E838D83AE01475E5F4F6F8938
:10198000788DCE0101960E94CE0CEF81F885E00F94
:10199000F11F10822E96E4E00C94600FABE0B0E0F3
:1019A000E4EDFCE00C94360F6C017B018A01FC0134
:1019B00017821682838181FFCCC1CE0101963C0142
:1019C000F6019381F70193FD859193FF81917F014A
:1019D000882309F4BAC1853239F493FD859193FFC8
:1019E00081917F01853229F4B60190E00E942D0C8F
:1019F000E7CF912C212C312CFFE1F315D8F08B325D
:101A000079F038F4803279F08332A1F4232D20610B
:101A10001DC08D3261F0803369F4232D216016C022
:101A2000832D8260382EE32DE4603E2E2AC0F32DF4
:101A3000F8601DC037FC2DC020ED280F2A3040F083
:101A40008E32B9F436FC81C1232D2064322E19C0A8
:101A500036FE06C08AE0989E200D1124922E11C0F9
:101A6000EAE02E9E200D1124222EF32DF0623F2E4F
:101A700008C08C3621F4832D8068382E02C0883649
:101A800041F4F70193FD859193FF81917F018111CD
:101A9000B3CF982F9F7D9554933028F40C5F1F4F40
:101AA0009FE399830DC0833631F0833771F083351E
:101AB00009F059C021C0F801808189830E5F1F4F52
:101AC00088248394912C530113C02801F2E04F0E17
:101AD000511CF801A080B18036FE03C0692D70E072
:101AE00002C06FEF7FEFC5010E94BA0E4C01820168
:101AF000F32DFF773F2E16C0280122E0420E511C25
:101B0000F801A080B18036FE03C0692D70E002C0EC
:101B10006FEF7FEFC5010E94AF0E4C01F32DF0680F
:101B20003F2E820133FC1BC0822D90E0881699065F
:101B3000B0F4B60180E290E00E942D0C2A94F4CF1C
:101B4000F50137FC859137FE81915F01B60190E088
:101B50000E942D0C21102A9421E0821A91088114F0
:101B6000910471F7E8C0843611F0893641F5F80127
:101B700037FE07C060817181828193810C5F1F4FA6
:101B800008C060817181072E000C880B990B0E5FD5
:101B90001F4FF32DFF763F2E97FF09C0909580953C
:101BA000709561957F4F8F4F9F4FF0683F2E2AE0D1
:101BB00030E0A3010E94C50E882E861845C08537E7
:101BC00031F4232D2F7EB22E2AE030E025C0932D54
:101BD000997FB92E8F36C1F018F4883579F0B5C0E9
:101BE000803719F0883721F0B0C0E92FE061BE2EB0
:101BF000B4FE0DC0FB2DF460BF2E09C034FE0AC038
:101C0000292F2660B22E06C028E030E005C020E172
:101C100030E002C020E132E0F801B7FE07C0608189
:101C20007181828193810C5F1F4F06C06081718139
:101C300080E090E00E5F1F4FA3010E94C50E882E2A
:101C40008618FB2DFF773F2E36FE0DC0232D2E7FED
:101C5000A22E891458F434FE0BC032FC09C0832D27
:101C60008E7EA82E05C0B82CA32C03C0B82C01C0B2
:101C7000B92CA4FE0FC0FE01E80DF11D8081803358
:101C800021F49A2D997EA92E09C0A2FE06C0B39414
:101C9000B39404C08A2D867809F0B394A3FC11C0D4
:101CA000A0FE06C0B21488F4280C922C9B180EC01B
:101CB000B21460F4B60180E290E00E942D0CB3945F
:101CC000F7CFB21418F42B1802C0982C212CA4FEC4
:101CD00010C0B60180E390E00E942D0CA2FE17C058
:101CE000A1FC03C088E790E002C088E590E0B6015F
:101CF0000CC08A2D867859F0A1FE02C08BE201C08B
:101D000080E2A7FC8DE2B60190E00E942D0C8914C0
:101D100038F4B60180E390E00E942D0C9A94F7CF3E
:101D20008A94F301E80DF11D8081B60190E00E94D4
:101D30002D0C8110F5CF222009F442CEB60180E2AD
:101D400090E00E942D0C2A94F6CFF60186819781AF
:101D500002C08FEF9FEF2B96E2E10C94520FFC0133
:101D60000590615070400110D8F7809590958E0FC6
:101D70009F1F0895FC016150704001900110D8F739
:101D8000809590958E0F9F1F0895FA01AA272830FD
:101D900051F1203181F1E8946F936E7F6E5F7F4F38
:101DA0008F4F9F4FAF4FB1E03ED0B4E03CD0670FB4
:101DB000781F891F9A1FA11D680F791F8A1F911D07
:101DC000A11D6A0F711D811D911DA11D20D009F457
:101DD00068943F912AE0269F11243019305D319399
:101DE000DEF6CF010895462F4770405D4193B3E082
:101DF0000FD0C9F7F6CF462F4F70405D4A3318F029
:101E0000495D31FD4052419302D0A9F7EACFB4E0D9
:101E1000A6959795879577956795BA95C9F7009791
:101E20006105710508959B01AC010A2E0694579532
:101E3000479537952795BA95C9F7620F731F841F89
:101E4000951FA01D08950E942C0BA59F900DB49F77
:101E5000900DA49F800D911D11240895B7FF0C943F
:101E6000230F0E94230F821B930B08952F923F9202
:101E70004F925F926F927F928F929F92AF92BF929A
:101E8000CF92DF92EF92FF920F931F93CF93DF9346
:101E9000CDB7DEB7CA1BDB0B0FB6F894DEBF0FBEA3
:101EA000CDBF09942A88398848885F846E847D84F0
:101EB0008C849B84AA84B984C884DF80EE80FD80F2
:101EC0000C811B81AA81B981CE0FD11D0FB6F89468
:0E1ED000DEBF0FBECDBFED010895F894FFCF29
:101EDE00010000000000000300000000DB061307F5
:101EEE0000003F065B4F666D7D077F6F626F785F08
:101EFE0077616C6C00626F785F626F78001B5B318C
:101F0E0030306D2020201B5B306D001B5B31303379
:101F1E006D2020201B5B306D001B5B34336D202049
:101F2E00201B5B306D001B5B34316D2020201B5B52
:101F3E00306D001B5B3130326D2020201B5B306D0D
:101F4E000000010001010100010101000001010179
:101F5E000100010401000001040002000000000461
:101F6E000100000000000000000000000000000062
:101F7E00000100020000000001000002000002004B
:101F8E00010100000001000200000000000000003E
:101F9E00000000000000000400000000000000002F
:101FAE000000000001010101010104000000000019
:101FBE00010101000000000000010100000101010B
:101FCE00012564002573002E2F292B2C2A2D3A3043
:061FDE002820170F060089
:00000001FF
